{
  "contractName": "CustomNFT",
  "abi": [
    {
      "inputs": [
        {
          "internalType": "uint256",
          "name": "maxBatchSize_",
          "type": "uint256"
        },
        {
          "internalType": "uint256",
          "name": "collectionSize_",
          "type": "uint256"
        }
      ],
      "stateMutability": "nonpayable",
      "type": "constructor"
    },
    {
      "anonymous": false,
      "inputs": [
        {
          "indexed": true,
          "internalType": "address",
          "name": "owner",
          "type": "address"
        },
        {
          "indexed": true,
          "internalType": "address",
          "name": "approved",
          "type": "address"
        },
        {
          "indexed": true,
          "internalType": "uint256",
          "name": "tokenId",
          "type": "uint256"
        }
      ],
      "name": "Approval",
      "type": "event"
    },
    {
      "anonymous": false,
      "inputs": [
        {
          "indexed": true,
          "internalType": "address",
          "name": "owner",
          "type": "address"
        },
        {
          "indexed": true,
          "internalType": "address",
          "name": "operator",
          "type": "address"
        },
        {
          "indexed": false,
          "internalType": "bool",
          "name": "approved",
          "type": "bool"
        }
      ],
      "name": "ApprovalForAll",
      "type": "event"
    },
    {
      "anonymous": false,
      "inputs": [
        {
          "indexed": true,
          "internalType": "address",
          "name": "previousOwner",
          "type": "address"
        },
        {
          "indexed": true,
          "internalType": "address",
          "name": "newOwner",
          "type": "address"
        }
      ],
      "name": "OwnershipTransferred",
      "type": "event"
    },
    {
      "anonymous": false,
      "inputs": [
        {
          "indexed": true,
          "internalType": "address",
          "name": "from",
          "type": "address"
        },
        {
          "indexed": true,
          "internalType": "address",
          "name": "to",
          "type": "address"
        },
        {
          "indexed": true,
          "internalType": "uint256",
          "name": "tokenId",
          "type": "uint256"
        }
      ],
      "name": "Transfer",
      "type": "event"
    },
    {
      "inputs": [],
      "name": "SALE_OPEN",
      "outputs": [
        {
          "internalType": "bool",
          "name": "",
          "type": "bool"
        }
      ],
      "stateMutability": "view",
      "type": "function"
    },
    {
      "inputs": [
        {
          "internalType": "address",
          "name": "to",
          "type": "address"
        },
        {
          "internalType": "uint256",
          "name": "tokenId",
          "type": "uint256"
        }
      ],
      "name": "approve",
      "outputs": [],
      "stateMutability": "nonpayable",
      "type": "function"
    },
    {
      "inputs": [
        {
          "internalType": "address",
          "name": "owner",
          "type": "address"
        }
      ],
      "name": "balanceOf",
      "outputs": [
        {
          "internalType": "uint256",
          "name": "",
          "type": "uint256"
        }
      ],
      "stateMutability": "view",
      "type": "function"
    },
    {
      "inputs": [
        {
          "internalType": "uint256",
          "name": "tokenId",
          "type": "uint256"
        }
      ],
      "name": "getApproved",
      "outputs": [
        {
          "internalType": "address",
          "name": "",
          "type": "address"
        }
      ],
      "stateMutability": "view",
      "type": "function"
    },
    {
      "inputs": [
        {
          "internalType": "address",
          "name": "owner",
          "type": "address"
        },
        {
          "internalType": "address",
          "name": "operator",
          "type": "address"
        }
      ],
      "name": "isApprovedForAll",
      "outputs": [
        {
          "internalType": "bool",
          "name": "",
          "type": "bool"
        }
      ],
      "stateMutability": "view",
      "type": "function"
    },
    {
      "inputs": [],
      "name": "maxPublicBatchSize",
      "outputs": [
        {
          "internalType": "uint256",
          "name": "",
          "type": "uint256"
        }
      ],
      "stateMutability": "view",
      "type": "function"
    },
    {
      "inputs": [],
      "name": "name",
      "outputs": [
        {
          "internalType": "string",
          "name": "",
          "type": "string"
        }
      ],
      "stateMutability": "view",
      "type": "function"
    },
    {
      "inputs": [],
      "name": "nextOwnerToExplicitlySet",
      "outputs": [
        {
          "internalType": "uint256",
          "name": "",
          "type": "uint256"
        }
      ],
      "stateMutability": "view",
      "type": "function"
    },
    {
      "inputs": [],
      "name": "owner",
      "outputs": [
        {
          "internalType": "address",
          "name": "",
          "type": "address"
        }
      ],
      "stateMutability": "view",
      "type": "function"
    },
    {
      "inputs": [
        {
          "internalType": "uint256",
          "name": "tokenId",
          "type": "uint256"
        }
      ],
      "name": "ownerOf",
      "outputs": [
        {
          "internalType": "address",
          "name": "",
          "type": "address"
        }
      ],
      "stateMutability": "view",
      "type": "function"
    },
    {
      "inputs": [],
      "name": "renounceOwnership",
      "outputs": [],
      "stateMutability": "nonpayable",
      "type": "function"
    },
    {
      "inputs": [
        {
          "internalType": "address",
          "name": "from",
          "type": "address"
        },
        {
          "internalType": "address",
          "name": "to",
          "type": "address"
        },
        {
          "internalType": "uint256",
          "name": "tokenId",
          "type": "uint256"
        }
      ],
      "name": "safeTransferFrom",
      "outputs": [],
      "stateMutability": "nonpayable",
      "type": "function"
    },
    {
      "inputs": [
        {
          "internalType": "address",
          "name": "from",
          "type": "address"
        },
        {
          "internalType": "address",
          "name": "to",
          "type": "address"
        },
        {
          "internalType": "uint256",
          "name": "tokenId",
          "type": "uint256"
        },
        {
          "internalType": "bytes",
          "name": "_data",
          "type": "bytes"
        }
      ],
      "name": "safeTransferFrom",
      "outputs": [],
      "stateMutability": "nonpayable",
      "type": "function"
    },
    {
      "inputs": [],
      "name": "saleConfig",
      "outputs": [
        {
          "internalType": "uint32",
          "name": "publicSaleStartTime",
          "type": "uint32"
        },
        {
          "internalType": "uint64",
          "name": "whitelistPrice",
          "type": "uint64"
        },
        {
          "internalType": "uint64",
          "name": "publicPrice",
          "type": "uint64"
        }
      ],
      "stateMutability": "view",
      "type": "function"
    },
    {
      "inputs": [
        {
          "internalType": "address",
          "name": "operator",
          "type": "address"
        },
        {
          "internalType": "bool",
          "name": "approved",
          "type": "bool"
        }
      ],
      "name": "setApprovalForAll",
      "outputs": [],
      "stateMutability": "nonpayable",
      "type": "function"
    },
    {
      "inputs": [
        {
          "internalType": "bytes4",
          "name": "interfaceId",
          "type": "bytes4"
        }
      ],
      "name": "supportsInterface",
      "outputs": [
        {
          "internalType": "bool",
          "name": "",
          "type": "bool"
        }
      ],
      "stateMutability": "view",
      "type": "function"
    },
    {
      "inputs": [],
      "name": "symbol",
      "outputs": [
        {
          "internalType": "string",
          "name": "",
          "type": "string"
        }
      ],
      "stateMutability": "view",
      "type": "function"
    },
    {
      "inputs": [
        {
          "internalType": "uint256",
          "name": "index",
          "type": "uint256"
        }
      ],
      "name": "tokenByIndex",
      "outputs": [
        {
          "internalType": "uint256",
          "name": "",
          "type": "uint256"
        }
      ],
      "stateMutability": "view",
      "type": "function"
    },
    {
      "inputs": [
        {
          "internalType": "address",
          "name": "owner",
          "type": "address"
        },
        {
          "internalType": "uint256",
          "name": "index",
          "type": "uint256"
        }
      ],
      "name": "tokenOfOwnerByIndex",
      "outputs": [
        {
          "internalType": "uint256",
          "name": "",
          "type": "uint256"
        }
      ],
      "stateMutability": "view",
      "type": "function"
    },
    {
      "inputs": [
        {
          "internalType": "uint256",
          "name": "tokenId",
          "type": "uint256"
        }
      ],
      "name": "tokenURI",
      "outputs": [
        {
          "internalType": "string",
          "name": "",
          "type": "string"
        }
      ],
      "stateMutability": "view",
      "type": "function"
    },
    {
      "inputs": [],
      "name": "totalSupply",
      "outputs": [
        {
          "internalType": "uint256",
          "name": "",
          "type": "uint256"
        }
      ],
      "stateMutability": "view",
      "type": "function"
    },
    {
      "inputs": [
        {
          "internalType": "address",
          "name": "from",
          "type": "address"
        },
        {
          "internalType": "address",
          "name": "to",
          "type": "address"
        },
        {
          "internalType": "uint256",
          "name": "tokenId",
          "type": "uint256"
        }
      ],
      "name": "transferFrom",
      "outputs": [],
      "stateMutability": "nonpayable",
      "type": "function"
    },
    {
      "inputs": [
        {
          "internalType": "address",
          "name": "newOwner",
          "type": "address"
        }
      ],
      "name": "transferOwnership",
      "outputs": [],
      "stateMutability": "nonpayable",
      "type": "function"
    },
    {
      "inputs": [
        {
          "internalType": "address",
          "name": "",
          "type": "address"
        }
      ],
      "name": "whitelist",
      "outputs": [
        {
          "internalType": "uint256",
          "name": "",
          "type": "uint256"
        }
      ],
      "stateMutability": "view",
      "type": "function"
    },
    {
      "inputs": [],
      "name": "whitelistMint",
      "outputs": [],
      "stateMutability": "payable",
      "type": "function"
    },
    {
      "inputs": [
        {
          "internalType": "uint256",
          "name": "quantity",
          "type": "uint256"
        },
        {
          "internalType": "uint256",
          "name": "callerMintKey",
          "type": "uint256"
        }
      ],
      "name": "publicSaleMint",
      "outputs": [],
      "stateMutability": "payable",
      "type": "function"
    },
    {
      "inputs": [
        {
          "internalType": "uint256",
          "name": "publicPriceWei",
          "type": "uint256"
        },
        {
          "internalType": "uint256",
          "name": "mintKey",
          "type": "uint256"
        },
        {
          "internalType": "uint256",
          "name": "publicSaleStartTime",
          "type": "uint256"
        }
      ],
      "name": "isPublicSaleOn",
      "outputs": [
        {
          "internalType": "bool",
          "name": "",
          "type": "bool"
        }
      ],
      "stateMutability": "view",
      "type": "function"
    },
    {
      "inputs": [
        {
          "internalType": "uint64",
          "name": "whitelistPriceWei",
          "type": "uint64"
        },
        {
          "internalType": "uint64",
          "name": "publicPriceWei",
          "type": "uint64"
        },
        {
          "internalType": "uint32",
          "name": "publicSaleStartTime",
          "type": "uint32"
        }
      ],
      "name": "setupSaleInfo",
      "outputs": [],
      "stateMutability": "nonpayable",
      "type": "function"
    },
    {
      "inputs": [
        {
          "internalType": "address[]",
          "name": "addresses",
          "type": "address[]"
        },
        {
          "internalType": "uint256[]",
          "name": "numSlots",
          "type": "uint256[]"
        }
      ],
      "name": "setWhitelist",
      "outputs": [],
      "stateMutability": "nonpayable",
      "type": "function"
    },
    {
      "inputs": [],
      "name": "flipSaleState",
      "outputs": [],
      "stateMutability": "nonpayable",
      "type": "function"
    },
    {
      "inputs": [
        {
          "internalType": "string",
          "name": "baseURI",
          "type": "string"
        }
      ],
      "name": "setBaseURI",
      "outputs": [],
      "stateMutability": "nonpayable",
      "type": "function"
    },
    {
      "inputs": [],
      "name": "withdrawAll",
      "outputs": [],
      "stateMutability": "nonpayable",
      "type": "function"
    },
    {
      "inputs": [
        {
          "internalType": "uint256",
          "name": "quantity",
          "type": "uint256"
        }
      ],
      "name": "setOwnersExplicit",
      "outputs": [],
      "stateMutability": "nonpayable",
      "type": "function"
    },
    {
      "inputs": [
        {
          "internalType": "address",
          "name": "owner",
          "type": "address"
        }
      ],
      "name": "numberMinted",
      "outputs": [
        {
          "internalType": "uint256",
          "name": "",
          "type": "uint256"
        }
      ],
      "stateMutability": "view",
      "type": "function"
    },
    {
      "inputs": [
        {
          "internalType": "uint256",
          "name": "tokenId",
          "type": "uint256"
        }
      ],
      "name": "getOwnershipData",
      "outputs": [
        {
          "components": [
            {
              "internalType": "address",
              "name": "addr",
              "type": "address"
            },
            {
              "internalType": "uint64",
              "name": "startTimestamp",
              "type": "uint64"
            }
          ],
          "internalType": "struct ERC721A.TokenOwnership",
          "name": "",
          "type": "tuple"
        }
      ],
      "stateMutability": "view",
      "type": "function"
    },
    {
      "inputs": [
        {
          "internalType": "uint256",
          "name": "mintPasskey_",
          "type": "uint256"
        }
      ],
      "name": "setMintPassKey",
      "outputs": [],
      "stateMutability": "nonpayable",
      "type": "function"
    }
  ],
  "bytecode": "0x60e0604052600060018190556008819055600b80546001600160a01b031990811673269d13daf86aec35e9bd12684b027cba597360f117909155600c80549091167375d08d5b49b53b6a8f964851e00707c3259da330179055600d80546001600160a81b0319167318236675fe58640dc2e9ddffc478ec2eeea6ca52179055600e553480156200008e57600080fd5b50604051620035b2380380620035b2833981016040819052620000b191620003a0565b6040518060400160405280600a81526020016910dd5cdd1bdb4813919560b21b8152506040518060400160405280600481526020016310d3919560e21b81525083836200010d620001076200022260201b60201c565b62000226565b600081116200017a5760405162461bcd60e51b815260206004820152602e60248201527f455243373231413a20636f6c6c656374696f6e206d757374206861766520612060448201526d6e6f6e7a65726f20737570706c7960901b60648201526084015b60405180910390fd5b60008211620001dc5760405162461bcd60e51b815260206004820152602760248201527f455243373231413a206d61782062617463682073697a65206d757374206265206044820152666e6f6e7a65726f60c81b606482015260840162000171565b8351620001f190600290602087019062000304565b5082516200020790600390602086019062000304565b5060a091909152608052505060016009555060c0526200043e565b3390565b600062000232620002b0565b600080546001810182558180527f290decd9548b62a8d60345a988386fc84ba6bc95484008f6362f93160ef3e5630180546001600160a01b0319166001600160a01b0386811691821790925560405193945092908416917f8be0079c531659141344cd1fd0a4f28419497f9722a3daafe3b4186f6b6457e091a35050565b600080548015620002f8576000620002ca600183620003c5565b81548110620002dd57620002dd620003eb565b6000918252602090912001546001600160a01b031692915050565b600091505090565b5090565b828054620003129062000401565b90600052602060002090601f01602090048101928262000336576000855562000381565b82601f106200035157805160ff191683800117855562000381565b8280016001018555821562000381579182015b828111156200038157825182559160200191906001019062000364565b50620003009291505b808211156200030057600081556001016200038a565b60008060408385031215620003b457600080fd5b505080516020909101519092909150565b600082821015620003e657634e487b7160e01b600052601160045260246000fd5b500390565b634e487b7160e01b600052603260045260246000fd5b600181811c908216806200041657607f821691505b602082108114156200043857634e487b7160e01b600052602260045260246000fd5b50919050565b60805160a05160c05161311a62000498600039600081816103160152611663015260008181611fe00152818161200a015261263c015260008181610fb1015281816115e001528181611de60152611e18015261311a6000f3fe60806040526004361061020f5760003560e01c8063804f43cd11610118578063b88d4fde116100a0578063dc33e6811161006f578063dc33e68114610653578063e985e9c514610673578063ea9a576c146106bc578063f013e0e1146106dc578063f2fde38b146106fc57600080fd5b8063b88d4fde146105ea578063c87b56dd1461060a578063cb91d8b31461062a578063d7224ba01461063d57600080fd5b806390aa0b0f116100e757806390aa0b0f146104d55780639231ab2a1461053b57806395d89b41146105885780639b19251a1461059d578063a22cb465146105ca57600080fd5b8063804f43cd14610482578063853828b61461048a5780638da5cb5b1461049f5780638e26d2aa146104b457600080fd5b806334918dfd1161019b57806355f804b31161016a57806355f804b3146103ed5780636352211e1461040d57806370a082311461042d578063715018a61461044d57806373d3c8341461046257600080fd5b806334918dfd14610378578063422030ba1461038d57806342842e0e146103ad5780634f6ccce7146103cd57600080fd5b806318160ddd116101e257806318160ddd146102c557806323b872dd146102e4578063288712b3146103045780632d20fb60146103385780632f745c591461035857600080fd5b806301ffc9a71461021457806306fdde0314610249578063081812fc1461026b578063095ea7b3146102a3575b600080fd5b34801561022057600080fd5b5061023461022f3660046128ff565b61071c565b60405190151581526020015b60405180910390f35b34801561025557600080fd5b5061025e610789565b6040516102409190612974565b34801561027757600080fd5b5061028b610286366004612987565b61081b565b6040516001600160a01b039091168152602001610240565b3480156102af57600080fd5b506102c36102be3660046129bc565b6108ab565b005b3480156102d157600080fd5b506001545b604051908152602001610240565b3480156102f057600080fd5b506102c36102ff3660046129e6565b6109c3565b34801561031057600080fd5b506102d67f000000000000000000000000000000000000000000000000000000000000000081565b34801561034457600080fd5b506102c3610353366004612987565b6109ce565b34801561036457600080fd5b506102d66103733660046129bc565b610a60565b34801561038457600080fd5b506102c3610bd8565b34801561039957600080fd5b506102346103a8366004612a22565b610c22565b3480156103b957600080fd5b506102c36103c83660046129e6565b610c46565b3480156103d957600080fd5b506102d66103e8366004612987565b610c61565b3480156103f957600080fd5b506102c3610408366004612a4e565b610cca565b34801561041957600080fd5b5061028b610428366004612987565b610cff565b34801561043957600080fd5b506102d6610448366004612abf565b610d11565b34801561045957600080fd5b506102c3610da2565b34801561046e57600080fd5b506102c361047d366004612987565b610dd7565b6102c3610e05565b34801561049657600080fd5b506102c3611074565b3480156104ab57600080fd5b5061028b6111c8565b3480156104c057600080fd5b50600d5461023490600160a01b900460ff1681565b3480156104e157600080fd5b50600a5461050f9063ffffffff8116906001600160401b036401000000008204811691600160601b90041683565b6040805163ffffffff90941684526001600160401b039283166020850152911690820152606001610240565b34801561054757600080fd5b5061055b610556366004612987565b611212565b6040805182516001600160a01b031681526020928301516001600160401b03169281019290925201610240565b34801561059457600080fd5b5061025e61122f565b3480156105a957600080fd5b506102d66105b8366004612abf565b600f6020526000908152604090205481565b3480156105d657600080fd5b506102c36105e5366004612ada565b61123e565b3480156105f657600080fd5b506102c3610605366004612b5c565b611303565b34801561061657600080fd5b5061025e610625366004612987565b61133c565b6102c3610638366004612c1b565b611409565b34801561064957600080fd5b506102d660085481565b34801561065f57600080fd5b506102d661066e366004612abf565b611714565b34801561067f57600080fd5b5061023461068e366004612c3d565b6001600160a01b03918216600090815260076020908152604080832093909416825291909152205460ff1690565b3480156106c857600080fd5b506102c36106d7366004612c87565b61171f565b3480156106e857600080fd5b506102c36106f7366004612d65565b6117b7565b34801561070857600080fd5b506102c3610717366004612abf565b6118bd565b60006001600160e01b031982166380ac58cd60e01b148061074d57506001600160e01b03198216635b5e139f60e01b145b8061076857506001600160e01b0319821663780e9d6360e01b145b8061078357506301ffc9a760e01b6001600160e01b03198316145b92915050565b60606002805461079890612e24565b80601f01602080910402602001604051908101604052809291908181526020018280546107c490612e24565b80156108115780601f106107e657610100808354040283529160200191610811565b820191906000526020600020905b8154815290600101906020018083116107f457829003601f168201915b5050505050905090565b6000610828826001541190565b61088f5760405162461bcd60e51b815260206004820152602d60248201527f455243373231413a20617070726f76656420717565727920666f72206e6f6e6560448201526c3c34b9ba32b73a103a37b5b2b760991b60648201526084015b60405180910390fd5b506000908152600660205260409020546001600160a01b031690565b60006108b682610cff565b9050806001600160a01b0316836001600160a01b031614156109255760405162461bcd60e51b815260206004820152602260248201527f455243373231413a20617070726f76616c20746f2063757272656e74206f776e60448201526132b960f11b6064820152608401610886565b336001600160a01b03821614806109415750610941813361068e565b6109b35760405162461bcd60e51b815260206004820152603960248201527f455243373231413a20617070726f76652063616c6c6572206973206e6f74206f60448201527f776e6572206e6f7220617070726f76656420666f7220616c6c000000000000006064820152608401610886565b6109be838383611915565b505050565b6109be838383611971565b6109d6611cf3565b15156001146109f75760405162461bcd60e51b815260040161088690612e59565b60026009541415610a4a5760405162461bcd60e51b815260206004820152601f60248201527f5265656e7472616e637947756172643a207265656e7472616e742063616c6c006044820152606401610886565b6002600955610a5881611d75565b506001600955565b6000610a6b83610d11565b8210610ac45760405162461bcd60e51b815260206004820152602260248201527f455243373231413a206f776e657220696e646578206f7574206f6620626f756e604482015261647360f01b6064820152608401610886565b6000610acf60015490565b905060008060005b83811015610b78576000818152600460209081526040918290208251808401909352546001600160a01b038116808452600160a01b9091046001600160401b03169183019190915215610b2957805192505b876001600160a01b0316836001600160a01b03161415610b655786841415610b575750935061078392505050565b83610b6181612ea4565b9450505b5080610b7081612ea4565b915050610ad7565b5060405162461bcd60e51b815260206004820152602e60248201527f455243373231413a20756e61626c6520746f2067657420746f6b656e206f662060448201526d0deeedccae440c4f240d2dcc8caf60931b6064820152608401610886565b610be0611cf3565b1515600114610c015760405162461bcd60e51b815260040161088690612e59565b600d805460ff60a01b198116600160a01b9182900460ff1615909102179055565b60008315801590610c3257508215155b8015610c3e5750814210155b949350505050565b6109be83838360405180602001604052806000815250611303565b6000610c6c60015490565b8210610cc65760405162461bcd60e51b815260206004820152602360248201527f455243373231413a20676c6f62616c20696e646578206f7574206f6620626f756044820152626e647360e81b6064820152608401610886565b5090565b610cd2611cf3565b1515600114610cf35760405162461bcd60e51b815260040161088690612e59565b6109be60108383612859565b6000610d0a82611f5e565b5192915050565b60006001600160a01b038216610d7d5760405162461bcd60e51b815260206004820152602b60248201527f455243373231413a2062616c616e636520717565727920666f7220746865207a60448201526a65726f206164647265737360a81b6064820152608401610886565b506001600160a01b03166000908152600560205260409020546001600160801b031690565b610daa611cf3565b1515600114610dcb5760405162461bcd60e51b815260040161088690612e59565b610dd56000612107565b565b610ddf611cf3565b1515600114610e005760405162461bcd60e51b815260040161088690612e59565b600e55565b323314610e545760405162461bcd60e51b815260206004820152601e60248201527f5468652063616c6c657220697320616e6f7468657220636f6e747261637400006044820152606401610886565b610e5c6111c8565b6001600160a01b0316336001600160a01b031614610ec157600d54600160a01b900460ff161515600114610ec15760405162461bcd60e51b815260206004820152600c60248201526b14d85b19481cdd1bdc1c195960a21b6044820152606401610886565b600a5464010000000090046001600160401b031680610f3b5760405162461bcd60e51b815260206004820152603060248201527f57484954454c4953545f53414c453a2077686974656c6973742073616c65206860448201526f185cc81b9bdd08189959dd5b881e595d60821b6064820152608401610886565b336000908152600f6020526040902054610faf5760405162461bcd60e51b815260206004820152602f60248201527f57484954454c4953545f53414c453a206e6f7420656c696769626c6520666f7260448201526e081dda1a5d195b1a5cdd081b5a5b9d608a1b6064820152608401610886565b7f0000000000000000000000000000000000000000000000000000000000000000610fd960015490565b610fe4906001612ebf565b111561103d5760405162461bcd60e51b815260206004820152602260248201527f57484954454c4953545f53414c453a2072656163686564206d617820737570706044820152616c7960f01b6064820152608401610886565b336000908152600f6020526040812080549161105883612ed7565b919050555061106833600161218f565b611071816121ad565b50565b61107c611cf3565b151560011461109d5760405162461bcd60e51b815260040161088690612e59565b600260095414156110f05760405162461bcd60e51b815260206004820152601f60248201527f5265656e7472616e637947756172643a207265656e7472616e742063616c6c006044820152606401610886565b600260095547806111435760405162461bcd60e51b815260206004820181905260248201527f57495448445241573a204e6f2062616c616e636520696e20636f6e74726163746044820152606401610886565b6000611150600783612f04565b9050600061115f600384612f04565b905060008161116e8486612f18565b6111789190612f18565b600c54909150611191906001600160a01b031684612234565b600d546111a7906001600160a01b031683612234565b600b546111bd906001600160a01b031682612234565b505060016009555050565b60008054801561120a5760006111df600183612f18565b815481106111ef576111ef612f2f565b6000918252602090912001546001600160a01b031692915050565b600091505090565b604080518082019091526000808252602082015261078382611f5e565b60606003805461079890612e24565b6001600160a01b0382163314156112975760405162461bcd60e51b815260206004820152601a60248201527f455243373231413a20617070726f766520746f2063616c6c65720000000000006044820152606401610886565b3360008181526007602090815260408083206001600160a01b03871680855290835292819020805460ff191686151590811790915590519081529192917f17307eab39ab6107e8899845ad3d59bd9653f200f220920489ca2b5937696c31910160405180910390a35050565b61130e848484611971565b61131a848484846122d7565b6113365760405162461bcd60e51b815260040161088690612f45565b50505050565b6060611349826001541190565b6113ad5760405162461bcd60e51b815260206004820152602f60248201527f4552433732314d657461646174613a2055524920717565727920666f72206e6f60448201526e3732bc34b9ba32b73a103a37b5b2b760891b6064820152608401610886565b60006113b76123d5565b905060008151116113d75760405180602001604052806000815250611402565b806113e1846123e4565b6040516020016113f2929190612f98565b6040516020818303038152906040525b9392505050565b3233146114585760405162461bcd60e51b815260206004820152601e60248201527f5468652063616c6c657220697320616e6f7468657220636f6e747261637400006044820152606401610886565b6114606111c8565b6001600160a01b0316336001600160a01b0316146114c557600d54600160a01b900460ff1615156001146114c55760405162461bcd60e51b815260206004820152600c60248201526b14d85b19481cdd1bdc1c195960a21b6044820152606401610886565b60408051606081018252600a5463ffffffff81168083526001600160401b03640100000000830481166020850152600160601b909204909116928201839052600e549192908483146115745760405162461bcd60e51b815260206004820152603260248201527f5055424c49435f53414c453a2063616c6c6564207769746820696e636f7272656044820152716374207075626c69632073616c65206b657960701b6064820152608401610886565b61157f828483610c22565b6115de5760405162461bcd60e51b815260206004820152602a60248201527f5055424c49435f53414c453a207075626c69632073616c6520686173206e6f7460448201526908189959dd5b881e595d60b21b6064820152608401610886565b7f00000000000000000000000000000000000000000000000000000000000000008661160960015490565b6116139190612ebf565b11156116615760405162461bcd60e51b815260206004820152601f60248201527f5055424c49435f53414c453a2072656163686564206d617820737570706c79006044820152606401610886565b7f00000000000000000000000000000000000000000000000000000000000000008661168c33611714565b6116969190612ebf565b11156116f05760405162461bcd60e51b815260206004820152602360248201527f5055424c49435f53414c453a2063616e206e6f74206d696e742074686973206d604482015262616e7960e81b6064820152608401610886565b6116fa338761218f565b61170c6117078784612fc7565b6121ad565b505050505050565b6000610783826124e1565b611727611cf3565b15156001146117485760405162461bcd60e51b815260040161088690612e59565b6040805160608101825263ffffffff929092168083526001600160401b0394851660208401819052939094169101819052600a80546bffffffffffffffffffffffff19169093176401000000009092029190911767ffffffffffffffff60601b1916600160601b909102179055565b6117bf611cf3565b15156001146117e05760405162461bcd60e51b815260040161088690612e59565b80518251146118425760405162461bcd60e51b815260206004820152602860248201527f61646472657373657320646f6573206e6f74206d61746368206e756d536c6f746044820152670e640d8cadccee8d60c31b6064820152608401610886565b60005b82518110156109be5781818151811061186057611860612f2f565b6020026020010151600f600085848151811061187e5761187e612f2f565b60200260200101516001600160a01b03166001600160a01b031681526020019081526020016000208190555080806118b590612ea4565b915050611845565b6118c5611cf3565b15156001146118e65760405162461bcd60e51b815260040161088690612e59565b6001600160a01b03811661190c5760405162461bcd60e51b815260040161088690612fe6565b61107181612107565b60008281526006602052604080822080546001600160a01b0319166001600160a01b0387811691821790925591518593918516917f8c5be1e5ebec7d5bd14f71427d1e84f3dd0314c0f7b2291e5b200ac8c7c3b92591a4505050565b600061197c82611f5e565b80519091506000906001600160a01b0316336001600160a01b031614806119b35750336119a88461081b565b6001600160a01b0316145b806119c5575081516119c5903361068e565b905080611a2f5760405162461bcd60e51b815260206004820152603260248201527f455243373231413a207472616e736665722063616c6c6572206973206e6f74206044820152711bdddb995c881b9bdc88185c1c1c9bdd995960721b6064820152608401610886565b846001600160a01b031682600001516001600160a01b031614611aa35760405162461bcd60e51b815260206004820152602660248201527f455243373231413a207472616e736665722066726f6d20696e636f72726563746044820152651037bbb732b960d11b6064820152608401610886565b6001600160a01b038416611b075760405162461bcd60e51b815260206004820152602560248201527f455243373231413a207472616e7366657220746f20746865207a65726f206164604482015264647265737360d81b6064820152608401610886565b611b176000848460000151611915565b6001600160a01b0385166000908152600560205260408120805460019290611b499084906001600160801b031661302c565b82546101009290920a6001600160801b038181021990931691831602179091556001600160a01b03861660009081526005602052604081208054600194509092611b9591859116613054565b82546001600160801b039182166101009390930a9283029190920219909116179055506040805180820182526001600160a01b0380871682526001600160401b03428116602080850191825260008981526004909152948520935184549151909216600160a01b026001600160e01b03199091169190921617179055611c1c846001612ebf565b6000818152600460205260409020549091506001600160a01b0316611cad57611c46816001541190565b15611cad5760408051808201825284516001600160a01b0390811682526020808701516001600160401b039081168285019081526000878152600490935294909120925183549451909116600160a01b026001600160e01b03199094169116179190911790555b83856001600160a01b0316876001600160a01b03167fddf252ad1be2c89b69c2b068fc378daa952ba7f163c4a11628f55a4df523b3ef60405160405180910390a461170c565b600033611d125760405162461bcd60e51b815260040161088690612fe6565b6000805b600054811015611d6f57336001600160a01b031660008281548110611d3d57611d3d612f2f565b6000918252602090912001546001600160a01b03161415611d5d57600191505b80611d6781612ea4565b915050611d16565b50919050565b60085481611dc55760405162461bcd60e51b815260206004820152601860248201527f7175616e74697479206d757374206265206e6f6e7a65726f00000000000000006044820152606401610886565b60006001611dd38484612ebf565b611ddd9190612f18565b9050611e0a60017f0000000000000000000000000000000000000000000000000000000000000000612f18565b811115611e3f57611e3c60017f0000000000000000000000000000000000000000000000000000000000000000612f18565b90505b611e4a816001541190565b611ea55760405162461bcd60e51b815260206004820152602660248201527f6e6f7420656e6f756768206d696e7465642079657420666f722074686973206360448201526506c65616e75760d41b6064820152608401610886565b815b818111611f4a576000818152600460205260409020546001600160a01b0316611f38576000611ed582611f5e565b60408051808201825282516001600160a01b0390811682526020938401516001600160401b039081168584019081526000888152600490965293909420915182549351909416600160a01b026001600160e01b0319909316931692909217179055505b80611f4281612ea4565b915050611ea7565b50611f56816001612ebf565b600855505050565b6040805180820190915260008082526020820152611f7d826001541190565b611fdc5760405162461bcd60e51b815260206004820152602a60248201527f455243373231413a206f776e657220717565727920666f72206e6f6e657869736044820152693a32b73a103a37b5b2b760b11b6064820152608401610886565b60007f0000000000000000000000000000000000000000000000000000000000000000831061203d5761202f7f000000000000000000000000000000000000000000000000000000000000000084612f18565b61203a906001612ebf565b90505b825b8181106120a6576000818152600460209081526040918290208251808401909352546001600160a01b038116808452600160a01b9091046001600160401b0316918301919091521561209357949350505050565b508061209e81612ed7565b91505061203f565b5060405162461bcd60e51b815260206004820152602f60248201527f455243373231413a20756e61626c6520746f2064657465726d696e652074686560448201526e1037bbb732b91037b3103a37b5b2b760891b6064820152608401610886565b60006121116111c8565b600080546001810182558180527f290decd9548b62a8d60345a988386fc84ba6bc95484008f6362f93160ef3e5630180546001600160a01b0319166001600160a01b0386811691821790925560405193945092908416917f8be0079c531659141344cd1fd0a4f28419497f9722a3daafe3b4186f6b6457e091a35050565b6121a982826040518060200160405280600081525061257f565b5050565b803410156121f65760405162461bcd60e51b81526020600482015260166024820152752732b2b2103a379039b2b7321036b7b9329022aa241760511b6044820152606401610886565b8034111561107157336108fc61220c8334612f18565b6040518115909202916000818181858888f193505050501580156121a9573d6000803e3d6000fd5b6000826001600160a01b03168260405160006040518083038185875af1925050503d8060008114612281576040519150601f19603f3d011682016040523d82523d6000602084013e612286565b606091505b50509050806109be5760405162461bcd60e51b815260206004820152601a60248201527f57495448445241573a205472616e73666572206661696c65642e0000000000006044820152606401610886565b60006001600160a01b0384163b156123ca57604051630a85bd0160e11b81526001600160a01b0385169063150b7a029061231b903390899088908890600401613076565b6020604051808303816000875af1925050508015612356575060408051601f3d908101601f19168201909252612353918101906130b3565b60015b6123b0573d808015612384576040519150601f19603f3d011682016040523d82523d6000602084013e612389565b606091505b5080516123a85760405162461bcd60e51b815260040161088690612f45565b805181602001fd5b6001600160e01b031916630a85bd0160e11b149050610c3e565b506001949350505050565b60606010805461079890612e24565b6060816124085750506040805180820190915260018152600360fc1b602082015290565b8160005b8115612432578061241c81612ea4565b915061242b9050600a83612f04565b915061240c565b6000816001600160401b0381111561244c5761244c612b16565b6040519080825280601f01601f191660200182016040528015612476576020820181803683370190505b5090505b8415610c3e5761248b600183612f18565b9150612498600a866130d0565b6124a3906030612ebf565b60f81b8183815181106124b8576124b8612f2f565b60200101906001600160f81b031916908160001a9053506124da600a86612f04565b945061247a565b60006001600160a01b0382166125535760405162461bcd60e51b815260206004820152603160248201527f455243373231413a206e756d626572206d696e74656420717565727920666f7260448201527020746865207a65726f206164647265737360781b6064820152608401610886565b506001600160a01b0316600090815260056020526040902054600160801b90046001600160801b031690565b6001546001600160a01b0384166125e25760405162461bcd60e51b815260206004820152602160248201527f455243373231413a206d696e7420746f20746865207a65726f206164647265736044820152607360f81b6064820152608401610886565b6125ed816001541190565b1561263a5760405162461bcd60e51b815260206004820152601d60248201527f455243373231413a20746f6b656e20616c7265616479206d696e7465640000006044820152606401610886565b7f00000000000000000000000000000000000000000000000000000000000000008311156126b55760405162461bcd60e51b815260206004820152602260248201527f455243373231413a207175616e7469747920746f206d696e7420746f6f2068696044820152610ced60f31b6064820152608401610886565b6001600160a01b0384166000908152600560209081526040918290208251808401845290546001600160801b038082168352600160801b9091041691810191909152815180830190925280519091908190612711908790613054565b6001600160801b0316815260200185836020015161272f9190613054565b6001600160801b039081169091526001600160a01b0380881660008181526005602090815260408083208751978301518716600160801b029790961696909617909455845180860186529182526001600160401b034281168386019081528883526004909552948120915182549451909516600160a01b026001600160e01b031990941694909216939093179190911790915582905b8581101561284e5760405182906001600160a01b038916906000907fddf252ad1be2c89b69c2b068fc378daa952ba7f163c4a11628f55a4df523b3ef908290a461281260008884886122d7565b61282e5760405162461bcd60e51b815260040161088690612f45565b8161283881612ea4565b925050808061284690612ea4565b9150506127c5565b50600181905561170c565b82805461286590612e24565b90600052602060002090601f01602090048101928261288757600085556128cd565b82601f106128a05782800160ff198235161785556128cd565b828001600101855582156128cd579182015b828111156128cd5782358255916020019190600101906128b2565b50610cc69291505b80821115610cc657600081556001016128d5565b6001600160e01b03198116811461107157600080fd5b60006020828403121561291157600080fd5b8135611402816128e9565b60005b8381101561293757818101518382015260200161291f565b838111156113365750506000910152565b6000815180845261296081602086016020860161291c565b601f01601f19169290920160200192915050565b6020815260006114026020830184612948565b60006020828403121561299957600080fd5b5035919050565b80356001600160a01b03811681146129b757600080fd5b919050565b600080604083850312156129cf57600080fd5b6129d8836129a0565b946020939093013593505050565b6000806000606084860312156129fb57600080fd5b612a04846129a0565b9250612a12602085016129a0565b9150604084013590509250925092565b600080600060608486031215612a3757600080fd5b505081359360208301359350604090920135919050565b60008060208385031215612a6157600080fd5b82356001600160401b0380821115612a7857600080fd5b818501915085601f830112612a8c57600080fd5b813581811115612a9b57600080fd5b866020828501011115612aad57600080fd5b60209290920196919550909350505050565b600060208284031215612ad157600080fd5b611402826129a0565b60008060408385031215612aed57600080fd5b612af6836129a0565b915060208301358015158114612b0b57600080fd5b809150509250929050565b634e487b7160e01b600052604160045260246000fd5b604051601f8201601f191681016001600160401b0381118282101715612b5457612b54612b16565b604052919050565b60008060008060808587031215612b7257600080fd5b612b7b856129a0565b93506020612b8a8187016129a0565b93506040860135925060608601356001600160401b0380821115612bad57600080fd5b818801915088601f830112612bc157600080fd5b813581811115612bd357612bd3612b16565b612be5601f8201601f19168501612b2c565b91508082528984828501011115612bfb57600080fd5b808484018584013760008482840101525080935050505092959194509250565b60008060408385031215612c2e57600080fd5b50508035926020909101359150565b60008060408385031215612c5057600080fd5b612c59836129a0565b9150612c67602084016129a0565b90509250929050565b80356001600160401b03811681146129b757600080fd5b600080600060608486031215612c9c57600080fd5b612ca584612c70565b9250612cb360208501612c70565b9150604084013563ffffffff81168114612ccc57600080fd5b809150509250925092565b60006001600160401b03821115612cf057612cf0612b16565b5060051b60200190565b600082601f830112612d0b57600080fd5b81356020612d20612d1b83612cd7565b612b2c565b82815260059290921b84018101918181019086841115612d3f57600080fd5b8286015b84811015612d5a5780358352918301918301612d43565b509695505050505050565b60008060408385031215612d7857600080fd5b82356001600160401b0380821115612d8f57600080fd5b818501915085601f830112612da357600080fd5b81356020612db3612d1b83612cd7565b82815260059290921b84018101918181019089841115612dd257600080fd5b948201945b83861015612df757612de8866129a0565b82529482019490820190612dd7565b96505086013592505080821115612e0d57600080fd5b50612e1a85828601612cfa565b9150509250929050565b600181811c90821680612e3857607f821691505b60208210811415611d6f57634e487b7160e01b600052602260045260246000fd5b6020808252818101527f4f776e61626c653a2063616c6c6572206973206e6f7420746865206f776e6572604082015260600190565b634e487b7160e01b600052601160045260246000fd5b6000600019821415612eb857612eb8612e8e565b5060010190565b60008219821115612ed257612ed2612e8e565b500190565b600081612ee657612ee6612e8e565b506000190190565b634e487b7160e01b600052601260045260246000fd5b600082612f1357612f13612eee565b500490565b600082821015612f2a57612f2a612e8e565b500390565b634e487b7160e01b600052603260045260246000fd5b60208082526033908201527f455243373231413a207472616e7366657220746f206e6f6e204552433732315260408201527232b1b2b4bb32b91034b6b83632b6b2b73a32b960691b606082015260800190565b60008351612faa81846020880161291c565b835190830190612fbe81836020880161291c565b01949350505050565b6000816000190483118215151615612fe157612fe1612e8e565b500290565b60208082526026908201527f4f776e61626c653a206e6577206f776e657220697320746865207a65726f206160408201526564647265737360d01b606082015260800190565b60006001600160801b038381169083168181101561304c5761304c612e8e565b039392505050565b60006001600160801b03808316818516808303821115612fbe57612fbe612e8e565b6001600160a01b03858116825284166020820152604081018390526080606082018190526000906130a990830184612948565b9695505050505050565b6000602082840312156130c557600080fd5b8151611402816128e9565b6000826130df576130df612eee565b50069056fea2646970667358221220171e8221511cfff8c041a3a5d63325880c32a74ac62ef05aac16a55c0c60fc4f64736f6c634300080c0033",
  "immutableReferences": {
    "9380": [
      {
        "length": 32,
        "start": 4017
      },
      {
        "length": 32,
        "start": 5600
      },
      {
        "length": 32,
        "start": 7654
      },
      {
        "length": 32,
        "start": 7704
      }
    ],
    "9382": [
      {
        "length": 32,
        "start": 8160
      },
      {
        "length": 32,
        "start": 8202
      },
      {
        "length": 32,
        "start": 9788
      }
    ],
    "10547": [
      {
        "length": 32,
        "start": 790
      },
      {
        "length": 32,
        "start": 5731
      }
    ]
  },
  "source": "// SPDX-License-Identifier: MIT\r\n\r\npragma solidity ^0.8.10;\r\n\r\nimport \"@openzeppelin/contracts/access/Ownable.sol\";\r\nimport \"@openzeppelin/contracts/security/ReentrancyGuard.sol\";\r\nimport \"@openzeppelin/contracts/utils/Strings.sol\";\r\nimport \"./ERC721A.sol\";\r\n\r\ncontract CustomNFT is Ownable, ERC721A, ReentrancyGuard {\r\n  uint256 public immutable maxPublicBatchSize;\r\n\r\n  struct SaleConfig {\r\n    uint32 publicSaleStartTime;\r\n    uint64 whitelistPrice;\r\n    uint64 publicPrice;\r\n  }\r\n  SaleConfig public saleConfig;\r\n\r\n  address private fundWallet = payable(0x269D13DaF86aec35e9bD12684B027CbA597360f1); // Owner Fund Wallet Address\r\n  address private devOneWallet = payable(0x75d08D5B49B53B6A8f964851E00707C3259Da330); // Developer One Wallet Address\r\n  address private devTwoWallet = payable(0x18236675fE58640dc2e9dDFfC478eC2EEea6Ca52); // Developer Two Wallet Address\r\n\r\n  bool public SALE_OPEN = false;\r\n\r\n  uint256 private _mintPasskey = 0;\r\n\r\n  mapping(address => uint256) public whitelist;\r\n\r\n  constructor(uint256 maxBatchSize_, uint256 collectionSize_) ERC721A(\"Custom NFT\", \"CNFT\", maxBatchSize_, collectionSize_) {\r\n    maxPublicBatchSize = maxBatchSize_;\r\n  }\r\n\r\n  modifier callerIsUser() {\r\n    require(tx.origin == msg.sender, \"The caller is another contract\");\r\n    _;\r\n  }\r\n\r\n  modifier saleIsOpen {\r\n    if (_msgSender() != owner()) {\r\n      require(SALE_OPEN == true, \"Sale stopped\");\r\n    }\r\n    _;\r\n  }\r\n\r\n  function whitelistMint() external payable callerIsUser saleIsOpen {\r\n    uint256 price = uint256(saleConfig.whitelistPrice);\r\n    require(price != 0, \"WHITELIST_SALE: whitelist sale has not begun yet\");\r\n    require(whitelist[msg.sender] > 0, \"WHITELIST_SALE: not eligible for whitelist mint\");\r\n    require(totalSupply() + 1 <= collectionSize, \"WHITELIST_SALE: reached max supply\");\r\n\r\n    whitelist[msg.sender]--;\r\n    _safeMint(msg.sender, 1);\r\n\r\n    refundIfOver(price);\r\n  }\r\n\r\n  function publicSaleMint(uint256 quantity, uint256 callerMintKey) external payable callerIsUser saleIsOpen {\r\n    SaleConfig memory config = saleConfig;\r\n    uint256 mintKey = _mintPasskey;\r\n    uint256 publicPrice = uint256(config.publicPrice);\r\n    uint256 publicSaleStartTime = uint256(config.publicSaleStartTime);\r\n\r\n    require(mintKey == callerMintKey, \"PUBLIC_SALE: called with incorrect public sale key\");\r\n\r\n    require(isPublicSaleOn(publicPrice, mintKey, publicSaleStartTime), \"PUBLIC_SALE: public sale has not begun yet\");\r\n    require(totalSupply() + quantity <= collectionSize, \"PUBLIC_SALE: reached max supply\");\r\n    require(numberMinted(msg.sender) + quantity <= maxPublicBatchSize, \"PUBLIC_SALE: can not mint this many\");\r\n\r\n    _safeMint(msg.sender, quantity);\r\n    refundIfOver(publicPrice * quantity);\r\n  }\r\n\r\n  function refundIfOver(uint256 price) private {\r\n    require(msg.value >= price, \"Need to send more ETH.\");\r\n\r\n    if (msg.value > price) {\r\n      payable(msg.sender).transfer(msg.value - price);\r\n    }\r\n  }\r\n\r\n  function isPublicSaleOn(uint256 publicPriceWei, uint256 mintKey, uint256 publicSaleStartTime) public view returns (bool) {\r\n    return publicPriceWei != 0 && mintKey != 0 && block.timestamp >= publicSaleStartTime;\r\n  }\r\n\r\n  function setupSaleInfo(uint64 whitelistPriceWei, uint64 publicPriceWei, uint32 publicSaleStartTime) external onlyOwner {\r\n    saleConfig = SaleConfig(publicSaleStartTime, whitelistPriceWei, publicPriceWei);\r\n  }\r\n\r\n  function setWhitelist(address[] memory addresses, uint256[] memory numSlots) external onlyOwner {\r\n    require(addresses.length == numSlots.length, \"addresses does not match numSlots length\");\r\n\r\n    for (uint256 i = 0; i < addresses.length; i++) {\r\n      whitelist[addresses[i]] = numSlots[i];\r\n    }\r\n  }\r\n\r\n  function flipSaleState() public onlyOwner {\r\n    SALE_OPEN = !SALE_OPEN;\r\n  }\r\n\r\n  // metadata URI\r\n  string private _baseTokenURI;\r\n\r\n  function _baseURI() internal view virtual override returns (string memory) {\r\n    return _baseTokenURI;\r\n  }\r\n\r\n  function setBaseURI(string calldata baseURI) external onlyOwner {\r\n    _baseTokenURI = baseURI;\r\n  }\r\n\r\n  function withdrawAll() external onlyOwner nonReentrant {\r\n    uint256 totalBalance = address(this).balance;\r\n    require(totalBalance > 0, \"WITHDRAW: No balance in contract\");\r\n\r\n    uint256 devOneBalance = totalBalance / 7; // 7% of total sale\r\n    uint256 devTwoBalance = totalBalance / 3; // 3% of total sale\r\n    uint256 ownerBalance = totalBalance - devOneBalance - devTwoBalance; // 90% of total sale\r\n\r\n    _withdraw(devOneWallet, devOneBalance);\r\n    _withdraw(devTwoWallet, devTwoBalance);\r\n    _withdraw(fundWallet, ownerBalance);\r\n  }\r\n\r\n  function _withdraw(address _address, uint256 _amount) internal {\r\n    (bool success, ) = _address.call{value: _amount}(\"\");\r\n\r\n    require(success, \"WITHDRAW: Transfer failed.\");\r\n  }\r\n\r\n  function setOwnersExplicit(uint256 quantity) external onlyOwner nonReentrant {\r\n    _setOwnersExplicit(quantity);\r\n  }\r\n\r\n  function numberMinted(address owner) public view returns (uint256) {\r\n    return _numberMinted(owner);\r\n  }\r\n\r\n  function getOwnershipData(uint256 tokenId) external view returns (TokenOwnership memory) {\r\n    return ownershipOf(tokenId);\r\n  }\r\n\r\n  function setMintPassKey(uint256 mintPasskey_) external onlyOwner {\r\n    _mintPasskey = mintPasskey_;\r\n  }\r\n}",
  "sourcePath": "F:\\Cory_Career\\Stan_M\\mappycoin-dashboard\\contracts\\MappyToken_ERC721A\\MappyNFToken.sol",
  "compiler": {
    "name": "solc",
    "version": "0.8.12+commit.f00d7308.Emscripten.clang"
  },
  "schemaVersion": "3.4.3",
  "updatedAt": "2022-02-24T00:21:02.885Z",
  "devdoc": {
    "kind": "dev",
    "methods": {
      "approve(address,uint256)": {
        "details": "See {IERC721-approve}."
      },
      "balanceOf(address)": {
        "details": "See {IERC721-balanceOf}."
      },
      "getApproved(uint256)": {
        "details": "See {IERC721-getApproved}."
      },
      "isApprovedForAll(address,address)": {
        "details": "See {IERC721-isApprovedForAll}."
      },
      "name()": {
        "details": "See {IERC721Metadata-name}."
      },
      "owner()": {
        "details": "Returns the address of the current owner."
      },
      "ownerOf(uint256)": {
        "details": "See {IERC721-ownerOf}."
      },
      "renounceOwnership()": {
        "details": "Leaves the contract without owner. It will not be possible to call `onlyOwner` functions anymore. Can only be called by the current owner. NOTE: Renouncing ownership will leave the contract without an owner, thereby removing any functionality that is only available to the owner."
      },
      "safeTransferFrom(address,address,uint256)": {
        "details": "See {IERC721-safeTransferFrom}."
      },
      "safeTransferFrom(address,address,uint256,bytes)": {
        "details": "See {IERC721-safeTransferFrom}."
      },
      "setApprovalForAll(address,bool)": {
        "details": "See {IERC721-setApprovalForAll}."
      },
      "supportsInterface(bytes4)": {
        "details": "See {IERC165-supportsInterface}."
      },
      "symbol()": {
        "details": "See {IERC721Metadata-symbol}."
      },
      "tokenByIndex(uint256)": {
        "details": "See {IERC721Enumerable-tokenByIndex}."
      },
      "tokenOfOwnerByIndex(address,uint256)": {
        "details": "See {IERC721Enumerable-tokenOfOwnerByIndex}. This read function is O(collectionSize). If calling from a separate contract, be sure to test gas first. It may also degrade with extremely large collection sizes (e.g >> 10000), test for your use case."
      },
      "tokenURI(uint256)": {
        "details": "See {IERC721Metadata-tokenURI}."
      },
      "totalSupply()": {
        "details": "See {IERC721Enumerable-totalSupply}."
      },
      "transferFrom(address,address,uint256)": {
        "details": "See {IERC721-transferFrom}."
      },
      "transferOwnership(address)": {
        "details": "Transfers ownership of the contract to a new account (`newOwner`). Can only be called by the current owner."
      }
    },
    "version": 1
  },
  "userdoc": {
    "kind": "user",
    "methods": {},
    "version": 1
  }
}