{
  "contractName": "HFarmingPoolV2",
  "abi": [
    {
      "inputs": [
        {
          "internalType": "contract IERC20",
          "name": "_mappyRewardAsset",
          "type": "address"
        },
        {
          "internalType": "contract IERC20",
          "name": "_mappyDepositAsset",
          "type": "address"
        }
      ],
      "stateMutability": "nonpayable",
      "type": "constructor"
    },
    {
      "anonymous": false,
      "inputs": [
        {
          "indexed": true,
          "internalType": "address",
          "name": "user",
          "type": "address"
        },
        {
          "indexed": false,
          "internalType": "uint256",
          "name": "amount",
          "type": "uint256"
        }
      ],
      "name": "Deposit",
      "type": "event"
    },
    {
      "anonymous": false,
      "inputs": [
        {
          "indexed": true,
          "internalType": "address",
          "name": "user",
          "type": "address"
        },
        {
          "indexed": false,
          "internalType": "uint256",
          "name": "amount",
          "type": "uint256"
        }
      ],
      "name": "EmergencyWithdraw",
      "type": "event"
    },
    {
      "anonymous": false,
      "inputs": [
        {
          "indexed": true,
          "internalType": "address",
          "name": "previousOwner",
          "type": "address"
        },
        {
          "indexed": true,
          "internalType": "address",
          "name": "newOwner",
          "type": "address"
        }
      ],
      "name": "OwnershipTransferred",
      "type": "event"
    },
    {
      "anonymous": false,
      "inputs": [
        {
          "indexed": true,
          "internalType": "address",
          "name": "user",
          "type": "address"
        },
        {
          "indexed": false,
          "internalType": "uint256",
          "name": "amount",
          "type": "uint256"
        }
      ],
      "name": "Withdraw",
      "type": "event"
    },
    {
      "inputs": [],
      "name": "mappyDepositAsset",
      "outputs": [
        {
          "internalType": "contract IERC20",
          "name": "",
          "type": "address"
        }
      ],
      "stateMutability": "view",
      "type": "function"
    },
    {
      "inputs": [],
      "name": "mappyRewardAsset",
      "outputs": [
        {
          "internalType": "contract IERC20",
          "name": "",
          "type": "address"
        }
      ],
      "stateMutability": "view",
      "type": "function"
    },
    {
      "inputs": [],
      "name": "mappyTreasury",
      "outputs": [
        {
          "internalType": "contract IMappyTreasury",
          "name": "",
          "type": "address"
        }
      ],
      "stateMutability": "view",
      "type": "function"
    },
    {
      "inputs": [],
      "name": "owner",
      "outputs": [
        {
          "internalType": "address",
          "name": "",
          "type": "address"
        }
      ],
      "stateMutability": "view",
      "type": "function"
    },
    {
      "inputs": [],
      "name": "renounceOwnership",
      "outputs": [],
      "stateMutability": "nonpayable",
      "type": "function"
    },
    {
      "inputs": [
        {
          "internalType": "address",
          "name": "newOwner",
          "type": "address"
        }
      ],
      "name": "transferOwnership",
      "outputs": [],
      "stateMutability": "nonpayable",
      "type": "function"
    },
    {
      "inputs": [
        {
          "internalType": "address",
          "name": "",
          "type": "address"
        }
      ],
      "name": "userInfo",
      "outputs": [
        {
          "internalType": "uint256",
          "name": "amount",
          "type": "uint256"
        },
        {
          "internalType": "uint256",
          "name": "rewardDebt",
          "type": "uint256"
        }
      ],
      "stateMutability": "view",
      "type": "function"
    },
    {
      "inputs": [
        {
          "internalType": "contract IMappyTreasury",
          "name": "_mappyTreasury",
          "type": "address"
        }
      ],
      "name": "setMappyTreasury",
      "outputs": [],
      "stateMutability": "nonpayable",
      "type": "function"
    },
    {
      "inputs": [
        {
          "internalType": "bool",
          "name": "bEnable",
          "type": "bool"
        }
      ],
      "name": "setOnlyHumanFlag",
      "outputs": [],
      "stateMutability": "nonpayable",
      "type": "function"
    },
    {
      "inputs": [
        {
          "internalType": "address",
          "name": "_user",
          "type": "address"
        }
      ],
      "name": "pendingReward",
      "outputs": [
        {
          "internalType": "uint256",
          "name": "",
          "type": "uint256"
        }
      ],
      "stateMutability": "nonpayable",
      "type": "function"
    },
    {
      "inputs": [
        {
          "internalType": "uint256",
          "name": "_amount",
          "type": "uint256"
        }
      ],
      "name": "deposit",
      "outputs": [],
      "stateMutability": "nonpayable",
      "type": "function"
    },
    {
      "inputs": [
        {
          "internalType": "uint256",
          "name": "_amount",
          "type": "uint256"
        }
      ],
      "name": "withdraw",
      "outputs": [
        {
          "internalType": "uint256",
          "name": "_userPendingReward",
          "type": "uint256"
        }
      ],
      "stateMutability": "nonpayable",
      "type": "function"
    },
    {
      "inputs": [],
      "name": "emergencyWithdraw",
      "outputs": [],
      "stateMutability": "nonpayable",
      "type": "function"
    }
  ],
  "bytecode": "0x60806040523480156200001157600080fd5b50604051620012ba380380620012ba833981016040819052620000349162000175565b6200003f336200007e565b600280546001600160a01b039384166001600160a01b031991821617909155600180549290931691161781556008805460ff19169091179055620001e9565b60006200008a62000108565b600080546001810182558180527f290decd9548b62a8d60345a988386fc84ba6bc95484008f6362f93160ef3e5630180546001600160a01b0319166001600160a01b0386811691821790925560405193945092908416917f8be0079c531659141344cd1fd0a4f28419497f9722a3daafe3b4186f6b6457e091a35050565b6000805480156200015057600062000122600183620001ad565b81548110620001355762000135620001d3565b6000918252602090912001546001600160a01b031692915050565b600091505090565b80516001600160a01b03811681146200017057600080fd5b919050565b600080604083850312156200018957600080fd5b620001948362000158565b9150620001a46020840162000158565b90509250929050565b600082821015620001ce57634e487b7160e01b600052601160045260246000fd5b500390565b634e487b7160e01b600052603260045260246000fd5b6110c180620001f96000396000f3fe608060405234801561001057600080fd5b50600436106100cf5760003560e01c8063b6b55f251161008c578063db2e21bc11610066578063db2e21bc146101bf578063e82eac9a146101c7578063f2fde38b146101da578063f40f0f52146101ed57600080fd5b8063b6b55f2514610186578063bcb1254414610199578063bdca75fe146101ac57600080fd5b80630f61c669146100d45780631959a002146101045780632e1a7d4d14610140578063715018a61461016157806377b425b41461016b5780638da5cb5b1461017e575b600080fd5b6004546100e7906001600160a01b031681565b6040516001600160a01b0390911681526020015b60405180910390f35b61012b610112366004610e27565b6003602052600090815260409020805460019091015482565b604080519283526020830191909152016100fb565b61015361014e366004610e44565b610200565b6040519081526020016100fb565b610169610365565b005b6001546100e7906001600160a01b031681565b6100e761039a565b610169610194366004610e44565b6103e4565b6101696101a7366004610e6b565b610518565b6101696101ba366004610e27565b610554565b61016961059f565b6002546100e7906001600160a01b031681565b6101696101e8366004610e27565b61065d565b6101536101fb366004610e27565b6106b8565b60085460009060ff1615610236573332146102365760405162461bcd60e51b815260040161022d90610e88565b60405180910390fd5b336000908152600360205260409020805483111561028b5760405162461bcd60e51b81526020600482015260126024820152711dda5d1a191c985dce881b9bdd0819dbdbd960721b604482015260640161022d565b61029361071e565b61029c8161089e565b915081156102ae576102ae33836108e0565b821561030e5760075481546102c390856109e8565b82556102cf81856109e8565b6007556102f2816102ec6102e382886109e8565b600654906109f4565b90610a00565b60065560015461030c906001600160a01b03163386610a0c565b505b600754815460065461032592916102ec91906109f4565b600182015560405183815233907f884edad9ce6fa2440d8a54cc123490eb96d2768479d49ff9c7366125a94243649060200160405180910390a250919050565b61036d610a74565b151560011461038e5760405162461bcd60e51b815260040161022d90610ea8565b6103986000610af6565b565b6000805480156103dc5760006103b1600183610ef3565b815481106103c1576103c1610f0a565b6000918252602090912001546001600160a01b031692915050565b600091505090565b60085460ff161561040e5733321461040e5760405162461bcd60e51b815260040161022d90610e88565b33321461042d5760405162461bcd60e51b815260040161022d90610e88565b33600090815260036020526040902061044461071e565b80541561046a5760006104568261089e565b905080156104685761046833826108e0565b505b81156104c357600154610488906001600160a01b0316333085610b7e565b6007546104958184610bbc565b60075580156104b3576104af816102ec6102e38287610bbc565b6006555b81546104bf9084610bbc565b8255505b60075481546006546104da92916102ec91906109f4565b600182015560405182815233907fe1fffcc4923d04b559f4d29a8bfc6cda04eb5b0d3c460751c2402c5c5cc9109c9060200160405180910390a25050565b610520610a74565b15156001146105415760405162461bcd60e51b815260040161022d90610ea8565b6008805460ff1916911515919091179055565b61055c610a74565b151560011461057d5760405162461bcd60e51b815260040161022d90610ea8565b600480546001600160a01b0319166001600160a01b0392909216919091179055565b60085460ff16156105c9573332146105c95760405162461bcd60e51b815260040161022d90610e88565b336000908152600360205260408120805482825560018201929092556007549091906105f581836109e8565b600755610609816102ec6102e382866109e8565b600655600154610623906001600160a01b03163384610a0c565b60405182815233907f5fafa99d0643513820be26656b45130b01e1c03062e1266bf36f88cbd3bd96959060200160405180910390a2505050565b610665610a74565b15156001146106865760405162461bcd60e51b815260040161022d90610ea8565b6001600160a01b0381166106ac5760405162461bcd60e51b815260040161022d90610f20565b6106b581610af6565b50565b60006106c261071e565b6001600160a01b03821660009081526003602052604090206007546106ea5750600092915050565b61071781600101546107116007546102ec85600001546006546109f490919063ffffffff16565b906109e8565b9392505050565b6004805460405163ea4c7f9160e01b815230928101929092526001600160a01b03169063ea4c7f91906024016020604051808303816000875af1158015610769573d6000803e3d6000fd5b505050506040513d601f19601f8201168201806040525081019061078d9190610f66565b156108035760048054604051639da37e5760e01b815230928101929092526001600160a01b031690639da37e57906024016020604051808303816000875af11580156107dd573d6000803e3d6000fd5b505050506040513d601f19601f820116820180604052508101906108019190610f83565b505b6002546040516370a0823160e01b81523060048201526000916001600160a01b0316906370a0823190602401602060405180830381865afa15801561084c573d6000803e3d6000fd5b505050506040513d601f19601f820116820180604052508101906108709190610f83565b90506005548111156106b5576108966005548261088d9190610ef3565b60065490610bbc565b600655600555565b6000600754600014156108b357506000919050565b6108da82600101546107116007546102ec86600001546006546109f490919063ffffffff16565b92915050565b6002546040516370a0823160e01b81523060048201526000916001600160a01b0316906370a0823190602401602060405180830381865afa158015610929573d6000803e3d6000fd5b505050506040513d601f19601f8201168201806040525081019061094d9190610f83565b90508082111561095b578091505b60025460405163a9059cbb60e01b81526001600160a01b038581166004830152602482018590529091169063a9059cbb906044016020604051808303816000875af11580156109ae573d6000803e3d6000fd5b505050506040513d601f19601f820116820180604052508101906109d29190610f66565b506005546109e090836109e8565b600555505050565b60006107178284610ef3565b60006107178284610f9c565b60006107178284610fbb565b6040516001600160a01b038316602482015260448101829052610a6f90849063a9059cbb60e01b906064015b60408051601f198184030181529190526020810180516001600160e01b03166001600160e01b031990931692909217909152610bc8565b505050565b600033610a935760405162461bcd60e51b815260040161022d90610f20565b6000805b600054811015610af057336001600160a01b031660008281548110610abe57610abe610f0a565b6000918252602090912001546001600160a01b03161415610ade57600191505b80610ae881610fdd565b915050610a97565b50919050565b6000610b0061039a565b600080546001810182558180527f290decd9548b62a8d60345a988386fc84ba6bc95484008f6362f93160ef3e5630180546001600160a01b0319166001600160a01b0386811691821790925560405193945092908416917f8be0079c531659141344cd1fd0a4f28419497f9722a3daafe3b4186f6b6457e091a35050565b6040516001600160a01b0380851660248301528316604482015260648101829052610bb69085906323b872dd60e01b90608401610a38565b50505050565b60006107178284610ff8565b6000610c1d826040518060400160405280602081526020017f5361666545524332303a206c6f772d6c6576656c2063616c6c206661696c6564815250856001600160a01b0316610c9a9092919063ffffffff16565b805190915015610a6f5780806020019051810190610c3b9190610f66565b610a6f5760405162461bcd60e51b815260206004820152602a60248201527f5361666545524332303a204552433230206f7065726174696f6e20646964206e6044820152691bdd081cdd58d8d9595960b21b606482015260840161022d565b6060610ca98484600085610cb1565b949350505050565b606082471015610d125760405162461bcd60e51b815260206004820152602660248201527f416464726573733a20696e73756666696369656e742062616c616e636520666f6044820152651c8818d85b1b60d21b606482015260840161022d565b843b610d605760405162461bcd60e51b815260206004820152601d60248201527f416464726573733a2063616c6c20746f206e6f6e2d636f6e7472616374000000604482015260640161022d565b600080866001600160a01b03168587604051610d7c919061103c565b60006040518083038185875af1925050503d8060008114610db9576040519150601f19603f3d011682016040523d82523d6000602084013e610dbe565b606091505b5091509150610dce828286610dd9565b979650505050505050565b60608315610de8575081610717565b825115610df85782518084602001fd5b8160405162461bcd60e51b815260040161022d9190611058565b6001600160a01b03811681146106b557600080fd5b600060208284031215610e3957600080fd5b813561071781610e12565b600060208284031215610e5657600080fd5b5035919050565b80151581146106b557600080fd5b600060208284031215610e7d57600080fd5b813561071781610e5d565b60208082526006908201526510b43ab6b0b760d11b604082015260600190565b6020808252818101527f4f776e61626c653a2063616c6c6572206973206e6f7420746865206f776e6572604082015260600190565b634e487b7160e01b600052601160045260246000fd5b600082821015610f0557610f05610edd565b500390565b634e487b7160e01b600052603260045260246000fd5b60208082526026908201527f4f776e61626c653a206e6577206f776e657220697320746865207a65726f206160408201526564647265737360d01b606082015260800190565b600060208284031215610f7857600080fd5b815161071781610e5d565b600060208284031215610f9557600080fd5b5051919050565b6000816000190483118215151615610fb657610fb6610edd565b500290565b600082610fd857634e487b7160e01b600052601260045260246000fd5b500490565b6000600019821415610ff157610ff1610edd565b5060010190565b6000821982111561100b5761100b610edd565b500190565b60005b8381101561102b578181015183820152602001611013565b83811115610bb65750506000910152565b6000825161104e818460208701611010565b9190910192915050565b6020815260008251806020840152611077816040850160208701611010565b601f01601f1916919091016040019291505056fea26469706673582212201791bf149ce4d39c33712cbcd56ad94cd3fc62826b96bb12645a7e273febc8b564736f6c634300080c0033",
  "immutableReferences": {},
  "source": "// SPDX-License-Identifier: MIT\r\n\r\npragma solidity ^0.8.10;\r\n\r\nimport \"@openzeppelin/contracts/token/ERC20/IERC20.sol\";\r\nimport \"@openzeppelin/contracts/token/ERC20/utils/SafeERC20.sol\";\r\nimport \"@openzeppelin/contracts/utils/math/SafeMath.sol\";\r\nimport \"@openzeppelin/contracts/access/Ownable.sol\";\r\n\r\nimport \"./interfaces/IMappyTreasury.sol\";\r\n\r\ncontract HFarmingPoolV2 is Ownable {\r\n    using SafeMath for uint256;\r\n    using SafeERC20 for IERC20;\r\n\r\n    // Info of each user.\r\n    struct UserInfo {\r\n        uint256 amount;\r\n        uint256 rewardDebt;\r\n    }\r\n\r\n    IERC20 public mappyDepositAsset;\r\n    IERC20 public mappyRewardAsset;\r\n    \r\n    mapping (address => UserInfo) public userInfo;\r\n\r\n    IMappyTreasury public mappyTreasury;\r\n\r\n    uint256 totalAddedRewards;\r\n    uint256 totalVirtualRewards;\r\n    uint256 totalDeposit;\r\n    bool bOnlyHuman;\r\n\r\n    event Deposit(address indexed user, uint256 amount);\r\n    event Withdraw(address indexed user, uint256 amount);\r\n    event EmergencyWithdraw(address indexed user, uint256 amount);\r\n\r\n    constructor(\r\n        IERC20 _mappyRewardAsset,\r\n        IERC20 _mappyDepositAsset\r\n    ) public {\r\n        mappyRewardAsset = _mappyRewardAsset;\r\n        mappyDepositAsset = _mappyDepositAsset;\r\n        bOnlyHuman = true;\r\n    }\r\n\r\n    modifier onlyHuman() {\r\n        if (bOnlyHuman) require(msg.sender == tx.origin, \"!human\");\r\n        _;\r\n    }\r\n\r\n    // XXX: set mappyRewardAssetReservoir. Can only be called by the owner.\r\n    function setMappyTreasury(IMappyTreasury _mappyTreasury) public onlyOwner {\r\n        mappyTreasury = _mappyTreasury;\r\n    }\r\n\r\n    function setOnlyHumanFlag(bool bEnable) onlyOwner public {\r\n        bOnlyHuman = bEnable;\r\n    }\r\n\r\n    // View function to see pending MAPPYs on frontend.\r\n    function pendingReward(address _user) external returns (uint256) {\r\n        checkTreasury();\r\n\r\n        UserInfo storage user = userInfo[_user];\r\n        if (totalDeposit == 0) return 0;\r\n        return totalVirtualRewards.mul(user.amount).div(totalDeposit).sub(user.rewardDebt);\r\n    }\r\n\r\n    // Deposit LP tokens to MappyFarmingPool for MAPPY allocation.\r\n    function deposit(uint256 _amount) onlyHuman public {\r\n        require(msg.sender == tx.origin, \"!human\");\r\n\r\n        UserInfo storage user = userInfo[msg.sender];\r\n\r\n        checkTreasury();\r\n \r\n        if (user.amount > 0) {\r\n            uint256 pending = rawPendingMappy(user);\r\n            if(pending > 0) {\r\n                safeMappyTransfer(msg.sender, pending);\r\n            }\r\n        }\r\n        if(_amount > 0) {\r\n            mappyDepositAsset.safeTransferFrom(address(msg.sender), address(this), _amount);\r\n            uint256 _old_totalDeposit = totalDeposit; \r\n            totalDeposit = _old_totalDeposit.add(_amount);\r\n            if (_old_totalDeposit > 0) {\r\n                totalVirtualRewards = totalVirtualRewards.mul(_old_totalDeposit.add(_amount)).div(_old_totalDeposit); // TODO: check calculations\r\n            }\r\n            user.amount = user.amount.add(_amount);\r\n        }\r\n        user.rewardDebt = totalVirtualRewards.mul(user.amount).div(totalDeposit);\r\n        emit Deposit(msg.sender, _amount);\r\n    }\r\n\r\n    // Withdraw LP tokens from MappyFarmingPool.\r\n    function withdraw(uint256 _amount) onlyHuman public returns(uint256 _userPendingReward) {\r\n        UserInfo storage user = userInfo[msg.sender];\r\n        require(user.amount >= _amount, \"withdraw: not good\");\r\n\r\n        checkTreasury();\r\n\r\n        _userPendingReward = rawPendingMappy(user);\r\n        if(_userPendingReward > 0) {\r\n            safeMappyTransfer(msg.sender, _userPendingReward);\r\n        }\r\n\r\n        if(_amount > 0) {\r\n            uint256 _old_totalDeposit = totalDeposit;\r\n            user.amount = user.amount.sub(_amount);\r\n            totalDeposit = _old_totalDeposit.sub(_amount);\r\n\r\n            totalVirtualRewards = totalVirtualRewards.mul(_old_totalDeposit.sub(_amount)).div(_old_totalDeposit); // TODO: check calculations\r\n\r\n            mappyDepositAsset.safeTransfer(address(msg.sender), _amount);\r\n        }\r\n\r\n        user.rewardDebt = totalVirtualRewards.mul(user.amount).div(totalDeposit);\r\n        emit Withdraw(msg.sender, _amount);\r\n    }\r\n\r\n    // Withdraw without caring about rewards. EMERGENCY ONLY.\r\n    function emergencyWithdraw() onlyHuman public {\r\n        UserInfo storage user = userInfo[msg.sender];\r\n        uint256 amount = user.amount;\r\n        user.amount = 0;\r\n        user.rewardDebt = 0;\r\n        uint256 _old_totalDeposit = totalDeposit;\r\n        totalDeposit = _old_totalDeposit.sub(amount);\r\n        totalVirtualRewards = totalVirtualRewards.mul(_old_totalDeposit.sub(amount)).div(_old_totalDeposit); // TODO: check calculations\r\n        mappyDepositAsset.safeTransfer(address(msg.sender), amount);\r\n        emit EmergencyWithdraw(msg.sender, amount);\r\n    }\r\n\r\n    // Safe mappyRewardAsset transfer function, just in case if rounding error causes pool to not have enough MAPPYs.\r\n    function safeMappyTransfer(address _to, uint256 _amount) internal {\r\n        uint256 mappyRewardAssetBal = mappyRewardAsset.balanceOf(address(this));\r\n        if (_amount > mappyRewardAssetBal) _amount = mappyRewardAssetBal;\r\n\r\n        mappyRewardAsset.transfer(_to, _amount);\r\n        totalAddedRewards = totalAddedRewards.sub(_amount);\r\n    }\r\n\r\n    function checkTreasury() internal {\r\n        if (mappyTreasury.isAllowedGathering(address(this))) {\r\n            mappyTreasury.gather(address(this));\r\n        }\r\n\r\n        uint256 bal = mappyRewardAsset.balanceOf(address(this));\r\n        if (bal > totalAddedRewards) {\r\n            totalVirtualRewards = totalVirtualRewards.add(bal - totalAddedRewards);\r\n            totalAddedRewards = bal;\r\n        }\r\n    }\r\n\r\n    function rawPendingMappy(UserInfo storage user) internal view returns (uint256) {\r\n        if (totalDeposit == 0) return 0;\r\n        return totalVirtualRewards.mul(user.amount).div(totalDeposit).sub(user.rewardDebt);\r\n    }\r\n}",
  "sourcePath": "F:\\Cory_Career\\Stan_M\\mappycoin-dashboard\\contracts\\MappyFarm\\MappyFarmingPoolV2.sol",
  "compiler": {
    "name": "solc",
    "version": "0.8.12+commit.f00d7308.Emscripten.clang"
  },
  "schemaVersion": "3.4.3",
  "updatedAt": "2022-02-24T00:21:02.620Z",
  "devdoc": {
    "kind": "dev",
    "methods": {
      "owner()": {
        "details": "Returns the address of the current owner."
      },
      "renounceOwnership()": {
        "details": "Leaves the contract without owner. It will not be possible to call `onlyOwner` functions anymore. Can only be called by the current owner. NOTE: Renouncing ownership will leave the contract without an owner, thereby removing any functionality that is only available to the owner."
      },
      "transferOwnership(address)": {
        "details": "Transfers ownership of the contract to a new account (`newOwner`). Can only be called by the current owner."
      }
    },
    "version": 1
  },
  "userdoc": {
    "kind": "user",
    "methods": {},
    "version": 1
  }
}