{
  "contractName": "MappyTreasury",
  "abi": [
    {
      "inputs": [
        {
          "internalType": "contract IMappyToken",
          "name": "_mappy",
          "type": "address"
        }
      ],
      "stateMutability": "nonpayable",
      "type": "constructor"
    },
    {
      "anonymous": false,
      "inputs": [
        {
          "indexed": true,
          "internalType": "address",
          "name": "previousOwner",
          "type": "address"
        },
        {
          "indexed": true,
          "internalType": "address",
          "name": "newOwner",
          "type": "address"
        }
      ],
      "name": "OwnershipTransferred",
      "type": "event"
    },
    {
      "inputs": [],
      "name": "insuranceFund",
      "outputs": [
        {
          "internalType": "address",
          "name": "",
          "type": "address"
        }
      ],
      "stateMutability": "view",
      "type": "function"
    },
    {
      "inputs": [],
      "name": "mappy",
      "outputs": [
        {
          "internalType": "contract IMappyToken",
          "name": "",
          "type": "address"
        }
      ],
      "stateMutability": "view",
      "type": "function"
    },
    {
      "inputs": [],
      "name": "mappyStakingManager",
      "outputs": [
        {
          "internalType": "address",
          "name": "",
          "type": "address"
        }
      ],
      "stateMutability": "view",
      "type": "function"
    },
    {
      "inputs": [],
      "name": "maxMintAmount",
      "outputs": [
        {
          "internalType": "uint256",
          "name": "",
          "type": "uint256"
        }
      ],
      "stateMutability": "view",
      "type": "function"
    },
    {
      "inputs": [],
      "name": "owner",
      "outputs": [
        {
          "internalType": "address",
          "name": "",
          "type": "address"
        }
      ],
      "stateMutability": "view",
      "type": "function"
    },
    {
      "inputs": [],
      "name": "renounceOwnership",
      "outputs": [],
      "stateMutability": "nonpayable",
      "type": "function"
    },
    {
      "inputs": [
        {
          "internalType": "address",
          "name": "newOwner",
          "type": "address"
        }
      ],
      "name": "transferOwnership",
      "outputs": [],
      "stateMutability": "nonpayable",
      "type": "function"
    },
    {
      "inputs": [],
      "name": "myBalance",
      "outputs": [
        {
          "internalType": "uint256",
          "name": "",
          "type": "uint256"
        }
      ],
      "stateMutability": "view",
      "type": "function"
    },
    {
      "inputs": [
        {
          "internalType": "address",
          "name": "recipient",
          "type": "address"
        },
        {
          "internalType": "uint256",
          "name": "amount",
          "type": "uint256"
        }
      ],
      "name": "mint",
      "outputs": [],
      "stateMutability": "nonpayable",
      "type": "function"
    },
    {
      "inputs": [
        {
          "internalType": "uint256",
          "name": "amount",
          "type": "uint256"
        }
      ],
      "name": "burn",
      "outputs": [],
      "stateMutability": "nonpayable",
      "type": "function"
    },
    {
      "inputs": [
        {
          "internalType": "address",
          "name": "_newAddress",
          "type": "address"
        }
      ],
      "name": "setMappyStakingManager",
      "outputs": [],
      "stateMutability": "nonpayable",
      "type": "function"
    },
    {
      "inputs": [
        {
          "internalType": "address",
          "name": "_newAddress",
          "type": "address"
        }
      ],
      "name": "setInsuranceFund",
      "outputs": [],
      "stateMutability": "nonpayable",
      "type": "function"
    },
    {
      "inputs": [
        {
          "internalType": "contract IMappyToken",
          "name": "_newMappy",
          "type": "address"
        }
      ],
      "name": "setMappy",
      "outputs": [],
      "stateMutability": "nonpayable",
      "type": "function"
    },
    {
      "inputs": [
        {
          "internalType": "uint256",
          "name": "amount",
          "type": "uint256"
        }
      ],
      "name": "setMaxMintAmount",
      "outputs": [],
      "stateMutability": "nonpayable",
      "type": "function"
    }
  ],
  "bytecode": "0x608060405269d3c21bcecceda100000060045534801561001e57600080fd5b50604051610c08380380610c0883398101604081905261003d9161013d565b6100463361006b565b600380546001600160a01b0319166001600160a01b03929092169190911790556101a8565b60006100756100f3565b600080546001810182558180527f290decd9548b62a8d60345a988386fc84ba6bc95484008f6362f93160ef3e5630180546001600160a01b0319166001600160a01b0386811691821790925560405193945092908416917f8be0079c531659141344cd1fd0a4f28419497f9722a3daafe3b4186f6b6457e091a35050565b60008054801561013557600061010a60018361016d565b8154811061011a5761011a610192565b6000918252602090912001546001600160a01b031692915050565b600091505090565b60006020828403121561014f57600080fd5b81516001600160a01b038116811461016657600080fd5b9392505050565b60008282101561018d57634e487b7160e01b600052601160045260246000fd5b500390565b634e487b7160e01b600052603260045260246000fd5b610a51806101b76000396000f3fe608060405234801561001057600080fd5b50600436106100ea5760003560e01c80638da5cb5b1161008c578063c3c0529311610066578063c3c05293146101ba578063c9116b69146101cd578063e596e8a8146101d5578063f2fde38b146101e857600080fd5b80638da5cb5b1461018c578063ac36555514610194578063b7902303146101a757600080fd5b806340c10f19116100c857806340c10f191461013357806342966c681461014657806353dfaac714610159578063715018a61461018457600080fd5b8063088a4ed0146100ef578063239c70ae146101045780633679804114610120575b600080fd5b6101026100fd366004610852565b6101fb565b005b61010d60045481565b6040519081526020015b60405180910390f35b61010261012e366004610880565b610232565b6101026101413660046108a4565b61027d565b610102610154366004610852565b6103df565b60015461016c906001600160a01b031681565b6040516001600160a01b039091168152602001610117565b610102610469565b61016c61049e565b6101026101a2366004610880565b6104e8565b60025461016c906001600160a01b031681565b6101026101c8366004610880565b610533565b61010d61057e565b60035461016c906001600160a01b031681565b6101026101f6366004610880565b6105f0565b61020361064b565b151560011461022d5760405162461bcd60e51b8152600401610224906108d0565b60405180910390fd5b600455565b61023a61064b565b151560011461025b5760405162461bcd60e51b8152600401610224906108d0565b600380546001600160a01b0319166001600160a01b0392909216919091179055565b6001546001600160a01b03163314806102a057506002546001600160a01b031633145b6102ec5760405162461bcd60e51b815260206004820152601f60248201527f4d415050595f74726561737572793a204e6f7420617574686f72697a65642e006044820152606401610224565b806102f561057e565b1015610375576003546001600160a01b03166340c10f1930610316846106cd565b6040516001600160e01b031960e085901b1681526001600160a01b0390921660048301526024820152604401600060405180830381600087803b15801561035c57600080fd5b505af1158015610370573d6000803e3d6000fd5b505050505b60035460405163f0c3443d60e01b81526001600160a01b038481166004830152602482018490529091169063f0c3443d90604401600060405180830381600087803b1580156103c357600080fd5b505af11580156103d7573d6000803e3d6000fd5b505050505050565b6103e761064b565b15156001146104085760405162461bcd60e51b8152600401610224906108d0565b600354604051630852cd8d60e31b8152600481018390526001600160a01b03909116906342966c6890602401600060405180830381600087803b15801561044e57600080fd5b505af1158015610462573d6000803e3d6000fd5b5050505050565b61047161064b565b15156001146104925760405162461bcd60e51b8152600401610224906108d0565b61049c60006107ca565b565b6000805480156104e05760006104b560018361091b565b815481106104c5576104c5610932565b6000918252602090912001546001600160a01b031692915050565b600091505090565b6104f061064b565b15156001146105115760405162461bcd60e51b8152600401610224906108d0565b600180546001600160a01b0319166001600160a01b0392909216919091179055565b61053b61064b565b151560011461055c5760405162461bcd60e51b8152600401610224906108d0565b600280546001600160a01b0319166001600160a01b0392909216919091179055565b6003546040516370a0823160e01b81523060048201526000916001600160a01b0316906370a0823190602401602060405180830381865afa1580156105c7573d6000803e3d6000fd5b505050506040513d601f19601f820116820180604052508101906105eb9190610948565b905090565b6105f861064b565b15156001146106195760405162461bcd60e51b8152600401610224906108d0565b6001600160a01b03811661063f5760405162461bcd60e51b815260040161022490610961565b610648816107ca565b50565b60003361066a5760405162461bcd60e51b815260040161022490610961565b6000805b6000548110156106c757336001600160a01b03166000828154811061069557610695610932565b6000918252602090912001546001600160a01b031614156106b557600191505b806106bf816109a7565b91505061066e565b50919050565b600080600360009054906101000a90046001600160a01b03166001600160a01b031663400d68446040518163ffffffff1660e01b8152600401602060405180830381865afa158015610723573d6000803e3d6000fd5b505050506040513d601f19601f820116820180604052508101906107479190610948565b905061075381846109c2565b61075e9060016109e4565b61076890826109fc565b915060045482106106c75760405162461bcd60e51b815260206004820152602660248201527f4d415050595f74726561737572793a204d6178696d756d20616d6f756e7420656044820152653c31b2b2b21760d11b6064820152608401610224565b60006107d461049e565b600080546001810182558180527f290decd9548b62a8d60345a988386fc84ba6bc95484008f6362f93160ef3e5630180546001600160a01b0319166001600160a01b0386811691821790925560405193945092908416917f8be0079c531659141344cd1fd0a4f28419497f9722a3daafe3b4186f6b6457e091a35050565b60006020828403121561086457600080fd5b5035919050565b6001600160a01b038116811461064857600080fd5b60006020828403121561089257600080fd5b813561089d8161086b565b9392505050565b600080604083850312156108b757600080fd5b82356108c28161086b565b946020939093013593505050565b6020808252818101527f4f776e61626c653a2063616c6c6572206973206e6f7420746865206f776e6572604082015260600190565b634e487b7160e01b600052601160045260246000fd5b60008282101561092d5761092d610905565b500390565b634e487b7160e01b600052603260045260246000fd5b60006020828403121561095a57600080fd5b5051919050565b60208082526026908201527f4f776e61626c653a206e6577206f776e657220697320746865207a65726f206160408201526564647265737360d01b606082015260800190565b60006000198214156109bb576109bb610905565b5060010190565b6000826109df57634e487b7160e01b600052601260045260246000fd5b500490565b600082198211156109f7576109f7610905565b500190565b6000816000190483118215151615610a1657610a16610905565b50029056fea2646970667358221220d86293534539c962bf4dee6abf4479362079c08ce366b687de35bdfb0efeab6064736f6c634300080c0033",
  "immutableReferences": {},
  "source": "// SPDX-License-Identifier: MIT\r\n\r\npragma solidity ^0.8.11;\r\n\r\n/**\r\n *                     \r\n *         \r\n *                \r\n *                   \r\n *                          \r\n *                                 \r\n *\r\n */\r\n\r\nimport \"@openzeppelin/contracts/access/Ownable.sol\";\r\nimport \"./interfaces/IMappyToken.sol\";\r\n\r\ncontract MappyTreasury is Ownable {\r\n\r\n    address public mappyStakingManager;\r\n    address public insuranceFund;\r\n    IMappyToken public mappy;\r\n\r\n    uint256 public maxMintAmount = 10*100000*10**18;\r\n\r\n    modifier onlyCounterParty {\r\n        require(mappyStakingManager == msg.sender || insuranceFund == msg.sender, \"MAPPY_treasury: Not authorized.\");\r\n        _;\r\n    }\r\n\r\n    constructor (IMappyToken _mappy) {\r\n        mappy = _mappy;\r\n    }\r\n\r\n    function myBalance() public view returns (uint256) {\r\n        return mappy.balanceOf(address(this));\r\n    }\r\n\r\n    function mint(address recipient, uint256 amount) public onlyCounterParty {\r\n        if(myBalance() < amount){\r\n            mappy.mint(address(this), calulateMintAmount(amount));\r\n        }\r\n\r\n        mappy.treasuryTransfer(recipient, amount);\r\n    }\r\n\r\n    function burn(uint256 amount) public onlyOwner {\r\n        mappy.burn(amount);\r\n    }\r\n\r\n    function setMappyStakingManager(address _newAddress) public onlyOwner {\r\n        mappyStakingManager = _newAddress;\r\n    }\r\n\r\n    function setInsuranceFund(address _newAddress) public onlyOwner {\r\n        insuranceFund = _newAddress;\r\n    }\r\n\r\n    function setMappy(IMappyToken _newMappy) public onlyOwner {\r\n        mappy = _newMappy;\r\n    }\r\n\r\n    function setMaxMintAmount(uint256 amount) public onlyOwner {\r\n        maxMintAmount = amount;\r\n    }\r\n\r\n    function calulateMintAmount(uint256 amount) private view returns (uint256 amountToMint) {\r\n        uint256 baseAmount = mappy.BASE_MINT();\r\n\r\n        amountToMint = baseAmount * (amount / baseAmount + 1);\r\n        require(amountToMint < maxMintAmount, \"MAPPY_treasury: Maximum amount exceed.\");\r\n    }\r\n\r\n}",
  "sourcePath": "F:\\Cory_Career\\Stan_M\\mappycoin-dashboard\\contracts\\MappyToken_ERC20\\MappyTreasury.sol",
  "compiler": {
    "name": "solc",
    "version": "0.8.12+commit.f00d7308.Emscripten.clang"
  },
  "schemaVersion": "3.4.3",
  "updatedAt": "2022-02-24T00:21:02.823Z",
  "devdoc": {
    "kind": "dev",
    "methods": {
      "owner()": {
        "details": "Returns the address of the current owner."
      },
      "renounceOwnership()": {
        "details": "Leaves the contract without owner. It will not be possible to call `onlyOwner` functions anymore. Can only be called by the current owner. NOTE: Renouncing ownership will leave the contract without an owner, thereby removing any functionality that is only available to the owner."
      },
      "transferOwnership(address)": {
        "details": "Transfers ownership of the contract to a new account (`newOwner`). Can only be called by the current owner."
      }
    },
    "version": 1
  },
  "userdoc": {
    "kind": "user",
    "methods": {},
    "version": 1
  }
}