{
  "contractName": "Mappy",
  "abi": [
    {
      "inputs": [],
      "stateMutability": "nonpayable",
      "type": "constructor"
    },
    {
      "anonymous": false,
      "inputs": [
        {
          "indexed": true,
          "internalType": "address",
          "name": "owner",
          "type": "address"
        },
        {
          "indexed": true,
          "internalType": "address",
          "name": "spender",
          "type": "address"
        },
        {
          "indexed": false,
          "internalType": "uint256",
          "name": "value",
          "type": "uint256"
        }
      ],
      "name": "Approval",
      "type": "event"
    },
    {
      "anonymous": false,
      "inputs": [
        {
          "indexed": true,
          "internalType": "address",
          "name": "previousKeeper",
          "type": "address"
        },
        {
          "indexed": true,
          "internalType": "address",
          "name": "newKeeper",
          "type": "address"
        }
      ],
      "name": "BotKeeperChanged",
      "type": "event"
    },
    {
      "anonymous": false,
      "inputs": [
        {
          "indexed": true,
          "internalType": "address",
          "name": "sender",
          "type": "address"
        },
        {
          "indexed": true,
          "internalType": "uint256",
          "name": "amount",
          "type": "uint256"
        }
      ],
      "name": "Deliver",
      "type": "event"
    },
    {
      "anonymous": false,
      "inputs": [
        {
          "indexed": true,
          "internalType": "uint256",
          "name": "previousAmount",
          "type": "uint256"
        },
        {
          "indexed": true,
          "internalType": "uint256",
          "name": "newAmount",
          "type": "uint256"
        }
      ],
      "name": "GenesisRewardChanged",
      "type": "event"
    },
    {
      "anonymous": false,
      "inputs": [
        {
          "indexed": true,
          "internalType": "address",
          "name": "previousOwner",
          "type": "address"
        },
        {
          "indexed": true,
          "internalType": "address",
          "name": "newOwner",
          "type": "address"
        }
      ],
      "name": "OwnershipTransferred",
      "type": "event"
    },
    {
      "anonymous": false,
      "inputs": [
        {
          "indexed": false,
          "internalType": "address",
          "name": "account",
          "type": "address"
        }
      ],
      "name": "Paused",
      "type": "event"
    },
    {
      "anonymous": false,
      "inputs": [
        {
          "indexed": false,
          "internalType": "uint256",
          "name": "tokensSwapped",
          "type": "uint256"
        },
        {
          "indexed": false,
          "internalType": "uint256",
          "name": "ethReceived",
          "type": "uint256"
        },
        {
          "indexed": false,
          "internalType": "uint256",
          "name": "tokensIntoLiqudity",
          "type": "uint256"
        }
      ],
      "name": "SwapAndLiquify",
      "type": "event"
    },
    {
      "anonymous": false,
      "inputs": [
        {
          "indexed": false,
          "internalType": "bool",
          "name": "enabled",
          "type": "bool"
        }
      ],
      "name": "SwapAndLiquifyEnabledUpdated",
      "type": "event"
    },
    {
      "anonymous": false,
      "inputs": [
        {
          "indexed": true,
          "internalType": "address",
          "name": "from",
          "type": "address"
        },
        {
          "indexed": true,
          "internalType": "address",
          "name": "to",
          "type": "address"
        },
        {
          "indexed": false,
          "internalType": "uint256",
          "name": "value",
          "type": "uint256"
        }
      ],
      "name": "Transfer",
      "type": "event"
    },
    {
      "anonymous": false,
      "inputs": [
        {
          "indexed": true,
          "internalType": "address",
          "name": "previusAAddress",
          "type": "address"
        },
        {
          "indexed": true,
          "internalType": "address",
          "name": "newAddress",
          "type": "address"
        }
      ],
      "name": "TreasuryContractChanged",
      "type": "event"
    },
    {
      "anonymous": false,
      "inputs": [
        {
          "indexed": false,
          "internalType": "address",
          "name": "account",
          "type": "address"
        }
      ],
      "name": "Unpaused",
      "type": "event"
    },
    {
      "inputs": [],
      "name": "BASE_MINT",
      "outputs": [
        {
          "internalType": "uint256",
          "name": "",
          "type": "uint256"
        }
      ],
      "stateMutability": "view",
      "type": "function"
    },
    {
      "inputs": [],
      "name": "DEAD",
      "outputs": [
        {
          "internalType": "address",
          "name": "",
          "type": "address"
        }
      ],
      "stateMutability": "view",
      "type": "function"
    },
    {
      "inputs": [],
      "name": "MAX_MINT",
      "outputs": [
        {
          "internalType": "uint256",
          "name": "",
          "type": "uint256"
        }
      ],
      "stateMutability": "view",
      "type": "function"
    },
    {
      "inputs": [],
      "name": "antiDumpEnabled",
      "outputs": [
        {
          "internalType": "bool",
          "name": "",
          "type": "bool"
        }
      ],
      "stateMutability": "view",
      "type": "function"
    },
    {
      "inputs": [],
      "name": "botKeeper",
      "outputs": [
        {
          "internalType": "address",
          "name": "",
          "type": "address"
        }
      ],
      "stateMutability": "view",
      "type": "function"
    },
    {
      "inputs": [],
      "name": "genesisReward",
      "outputs": [
        {
          "internalType": "uint256",
          "name": "",
          "type": "uint256"
        }
      ],
      "stateMutability": "view",
      "type": "function"
    },
    {
      "inputs": [],
      "name": "numTokensSellToAddToBuyback",
      "outputs": [
        {
          "internalType": "uint256",
          "name": "",
          "type": "uint256"
        }
      ],
      "stateMutability": "view",
      "type": "function"
    },
    {
      "inputs": [],
      "name": "owner",
      "outputs": [
        {
          "internalType": "address",
          "name": "",
          "type": "address"
        }
      ],
      "stateMutability": "view",
      "type": "function"
    },
    {
      "inputs": [],
      "name": "paused",
      "outputs": [
        {
          "internalType": "bool",
          "name": "",
          "type": "bool"
        }
      ],
      "stateMutability": "view",
      "type": "function"
    },
    {
      "inputs": [],
      "name": "pcsV2Pair",
      "outputs": [
        {
          "internalType": "address",
          "name": "",
          "type": "address"
        }
      ],
      "stateMutability": "view",
      "type": "function"
    },
    {
      "inputs": [],
      "name": "pcsV2Router",
      "outputs": [
        {
          "internalType": "contract IUniswapV2Router02",
          "name": "",
          "type": "address"
        }
      ],
      "stateMutability": "view",
      "type": "function"
    },
    {
      "inputs": [],
      "name": "renounceOwnership",
      "outputs": [],
      "stateMutability": "nonpayable",
      "type": "function"
    },
    {
      "inputs": [],
      "name": "swapAndLiquifyEnabled",
      "outputs": [
        {
          "internalType": "bool",
          "name": "",
          "type": "bool"
        }
      ],
      "stateMutability": "view",
      "type": "function"
    },
    {
      "inputs": [],
      "name": "tradingEnabled",
      "outputs": [
        {
          "internalType": "bool",
          "name": "",
          "type": "bool"
        }
      ],
      "stateMutability": "view",
      "type": "function"
    },
    {
      "inputs": [
        {
          "internalType": "address",
          "name": "newOwner",
          "type": "address"
        }
      ],
      "name": "transferOwnership",
      "outputs": [],
      "stateMutability": "nonpayable",
      "type": "function"
    },
    {
      "inputs": [],
      "name": "treasuryContract",
      "outputs": [
        {
          "internalType": "address",
          "name": "",
          "type": "address"
        }
      ],
      "stateMutability": "view",
      "type": "function"
    },
    {
      "stateMutability": "payable",
      "type": "receive"
    },
    {
      "inputs": [],
      "name": "name",
      "outputs": [
        {
          "internalType": "string",
          "name": "",
          "type": "string"
        }
      ],
      "stateMutability": "view",
      "type": "function"
    },
    {
      "inputs": [],
      "name": "symbol",
      "outputs": [
        {
          "internalType": "string",
          "name": "",
          "type": "string"
        }
      ],
      "stateMutability": "view",
      "type": "function"
    },
    {
      "inputs": [],
      "name": "decimals",
      "outputs": [
        {
          "internalType": "uint8",
          "name": "",
          "type": "uint8"
        }
      ],
      "stateMutability": "view",
      "type": "function"
    },
    {
      "inputs": [],
      "name": "totalSupply",
      "outputs": [
        {
          "internalType": "uint256",
          "name": "",
          "type": "uint256"
        }
      ],
      "stateMutability": "view",
      "type": "function"
    },
    {
      "inputs": [
        {
          "internalType": "address",
          "name": "account",
          "type": "address"
        }
      ],
      "name": "balanceOf",
      "outputs": [
        {
          "internalType": "uint256",
          "name": "",
          "type": "uint256"
        }
      ],
      "stateMutability": "view",
      "type": "function"
    },
    {
      "inputs": [
        {
          "internalType": "address",
          "name": "recipient",
          "type": "address"
        },
        {
          "internalType": "uint256",
          "name": "amount",
          "type": "uint256"
        }
      ],
      "name": "transfer",
      "outputs": [
        {
          "internalType": "bool",
          "name": "",
          "type": "bool"
        }
      ],
      "stateMutability": "nonpayable",
      "type": "function"
    },
    {
      "inputs": [
        {
          "internalType": "address",
          "name": "owner",
          "type": "address"
        },
        {
          "internalType": "address",
          "name": "spender",
          "type": "address"
        }
      ],
      "name": "allowance",
      "outputs": [
        {
          "internalType": "uint256",
          "name": "",
          "type": "uint256"
        }
      ],
      "stateMutability": "view",
      "type": "function"
    },
    {
      "inputs": [
        {
          "internalType": "address",
          "name": "spender",
          "type": "address"
        },
        {
          "internalType": "uint256",
          "name": "amount",
          "type": "uint256"
        }
      ],
      "name": "approve",
      "outputs": [
        {
          "internalType": "bool",
          "name": "",
          "type": "bool"
        }
      ],
      "stateMutability": "nonpayable",
      "type": "function"
    },
    {
      "inputs": [
        {
          "internalType": "address",
          "name": "sender",
          "type": "address"
        },
        {
          "internalType": "address",
          "name": "recipient",
          "type": "address"
        },
        {
          "internalType": "uint256",
          "name": "amount",
          "type": "uint256"
        }
      ],
      "name": "transferFrom",
      "outputs": [
        {
          "internalType": "bool",
          "name": "",
          "type": "bool"
        }
      ],
      "stateMutability": "nonpayable",
      "type": "function"
    },
    {
      "inputs": [
        {
          "internalType": "address",
          "name": "spender",
          "type": "address"
        },
        {
          "internalType": "uint256",
          "name": "addedValue",
          "type": "uint256"
        }
      ],
      "name": "increaseAllowance",
      "outputs": [
        {
          "internalType": "bool",
          "name": "",
          "type": "bool"
        }
      ],
      "stateMutability": "nonpayable",
      "type": "function"
    },
    {
      "inputs": [
        {
          "internalType": "address",
          "name": "spender",
          "type": "address"
        },
        {
          "internalType": "uint256",
          "name": "subtractedValue",
          "type": "uint256"
        }
      ],
      "name": "decreaseAllowance",
      "outputs": [
        {
          "internalType": "bool",
          "name": "",
          "type": "bool"
        }
      ],
      "stateMutability": "nonpayable",
      "type": "function"
    },
    {
      "inputs": [
        {
          "internalType": "address",
          "name": "account",
          "type": "address"
        }
      ],
      "name": "isGenesisAddress",
      "outputs": [
        {
          "internalType": "bool",
          "name": "",
          "type": "bool"
        }
      ],
      "stateMutability": "view",
      "type": "function"
    },
    {
      "inputs": [
        {
          "internalType": "address",
          "name": "account",
          "type": "address"
        }
      ],
      "name": "genesisBalance",
      "outputs": [
        {
          "internalType": "uint256",
          "name": "",
          "type": "uint256"
        }
      ],
      "stateMutability": "view",
      "type": "function"
    },
    {
      "inputs": [
        {
          "internalType": "address",
          "name": "account",
          "type": "address"
        }
      ],
      "name": "isExcludedFromReward",
      "outputs": [
        {
          "internalType": "bool",
          "name": "",
          "type": "bool"
        }
      ],
      "stateMutability": "view",
      "type": "function"
    },
    {
      "inputs": [
        {
          "internalType": "address",
          "name": "account",
          "type": "address"
        }
      ],
      "name": "isExcludedFromFee",
      "outputs": [
        {
          "internalType": "bool",
          "name": "",
          "type": "bool"
        }
      ],
      "stateMutability": "view",
      "type": "function"
    },
    {
      "inputs": [
        {
          "internalType": "address",
          "name": "account",
          "type": "address"
        }
      ],
      "name": "excludeFromFee",
      "outputs": [],
      "stateMutability": "nonpayable",
      "type": "function"
    },
    {
      "inputs": [
        {
          "internalType": "address",
          "name": "account",
          "type": "address"
        }
      ],
      "name": "includeInFee",
      "outputs": [],
      "stateMutability": "nonpayable",
      "type": "function"
    },
    {
      "inputs": [],
      "name": "totalFees",
      "outputs": [
        {
          "internalType": "uint256",
          "name": "",
          "type": "uint256"
        }
      ],
      "stateMutability": "view",
      "type": "function"
    },
    {
      "inputs": [
        {
          "internalType": "address",
          "name": "_receiver",
          "type": "address"
        },
        {
          "internalType": "uint256",
          "name": "amount",
          "type": "uint256"
        }
      ],
      "name": "mint",
      "outputs": [],
      "stateMutability": "nonpayable",
      "type": "function"
    },
    {
      "inputs": [
        {
          "internalType": "uint256",
          "name": "amount",
          "type": "uint256"
        }
      ],
      "name": "burn",
      "outputs": [],
      "stateMutability": "nonpayable",
      "type": "function"
    },
    {
      "inputs": [
        {
          "internalType": "address[]",
          "name": "_receivers",
          "type": "address[]"
        },
        {
          "internalType": "uint256",
          "name": "_value",
          "type": "uint256"
        }
      ],
      "name": "notifyGenesisAddresses",
      "outputs": [],
      "stateMutability": "nonpayable",
      "type": "function"
    },
    {
      "inputs": [
        {
          "internalType": "uint256",
          "name": "amount",
          "type": "uint256"
        }
      ],
      "name": "setGenesisReward",
      "outputs": [],
      "stateMutability": "nonpayable",
      "type": "function"
    },
    {
      "inputs": [
        {
          "internalType": "address",
          "name": "_newKeeper",
          "type": "address"
        }
      ],
      "name": "setBotKeeper",
      "outputs": [],
      "stateMutability": "nonpayable",
      "type": "function"
    },
    {
      "inputs": [
        {
          "internalType": "address",
          "name": "_newAddress",
          "type": "address"
        }
      ],
      "name": "setTreasuryAddress",
      "outputs": [],
      "stateMutability": "nonpayable",
      "type": "function"
    },
    {
      "inputs": [
        {
          "internalType": "bool",
          "name": "_isPaused",
          "type": "bool"
        }
      ],
      "name": "setTransferStatus",
      "outputs": [],
      "stateMutability": "nonpayable",
      "type": "function"
    },
    {
      "inputs": [
        {
          "internalType": "uint256",
          "name": "tAmount",
          "type": "uint256"
        }
      ],
      "name": "deliver",
      "outputs": [],
      "stateMutability": "nonpayable",
      "type": "function"
    },
    {
      "inputs": [
        {
          "internalType": "uint256",
          "name": "tAmount",
          "type": "uint256"
        },
        {
          "internalType": "bool",
          "name": "deductTransferFee",
          "type": "bool"
        }
      ],
      "name": "reflectionFromToken",
      "outputs": [
        {
          "internalType": "uint256",
          "name": "",
          "type": "uint256"
        }
      ],
      "stateMutability": "view",
      "type": "function"
    },
    {
      "inputs": [
        {
          "internalType": "uint256",
          "name": "rAmount",
          "type": "uint256"
        }
      ],
      "name": "tokenFromReflection",
      "outputs": [
        {
          "internalType": "uint256",
          "name": "",
          "type": "uint256"
        }
      ],
      "stateMutability": "view",
      "type": "function"
    },
    {
      "inputs": [
        {
          "internalType": "address",
          "name": "account",
          "type": "address"
        }
      ],
      "name": "excludeFromReward",
      "outputs": [],
      "stateMutability": "nonpayable",
      "type": "function"
    },
    {
      "inputs": [
        {
          "internalType": "address",
          "name": "account",
          "type": "address"
        }
      ],
      "name": "includeInReward",
      "outputs": [],
      "stateMutability": "nonpayable",
      "type": "function"
    },
    {
      "inputs": [
        {
          "internalType": "uint8",
          "name": "taxFee",
          "type": "uint8"
        },
        {
          "internalType": "uint8",
          "name": "buybackFee",
          "type": "uint8"
        }
      ],
      "name": "setAllFeePercent",
      "outputs": [],
      "stateMutability": "nonpayable",
      "type": "function"
    },
    {
      "inputs": [],
      "name": "buyBackUpperLimitAmount",
      "outputs": [
        {
          "internalType": "uint256",
          "name": "",
          "type": "uint256"
        }
      ],
      "stateMutability": "view",
      "type": "function"
    },
    {
      "inputs": [
        {
          "internalType": "uint256",
          "name": "buyBackLimit",
          "type": "uint256"
        }
      ],
      "name": "setBuybackUpperLimit",
      "outputs": [],
      "stateMutability": "nonpayable",
      "type": "function"
    },
    {
      "inputs": [
        {
          "internalType": "bool",
          "name": "_enabled",
          "type": "bool"
        }
      ],
      "name": "setSwapAndLiquifyEnabled",
      "outputs": [],
      "stateMutability": "nonpayable",
      "type": "function"
    },
    {
      "inputs": [
        {
          "internalType": "bool",
          "name": "enabled",
          "type": "bool"
        }
      ],
      "name": "setAntiDumpEnabled",
      "outputs": [],
      "stateMutability": "nonpayable",
      "type": "function"
    },
    {
      "inputs": [],
      "name": "getRate",
      "outputs": [
        {
          "internalType": "uint256",
          "name": "",
          "type": "uint256"
        }
      ],
      "stateMutability": "view",
      "type": "function"
    },
    {
      "inputs": [],
      "name": "getTaxFee",
      "outputs": [
        {
          "internalType": "uint256",
          "name": "",
          "type": "uint256"
        }
      ],
      "stateMutability": "view",
      "type": "function"
    },
    {
      "inputs": [],
      "name": "getBuybackFee",
      "outputs": [
        {
          "internalType": "uint256",
          "name": "",
          "type": "uint256"
        }
      ],
      "stateMutability": "view",
      "type": "function"
    },
    {
      "inputs": [],
      "name": "getCurrentRTSupply",
      "outputs": [
        {
          "internalType": "uint256",
          "name": "",
          "type": "uint256"
        },
        {
          "internalType": "uint256",
          "name": "",
          "type": "uint256"
        }
      ],
      "stateMutability": "view",
      "type": "function"
    },
    {
      "inputs": [
        {
          "internalType": "address",
          "name": "account",
          "type": "address"
        }
      ],
      "name": "isBlockedBot",
      "outputs": [
        {
          "internalType": "bool",
          "name": "",
          "type": "bool"
        }
      ],
      "stateMutability": "view",
      "type": "function"
    },
    {
      "inputs": [
        {
          "internalType": "address",
          "name": "account",
          "type": "address"
        }
      ],
      "name": "blockedBot",
      "outputs": [],
      "stateMutability": "nonpayable",
      "type": "function"
    },
    {
      "inputs": [
        {
          "internalType": "address",
          "name": "account",
          "type": "address"
        }
      ],
      "name": "freeAccount",
      "outputs": [],
      "stateMutability": "nonpayable",
      "type": "function"
    },
    {
      "inputs": [],
      "name": "startTrading",
      "outputs": [],
      "stateMutability": "nonpayable",
      "type": "function"
    },
    {
      "inputs": [
        {
          "internalType": "address",
          "name": "tokenAddress",
          "type": "address"
        },
        {
          "internalType": "uint256",
          "name": "tokenAmount",
          "type": "uint256"
        }
      ],
      "name": "recoverBEP20",
      "outputs": [],
      "stateMutability": "nonpayable",
      "type": "function"
    }
  ],
  "bytecode": "0x610100604052600960c08190526826b0b8383ca1b7b4b760b91b60e09081526200002d91600e919062000495565b50604080518082019091526005808252644d4150505960d81b60209092019182526200005c91600f9162000495565b5060108054601260ff1990911617905560138054600160c01b63ffffffff60a01b19821661ffff60b01b1960ff600160a01b60ff60a01b198616048116600160a81b0291821692909217600160b01b62ffffff60a01b1990951660ff60b01b1992909216919091179390930416600160b81b029190911761ffff60c01b19161790556015805461010061ff0019909116179055670de0b6b3a7640000601655600b5462000134906103e8906200012090600162000394602090811b62001f6217901c565b620003a960201b62001f6e1790919060201c565b6017553480156200014457600080fd5b506200015033620003b7565b6001805460ff191690556200017169152d02c7e14af6800000600a62000547565b6200017e90601b62000547565b600b81905562000191906000196200057f565b6200019f9060001962000596565b600c8190553360009081526002602090815260409182902092909255805163c45a015560e01b815290517310ed43c718714eb63d5aa57b78b54704e256024e92839263c45a015592600480830193928290030181865afa15801562000208573d6000803e3d6000fd5b505050506040513d601f19601f820116820180604052508101906200022e9190620005b0565b6001600160a01b031663c9c6539630836001600160a01b031663ad5c46486040518163ffffffff1660e01b8152600401602060405180830381865afa1580156200027c573d6000803e3d6000fd5b505050506040513d601f19601f82011682018060405250810190620002a29190620005b0565b6040516001600160e01b031960e085901b1681526001600160a01b039283166004820152911660248201526044016020604051808303816000875af1158015620002f0573d6000803e3d6000fd5b505050506040513d601f19601f82011682018060405250810190620003169190620005b0565b6001600160a01b0390811660a05281166080523360008181526006602090815260408083208054600160ff19918216811790925530855282852080549091169091179055600b5490519081527fddf252ad1be2c89b69c2b068fc378daa952ba7f163c4a11628f55a4df523b3ef910160405180910390a35062000645565b6000620003a2828462000547565b9392505050565b6000620003a28284620005db565b6000620003c362000441565b600080546001810182558180527f290decd9548b62a8d60345a988386fc84ba6bc95484008f6362f93160ef3e5630180546001600160a01b0319166001600160a01b0386811691821790925560405193945092908416917f8be0079c531659141344cd1fd0a4f28419497f9722a3daafe3b4186f6b6457e091a35050565b600080548015620004895760006200045b60018362000596565b815481106200046e576200046e620005f2565b6000918252602090912001546001600160a01b031692915050565b600091505090565b5090565b828054620004a39062000608565b90600052602060002090601f016020900481019282620004c7576000855562000512565b82601f10620004e257805160ff191683800117855562000512565b8280016001018555821562000512579182015b8281111562000512578251825591602001919060010190620004f5565b50620004919291505b808211156200049157600081556001016200051b565b634e487b7160e01b600052601160045260246000fd5b600081600019048311821515161562000564576200056462000531565b500290565b634e487b7160e01b600052601260045260246000fd5b60008262000591576200059162000569565b500690565b600082821015620005ab57620005ab62000531565b500390565b600060208284031215620005c357600080fd5b81516001600160a01b0381168114620003a257600080fd5b600082620005ed57620005ed62000569565b500490565b634e487b7160e01b600052603260045260246000fd5b600181811c908216806200061d57607f821691505b602082108114156200063f57634e487b7160e01b600052602260045260246000fd5b50919050565b60805160a051613c38620006a3600039600081816106f40152818161220b01526123a90152600081816104e90152818161224701528181612cb201528181612d6b01528181612da7015281816130aa01526131890152613c386000f3fe60806040526004361061039b5760003560e01c806370a08231116101dc578063ae823f3b11610102578063e8e23594116100a0578063f0292a031161006f578063f0292a0314610b28578063f2fde38b14610b47578063f66608fe14610b67578063f79e735414610b8657600080fd5b8063e8e2359414610aa8578063ea2f0b3714610ac8578063ee18836214610ae8578063efa0880614610b0857600080fd5b8063cac017d4116100dc578063cac017d414610a03578063cc5f478414610a22578063d82cc2d714610a42578063dd62ed3e14610a6257600080fd5b8063ae823f3b146109a4578063bdc653ef146109ce578063c49b9a80146109e357600080fd5b80638da5cb5b1161017a57806399887f761161014957806399887f7614610924578063a250ca8014610944578063a457c2d714610964578063a9059cbb1461098457600080fd5b80638da5cb5b146108c457806395d89b41146108d957806398f0f7b6146108ee5780639941f3ab1461090457600080fd5b806378b9c09f116101b657806378b9c09f1461082a5780637cbadcd21461084a57806382d2a4bb1461086b57806388f820201461088b57600080fd5b806370a08231146107bc578063715018a6146107dc578063716552c0146107f157600080fd5b80633bd5d173116102c15780634a74bb021161025f5780635342acb41161022e5780635342acb4146107365780635c975abb1461076f5780636605bfda14610787578063679aefce146107a757600080fd5b80634a74bb02146106a25780634ada218b146106c157806352143290146106e257806352390c021461071657600080fd5b806342966c681161029b57806342966c6814610622578063437823ec146106425780634549b03914610662578063493770cc1461068257600080fd5b80633bd5d173146105c4578063400d6844146105e457806340c10f191461060257600080fd5b80632920099511610339578063313ce56711610308578063313ce5671461052b578063324884a91461054d5780633685d4191461058457806339509351146105a457600080fd5b806329200995146104a0578063293230b8146104c05780632d6abf87146104d75780632d8381191461050b57600080fd5b806313114a9d1161037557806313114a9d1461042c57806318160ddd1461044b57806318da00111461046057806323b872dd1461048057600080fd5b806303fd2a45146103a757806306fdde03146103da578063095ea7b3146103fc57600080fd5b366103a257005b600080fd5b3480156103b357600080fd5b506103bd61dead81565b6040516001600160a01b0390911681526020015b60405180910390f35b3480156103e657600080fd5b506103ef610b9c565b6040516103d191906135fc565b34801561040857600080fd5b5061041c610417366004613676565b610c2e565b60405190151581526020016103d1565b34801561043857600080fd5b50600d545b6040519081526020016103d1565b34801561045757600080fd5b50600b5461043d565b34801561046c57600080fd5b506013546103bd906001600160a01b031681565b34801561048c57600080fd5b5061041c61049b3660046136a2565b610c45565b3480156104ac57600080fd5b506012546103bd906001600160a01b031681565b3480156104cc57600080fd5b506104d5610cae565b005b3480156104e357600080fd5b506103bd7f000000000000000000000000000000000000000000000000000000000000000081565b34801561051757600080fd5b5061043d6105263660046136e3565b610d03565b34801561053757600080fd5b5060105460405160ff90911681526020016103d1565b34801561055957600080fd5b5061041c6105683660046136fc565b6001600160a01b03166000908152600560205260409020541590565b34801561059057600080fd5b506104d561059f3660046136fc565b610d93565b3480156105b057600080fd5b5061041c6105bf366004613676565b610f66565b3480156105d057600080fd5b506104d56105df3660046136e3565b610f9c565b3480156105f057600080fd5b5061043d69152d02c7e14af680000081565b34801561060e57600080fd5b506104d561061d366004613676565b6110cd565b34801561062e57600080fd5b506104d561063d3660046136e3565b61112a565b34801561064e57600080fd5b506104d561065d3660046136fc565b611189565b34801561066e57600080fd5b5061043d61067d366004613727565b6111d6565b34801561068e57600080fd5b506104d561069d366004613757565b611277565b3480156106ae57600080fd5b5060155461041c90610100900460ff1681565b3480156106cd57600080fd5b5060135461041c90600160c81b900460ff1681565b3480156106ee57600080fd5b506103bd7f000000000000000000000000000000000000000000000000000000000000000081565b34801561072257600080fd5b506104d56107313660046136fc565b6112f7565b34801561074257600080fd5b5061041c6107513660046136fc565b6001600160a01b031660009081526006602052604090205460ff1690565b34801561077b57600080fd5b5060015460ff1661041c565b34801561079357600080fd5b506104d56107a23660046136fc565b611468565b3480156107b357600080fd5b5061043d6114dd565b3480156107c857600080fd5b5061043d6107d73660046136fc565b6114ec565b3480156107e857600080fd5b506104d561154b565b3480156107fd57600080fd5b5061041c61080c3660046136fc565b6001600160a01b031660009081526009602052604090205460ff1690565b34801561083657600080fd5b506104d5610845366004613757565b611580565b34801561085657600080fd5b5060135461041c90600160c01b900460ff1681565b34801561087757600080fd5b506104d56108863660046136e3565b6115c7565b34801561089757600080fd5b5061041c6108a63660046136fc565b6001600160a01b031660009081526007602052604090205460ff1690565b3480156108d057600080fd5b506103bd611608565b3480156108e557600080fd5b506103ef611652565b3480156108fa57600080fd5b5061043d60175481565b34801561091057600080fd5b5061043d61091f3660046136fc565b611661565b34801561093057600080fd5b506104d561093f3660046136fc565b61168e565b34801561095057600080fd5b506104d561095f3660046136fc565b611824565b34801561097057600080fd5b5061041c61097f366004613676565b6119b9565b34801561099057600080fd5b5061041c61099f366004613676565b611a08565b3480156109b057600080fd5b506109b9611a15565b604080519283526020830191909152016103d1565b3480156109da57600080fd5b5060165461043d565b3480156109ef57600080fd5b506104d56109fe366004613757565b611a28565b348015610a0f57600080fd5b50601354600160b01b900460ff1661043d565b348015610a2e57600080fd5b506104d5610a3d366004613785565b611aa5565b348015610a4e57600080fd5b506104d5610a5d3660046137ce565b611bd1565b348015610a6e57600080fd5b5061043d610a7d366004613899565b6001600160a01b03918216600090815260046020908152604080832093909416825291909152205490565b348015610ab457600080fd5b506104d5610ac33660046136fc565b611c72565b348015610ad457600080fd5b506104d5610ae33660046136fc565b611ce7565b348015610af457600080fd5b506104d5610b033660046136e3565b611d31565b348015610b1457600080fd5b506104d5610b23366004613676565b611e10565b348015610b3457600080fd5b5061043d6a52b7d2dcc80cd2e400000081565b348015610b5357600080fd5b506104d5610b623660046136fc565b611f0a565b348015610b7357600080fd5b50601354600160a01b900460ff1661043d565b348015610b9257600080fd5b5061043d60115481565b6060600e8054610bab906138c7565b80601f0160208091040260200160405190810160405280929190818152602001828054610bd7906138c7565b8015610c245780601f10610bf957610100808354040283529160200191610c24565b820191906000526020600020905b815481529060010190602001808311610c0757829003601f168201915b5050505050905090565b6000610c3b338484611f7a565b5060015b92915050565b6000610c52848484612088565b610ca48433610c9f85604051806060016040528060288152602001613b96602891396001600160a01b038a16600090815260046020908152604080832033845290915290205491906124af565b611f7a565b5060019392505050565b610cb66124db565b1515600114610ce05760405162461bcd60e51b8152600401610cd7906138fc565b60405180910390fd5b6013805465ff0000ff00ff60a01b19166501000001000160a01b17905542601455565b6000600c54821115610d765760405162461bcd60e51b815260206004820152603660248201527f4d415050595f7266693a20416d6f756e74206d757374206265206c65737320746044820152753430b7103a37ba30b6103932b33632b1ba34b7b7399760511b6064820152608401610cd7565b6000610d8061255d565b9050610d8c8382611f6e565b9392505050565b610d9b6124db565b1515600114610dbc5760405162461bcd60e51b8152600401610cd7906138fc565b6001600160a01b03811660009081526007602052604090205460ff16610e415760405162461bcd60e51b815260206004820152603460248201527f4d415050595f7265776172643a204163636f756e7420697320616c72656164796044820152731034b731b63ab232b21034b7103932bbb0b9321760611b6064820152608401610cd7565b60005b600854811015610f6257816001600160a01b031660088281548110610e6b57610e6b613931565b6000918252602090912001546001600160a01b03161415610f505760088054610e969060019061395d565b81548110610ea657610ea6613931565b600091825260209091200154600880546001600160a01b039092169183908110610ed257610ed2613931565b600091825260208083209190910180546001600160a01b0319166001600160a01b039485161790559184168152600382526040808220829055600790925220805460ff191690556008805480610f2a57610f2a613974565b600082815260209020810160001990810180546001600160a01b03191690550190555050565b80610f5a8161398a565b915050610e44565b5050565b3360008181526004602090815260408083206001600160a01b03871684529091528120549091610c3b918590610c9f9086612580565b3360008181526007602052604090205460ff16156110225760405162461bcd60e51b815260206004820152603860248201527f4d415050595f7266693a204578636c756465642061646472657373657320636160448201527f6e6e6f742063616c6c20746869732066756e6374696f6e2e00000000000000006064820152608401610cd7565b600061102d8361258c565b505050506001600160a01b038416600090815260026020526040902054919250611059919050826125db565b6001600160a01b038316600090815260026020526040902055600c5461107f90826125db565b600c55600d5461108f9084612580565b600d5560405183906001600160a01b038416907f224d9aaa519a039c1994e603f422cd3d69d47cc426bd88b0d91484e96354e69d90600090a3505050565b6013546001600160a01b0316336001600160a01b0316146111205760405162461bcd60e51b815260206004820152600d60248201526c4f6e6c7920547265617375727960981b6044820152606401610cd7565b610f6282826125e7565b6013546001600160a01b0316336001600160a01b03161461117d5760405162461bcd60e51b815260206004820152600d60248201526c4f6e6c7920547265617375727960981b6044820152606401610cd7565b611186816127df565b50565b6111916124db565b15156001146111b25760405162461bcd60e51b8152600401610cd7906138fc565b6001600160a01b03166000908152600660205260409020805460ff19166001179055565b6000600b5483111561123e5760405162461bcd60e51b815260206004820152602b60248201527f4d415050595f7266693a20416d6f756e74206d757374206265206c657373207460448201526a3430b71039bab838363c9760a91b6064820152608401610cd7565b8161125d57600061124e8461258c565b50939550610c3f945050505050565b60006112688461258c565b50929550610c3f945050505050565b6012546001600160a01b031633146112e15760405162461bcd60e51b815260206004820152602760248201527f4d415050595f74784374726c3a2043616c6c6572206973206e6f7420626f742060448201526635b2b2b832b91760c91b6064820152608401610cd7565b80156112ef57611186612945565b6111866129d7565b6112ff6124db565b15156001146113205760405162461bcd60e51b8152600401610cd7906138fc565b6001600160a01b03811660009081526007602052604090205460ff16156113a85760405162461bcd60e51b815260206004820152603660248201527f4d415050595f7265776172643a204163636f756e7420697320616c72656164796044820152751032bc31b63ab232b210333937b6903932bbb0b9321760511b6064820152608401610cd7565b6001600160a01b03811660009081526002602052604090205415611402576001600160a01b0381166000908152600260205260409020546113e890610d03565b6001600160a01b0382166000908152600360205260409020555b6001600160a01b03166000818152600760205260408120805460ff191660019081179091556008805491820181559091527ff3f7a9fe364faab93b216da50a3214154f22a0a2b415b23a84c8169e8b636ee30180546001600160a01b0319169091179055565b6114706124db565b15156001146114915760405162461bcd60e51b8152600401610cd7906138fc565b601380546001600160a01b0319166001600160a01b03831690811790915560405181907f66d091afc9c26c3a7ac26aaf2264aa6935008e7ab1342c9477530129863995b590600090a350565b60006114e761255d565b905090565b6001600160a01b03811660009081526007602052604081205460ff161561152957506001600160a01b031660009081526003602052604090205490565b6001600160a01b038216600090815260026020526040902054610c3f90610d03565b6115536124db565b15156001146115745760405162461bcd60e51b8152600401610cd7906138fc565b61157e6000612a51565b565b6115886124db565b15156001146115a95760405162461bcd60e51b8152600401610cd7906138fc565b60138054911515600160c01b0260ff60c01b19909216919091179055565b6115cf6124db565b15156001146115f05760405162461bcd60e51b8152600401610cd7906138fc565b61160281670de0b6b3a76400006139a5565b60165550565b60008054801561164a57600061161f60018361395d565b8154811061162f5761162f613931565b6000918252602090912001546001600160a01b031692915050565b600091505090565b6060600f8054610bab906138c7565b6001600160a01b03811660009081526005602052604081205461168657505060115490565b506000919050565b6116966124db565b15156001146116b75760405162461bcd60e51b8152600401610cd7906138fc565b6001600160a01b03811660009081526009602052604090205460ff166117325760405162461bcd60e51b815260206004820152602a60248201527f4d415050595f616e746f426f743a204163636f756e74206973206e6f7420626c60448201526930b1b5b634b9ba32b21760b11b6064820152608401610cd7565b60005b600a54811015610f6257816001600160a01b0316600a828154811061175c5761175c613931565b6000918252602090912001546001600160a01b0316141561181257600a80546117879060019061395d565b8154811061179757611797613931565b600091825260209091200154600a80546001600160a01b0390921691839081106117c3576117c3613931565b600091825260208083209190910180546001600160a01b0319166001600160a01b039485161790559184168152600990915260409020805460ff19169055600a805480610f2a57610f2a613974565b8061181c8161398a565b915050611735565b61182c6124db565b151560011461184d5760405162461bcd60e51b8152600401610cd7906138fc565b6001600160a01b0381167310ed43c718714eb63d5aa57b78b54704e256024e14156118d35760405162461bcd60e51b815260206004820152603060248201527f4d415050595f616e746f426f743a2057652063616e206e6f7420626c61636b6c60448201526f34b9ba1039bbb0b8103937baba32b91760811b6064820152608401610cd7565b6001600160a01b03811660009081526009602052604090205460ff16156119535760405162461bcd60e51b815260206004820152602e60248201527f4d415050595f616e746f426f743a204163636f756e7420697320616c7265616460448201526d3c90313630b1b5b634b9ba32b21760911b6064820152608401610cd7565b6001600160a01b03166000818152600960205260408120805460ff19166001908117909155600a805491820181559091527fc65a7bb8d6351c1cf70c95a316cc6a92839c986682d98bc35f958f4883f9d2a80180546001600160a01b0319169091179055565b6000610c3b3384610c9f85604051806060016040528060258152602001613bde602591393360009081526004602090815260408083206001600160a01b038d16845290915290205491906124af565b6000610c3b338484612088565b600080611a20612ad9565b915091509091565b611a306124db565b1515600114611a515760405162461bcd60e51b8152600401610cd7906138fc565b601580548215156101000261ff00199091161790556040517f53726dfcaf90650aa7eb35524f4d3220f07413c8d6cb404cc8c18bf5591bc15990611a9a90831515815260200190565b60405180910390a150565b611aad6124db565b1515600114611ace5760405162461bcd60e51b8152600401610cd7906138fc565b600a60ff83161115611b375760405162461bcd60e51b815260206004820152602c60248201527f4d415050595f6665653a205472616e73616374696f6e2066656520706572636560448201526b373a30b3b29032b93937b91760a11b6064820152608401610cd7565b600a60ff82161115611b9c5760405162461bcd60e51b815260206004820152602860248201527f4d415050595f6665653a204275794261636b206665652070657263656e746167604482015267329032b93937b91760c11b6064820152608401610cd7565b6013805462ff00ff60a01b1916600160a01b60ff9485160260ff60b01b191617600160b01b9290931691909102919091179055565b611bd96124db565b1515600114611bfa5760405162461bcd60e51b8152600401610cd7906138fc565b60005b8251811015611c6d57828181518110611c1857611c18613931565b60200260200101516001600160a01b031660006001600160a01b0316600080516020613bbe83398151915284604051611c5391815260200190565b60405180910390a380611c658161398a565b915050611bfd565b505050565b611c7a6124db565b1515600114611c9b5760405162461bcd60e51b8152600401610cd7906138fc565b601280546001600160a01b0319166001600160a01b03831690811790915560405181907f87539e2e2a47def56cbbc1ace5c120be06f04b7a3c7a70a387f1d8e14ce315a690600090a350565b611cef6124db565b1515600114611d105760405162461bcd60e51b8152600401610cd7906138fc565b6001600160a01b03166000908152600660205260409020805460ff19169055565b611d396124db565b1515600114611d5a5760405162461bcd60e51b8152600401610cd7906138fc565b611d7264174876e800611d6c600b5490565b90611f6e565b811115611ddb5760405162461bcd60e51b815260206004820152603160248201527f4d415050595f67656e657369733a2047656e657369732072657761726420657860448201527031b2b2b2399036b0bc103932bbb0b9321760791b6064820152608401610cd7565b6011819055604051819081907f8e32115a7f54666bf8087d1af4ab7f86f8b817a6979903f742f0c90432acd8ef90600090a350565b611e186124db565b1515600114611e395760405162461bcd60e51b8152600401610cd7906138fc565b6001600160a01b038216301415611e825760405162461bcd60e51b815260206004820152600d60248201526c53656c6620776974686472617760981b6044820152606401610cd7565b816001600160a01b031663a9059cbb611e99611608565b6040516001600160e01b031960e084901b1681526001600160a01b039091166004820152602481018490526044016020604051808303816000875af1158015611ee6573d6000803e3d6000fd5b505050506040513d601f19601f82011682018060405250810190611c6d91906139c4565b611f126124db565b1515600114611f335760405162461bcd60e51b8152600401610cd7906138fc565b6001600160a01b038116611f595760405162461bcd60e51b8152600401610cd7906139e1565b61118681612a51565b6000610d8c82846139a5565b6000610d8c8284613a3d565b6001600160a01b038316611fd05760405162461bcd60e51b815260206004820181905260248201527f45524332303a20617070726f76652066726f6d207a65726f20616464726573736044820152606401610cd7565b6001600160a01b0382166120265760405162461bcd60e51b815260206004820152601e60248201527f45524332303a20617070726f766520746f207a65726f206164647265737300006044820152606401610cd7565b6001600160a01b0383811660008181526004602090815260408083209487168084529482529182902085905590518481527f8c5be1e5ebec7d5bd14f71427d1e84f3dd0314c0f7b2291e5b200ac8c7c3b92591015b60405180910390a3505050565b6001600160a01b0383166120e85760405162461bcd60e51b815260206004820152602160248201527f45524332303a207472616e736665722066726f6d207a65726f206164647265736044820152607360f81b6064820152608401610cd7565b6001600160a01b03821661213e5760405162461bcd60e51b815260206004820152601f60248201527f45524332303a207472616e7366657220746f207a65726f2061646472657373006044820152606401610cd7565b600081116121a05760405162461bcd60e51b815260206004820152602960248201527f5472616e7366657220616d6f756e74206d7573742062652067726561746572206044820152687468616e207a65726f60b81b6064820152608401610cd7565b6001600160a01b03821660009081526009602052604090205460ff16156121d95760405162461bcd60e51b8152600401610cd790613a51565b3360009081526009602052604090205460ff16156122095760405162461bcd60e51b8152600401610cd790613a51565b7f00000000000000000000000000000000000000000000000000000000000000006001600160a01b0316836001600160a01b031614801561227c57507f00000000000000000000000000000000000000000000000000000000000000006001600160a01b0316826001600160a01b031614155b80156122a157506001600160a01b03821660009081526006602052604090205460ff16155b1561238457601354600160c81b900460ff1615156001146123145760405162461bcd60e51b815260206004820152602760248201527f4d415050595f74726164696e673a2054726164696e67206e6f742079657420656044820152663730b13632b21760c91b6064820152608401610cd7565b601454421415612384576001600160a01b0382166000818152600960205260408120805460ff19166001908117909155600a805491820181559091527fc65a7bb8d6351c1cf70c95a316cc6a92839c986682d98bc35f958f4883f9d2a80180546001600160a01b03191690911790555b600061238f306114ec565b6017546015549192508210159060ff161580156123dd57507f00000000000000000000000000000000000000000000000000000000000000006001600160a01b0316846001600160a01b0316145b80156123f05750601554610100900460ff165b1561245057801561240957601754915061240982612c5b565b601354600160b01b900460ff16156124505747670de0b6b3a764000081111561244e5760165481111561243b57506016545b61244e612449826064611f6e565b612e13565b505b6001600160a01b03851660009081526006602052604090205460019060ff168061249257506001600160a01b03851660009081526006602052604090205460ff165b1561249b575060005b6124a786868684612e3c565b505050505050565b600081848411156124d35760405162461bcd60e51b8152600401610cd791906135fc565b505050900390565b6000336124fa5760405162461bcd60e51b8152600401610cd7906139e1565b6000805b60005481101561255757336001600160a01b03166000828154811061252557612525613931565b6000918252602090912001546001600160a01b0316141561254557600191505b8061254f8161398a565b9150506124fe565b50919050565b600080600061256a612ad9565b90925090506125798282611f6e565b9250505090565b6000610d8c8284613a97565b60008060008060008060008060006125a38a612ff5565b92509250925060008060006125c18d86866125bc61255d565b613037565b919f909e50909c50959a5093985091965092945050505050565b6000610d8c828461395d565b6a52b7d2dcc80cd2e40000006125fc600b5490565b6126069083613a97565b111561267a5760405162461bcd60e51b815260206004820152603860248201527f4d415050595f6d696e743a2043616e6e6f74206d696e74207468697320616d6f60448201527f756e742e2045786365656473206d617820737570706c792e00000000000000006064820152608401610cd7565b61268e69152d02c7e14af680000082613aaf565b156126e75760405162461bcd60e51b8152602060048201526024808201527f4d415050595f6d696e743a2043616e6e6f74206d696e74207468697320616d6f6044820152633ab73a1760e11b6064820152608401610cd7565b60006126f161255d565b600b549091506127019083612580565b600b5561271a6127118383611f62565b600c5490612580565b600c5561274961272a8383611f62565b6001600160a01b03851660009081526002602052604090205490612580565b6001600160a01b03841660009081526002602090815260408083209390935560079052205460ff16156127b3576001600160a01b0383166000908152600360205260409020546127999083612580565b6001600160a01b0384166000908152600360205260409020555b6040518281526001600160a01b03841690600090600080516020613bbe8339815191529060200161207b565b6127f369152d02c7e14af680000082613aaf565b1561284c5760405162461bcd60e51b8152602060048201526024808201527f4d415050595f6275726e3a2043616e6e6f74206275726e207468697320616d6f6044820152633ab73a1760e11b6064820152608401610cd7565b33600061285761255d565b600b5490915061286790846125db565b600b556128806128778483611f62565b600c54906125db565b600c556128af6128908483611f62565b6001600160a01b038416600090815260026020526040902054906125db565b6001600160a01b03831660009081526002602090815260408083209390935560079052205460ff1615612919576001600160a01b0382166000908152600360205260409020546128ff90846125db565b6001600160a01b0383166000908152600360205260409020555b6040518381526000906001600160a01b03841690600080516020613bbe8339815191529060200161207b565b60015460ff161561298b5760405162461bcd60e51b815260206004820152601060248201526f14185d5cd8589b194e881c185d5cd95960821b6044820152606401610cd7565b6001805460ff1916811790557f62e78cea01bee320cd4e420270b5ea74000d11b0c9f74754ebdbfc544b05a258335b6040516001600160a01b03909116815260200160405180910390a1565b60015460ff16612a205760405162461bcd60e51b815260206004820152601460248201527314185d5cd8589b194e881b9bdd081c185d5cd95960621b6044820152606401610cd7565b6001805460ff191690557f5db9ee0a495bf2e6ff9c91a7834c1ba4fdd244a5e8aa4e537bd38aeae4b073aa336129ba565b6000612a5b611608565b600080546001810182558180527f290decd9548b62a8d60345a988386fc84ba6bc95484008f6362f93160ef3e5630180546001600160a01b0319166001600160a01b0386811691821790925560405193945092908416917f8be0079c531659141344cd1fd0a4f28419497f9722a3daafe3b4186f6b6457e091a35050565b600c54600b546000918291825b600854811015612c2b57826002600060088481548110612b0857612b08613931565b60009182526020808320909101546001600160a01b031683528201929092526040019020541180612b735750816003600060088481548110612b4c57612b4c613931565b60009182526020808320909101546001600160a01b03168352820192909252604001902054115b15612b8957600c54600b54945094505050509091565b612bcf6002600060088481548110612ba357612ba3613931565b60009182526020808320909101546001600160a01b0316835282019290925260400190205484906125db565b9250612c176003600060088481548110612beb57612beb613931565b60009182526020808320909101546001600160a01b0316835282019290925260400190205483906125db565b915080612c238161398a565b915050612ae6565b50600b54600c54612c3b91611f6e565b821015612c5257600c54600b549350935050509091565b90939092509050565b6040805160028082526060820183526000926020830190803683370190505090503081600081518110612c9057612c90613931565b60200260200101906001600160a01b031690816001600160a01b0316815250507f00000000000000000000000000000000000000000000000000000000000000006001600160a01b031663ad5c46486040518163ffffffff1660e01b8152600401602060405180830381865afa158015612d0e573d6000803e3d6000fd5b505050506040513d601f19601f82011682018060405250810190612d329190613ac3565b81600181518110612d4557612d45613931565b60200260200101906001600160a01b031690816001600160a01b031681525050612d90307f000000000000000000000000000000000000000000000000000000000000000084611f7a565b60405163791ac94760e01b81526001600160a01b037f0000000000000000000000000000000000000000000000000000000000000000169063791ac94790612de5908590600090869030904290600401613b24565b600060405180830381600087803b158015612dff57600080fd5b505af11580156124a7573d6000803e3d6000fd5b6015805460ff191660011790558015612e2f57612e2f81613087565b506015805460ff19169055565b80612e4957612e49613216565b6001600160a01b03841660009081526007602052604090205460ff168015612e8a57506001600160a01b03831660009081526007602052604090205460ff16155b15612e9f57612e9a848484613298565b612f9d565b6001600160a01b03841660009081526007602052604090205460ff16158015612ee057506001600160a01b03831660009081526007602052604090205460ff165b15612ef057612e9a8484846133ac565b6001600160a01b03841660009081526007602052604090205460ff16158015612f3257506001600160a01b03831660009081526007602052604090205460ff16155b15612f4257612e9a848484613455565b6001600160a01b03841660009081526007602052604090205460ff168015612f8257506001600160a01b03831660009081526007602052604090205460ff165b15612f9257612e9a848484613499565b612f9d848484613455565b80612fef576013805462ff00ff60a01b19811660ff60b01b19600160a81b830460ff908116600160a01b0291821692909217600160b81b60ff60a01b199094169091179290920416600160b01b021790555b50505050565b6000806000806130048561350c565b905060006130118661352e565b905060006130298261302389866125db565b906125db565b979296509094509092505050565b60008080806130468886611f62565b905060006130548887611f62565b905060006130628888611f62565b905060006130748261302386866125db565b939b939a50919850919650505050505050565b6040805160028082526060820183526000926020830190803683370190505090507f00000000000000000000000000000000000000000000000000000000000000006001600160a01b031663ad5c46486040518163ffffffff1660e01b8152600401602060405180830381865afa158015613106573d6000803e3d6000fd5b505050506040513d601f19601f8201168201806040525081019061312a9190613ac3565b8160008151811061313d5761313d613931565b60200260200101906001600160a01b031690816001600160a01b031681525050308160018151811061317157613171613931565b6001600160a01b0392831660209182029290920101527f00000000000000000000000000000000000000000000000000000000000000001663b6f9de958360008461dead6131c14261012c612580565b6040518663ffffffff1660e01b81526004016131e09493929190613b60565b6000604051808303818588803b1580156131f957600080fd5b505af115801561320d573d6000803e3d6000fd5b50505050505050565b601354600160a01b900460ff1615801561323a5750601354600160b01b900460ff16155b1561324157565b6013805462ff00ff60a81b19811660ff60b81b19600160a01b830460ff908116600160a81b0291821692909217600160b01b60ff60a81b199094169091179290920416600160b81b021762ff00ff60a01b19169055565b6000806000806000806132aa8761258c565b6001600160a01b038f16600090815260036020526040902054959b509399509197509550935091506132dc90886125db565b6001600160a01b038a1660009081526003602090815260408083209390935560029052205461330b90876125db565b6001600160a01b03808b1660009081526002602052604080822093909355908a168152205461333a9086612580565b6001600160a01b03891660009081526002602052604090205561335c81613550565b61336684836135d8565b876001600160a01b0316896001600160a01b0316600080516020613bbe8339815191528560405161339991815260200190565b60405180910390a3505050505050505050565b6000806000806000806133be8761258c565b6001600160a01b038f16600090815260026020526040902054959b509399509197509550935091506133f090876125db565b6001600160a01b03808b16600090815260026020908152604080832094909455918b168152600390915220546134269084612580565b6001600160a01b03891660009081526003602090815260408083209390935560029052205461333a9086612580565b6000806000806000806134678761258c565b6001600160a01b038f16600090815260026020526040902054959b5093995091975095509350915061330b90876125db565b6000806000806000806134ab8761258c565b6001600160a01b038f16600090815260036020526040902054959b509399509197509550935091506134dd90886125db565b6001600160a01b038a166000908152600360209081526040808320939093556002905220546133f090876125db565b601354600090610c3f90606490611d6c908590600160a01b900460ff16611f62565b601354600090610c3f90606490611d6c908590600160b01b900460ff16611f62565b600061355a61255d565b905060006135688383611f62565b306000908152600260205260409020549091506135859082612580565b3060009081526002602090815260408083209390935560079052205460ff1615611c6d57306000908152600360205260409020546135c39084612580565b30600090815260036020526040902055505050565b600c546135e590836125db565b600c55600d546135f59082612580565b600d555050565b600060208083528351808285015260005b818110156136295785810183015185820160400152820161360d565b8181111561363b576000604083870101525b50601f01601f1916929092016040019392505050565b6001600160a01b038116811461118657600080fd5b803561367181613651565b919050565b6000806040838503121561368957600080fd5b823561369481613651565b946020939093013593505050565b6000806000606084860312156136b757600080fd5b83356136c281613651565b925060208401356136d281613651565b929592945050506040919091013590565b6000602082840312156136f557600080fd5b5035919050565b60006020828403121561370e57600080fd5b8135610d8c81613651565b801515811461118657600080fd5b6000806040838503121561373a57600080fd5b82359150602083013561374c81613719565b809150509250929050565b60006020828403121561376957600080fd5b8135610d8c81613719565b803560ff8116811461367157600080fd5b6000806040838503121561379857600080fd5b6137a183613774565b91506137af60208401613774565b90509250929050565b634e487b7160e01b600052604160045260246000fd5b600080604083850312156137e157600080fd5b823567ffffffffffffffff808211156137f957600080fd5b818501915085601f83011261380d57600080fd5b8135602082821115613821576138216137b8565b8160051b604051601f19603f83011681018181108682111715613846576138466137b8565b60405292835281830193508481018201928984111561386457600080fd5b948201945b838610156138895761387a86613666565b85529482019493820193613869565b9997909101359750505050505050565b600080604083850312156138ac57600080fd5b82356138b781613651565b9150602083013561374c81613651565b600181811c908216806138db57607f821691505b6020821081141561255757634e487b7160e01b600052602260045260246000fd5b6020808252818101527f4f776e61626c653a2063616c6c6572206973206e6f7420746865206f776e6572604082015260600190565b634e487b7160e01b600052603260045260246000fd5b634e487b7160e01b600052601160045260246000fd5b60008282101561396f5761396f613947565b500390565b634e487b7160e01b600052603160045260246000fd5b600060001982141561399e5761399e613947565b5060010190565b60008160001904831182151516156139bf576139bf613947565b500290565b6000602082840312156139d657600080fd5b8151610d8c81613719565b60208082526026908201527f4f776e61626c653a206e6577206f776e657220697320746865207a65726f206160408201526564647265737360d01b606082015260800190565b634e487b7160e01b600052601260045260246000fd5b600082613a4c57613a4c613a27565b500490565b60208082526026908201527f4d415050595f616e7469426f743a20426f74732063616e277420646f20616e796040820152657468696e672160d01b606082015260800190565b60008219821115613aaa57613aaa613947565b500190565b600082613abe57613abe613a27565b500690565b600060208284031215613ad557600080fd5b8151610d8c81613651565b600081518084526020808501945080840160005b83811015613b195781516001600160a01b031687529582019590820190600101613af4565b509495945050505050565b85815284602082015260a060408201526000613b4360a0830186613ae0565b6001600160a01b0394909416606083015250608001529392505050565b848152608060208201526000613b796080830186613ae0565b6001600160a01b0394909416604083015250606001529291505056fe45524332303a207472616e7366657220616d6f756e74206578636565647320616c6c6f77616e6365ddf252ad1be2c89b69c2b068fc378daa952ba7f163c4a11628f55a4df523b3ef45524332303a2064656372656173656420616c6c6f77616e63652062656c6f77207a65726fa26469706673582212204b458dd247a7b8b1a8a55dc36c70758932b8253fc53161170da106a10f84ca1c64736f6c634300080c0033",
  "immutableReferences": {
    "6582": [
      {
        "length": 32,
        "start": 1257
      },
      {
        "length": 32,
        "start": 8775
      },
      {
        "length": 32,
        "start": 11442
      },
      {
        "length": 32,
        "start": 11627
      },
      {
        "length": 32,
        "start": 11687
      },
      {
        "length": 32,
        "start": 12458
      },
      {
        "length": 32,
        "start": 12681
      }
    ],
    "6584": [
      {
        "length": 32,
        "start": 1780
      },
      {
        "length": 32,
        "start": 8715
      },
      {
        "length": 32,
        "start": 9129
      }
    ]
  },
  "source": "// SPDX-License-Identifier: MIT\r\n\r\npragma solidity ^0.8.11;\r\n\r\n/**\r\n *                     \r\n *         \r\n *                \r\n *                   \r\n *                          \r\n *                                 \r\n *\r\n * MAPPY COIN TOKENOMICS\r\n * \r\n * - Max Supply: 1 Billion\r\n * - Name: MappyCoin\r\n * - Symbol: MAPPY\r\n * - Reflection to HODLers: 1%\r\n * - Automatic Buyback: 1%\r\n * - Anti Sniper Bot feature\r\n */\r\n\r\nimport \"@openzeppelin/contracts/utils/Address.sol\";\r\nimport \"@openzeppelin/contracts/utils/Context.sol\";\r\nimport \"@openzeppelin/contracts/access/Ownable.sol\";\r\nimport \"@openzeppelin/contracts/security/Pausable.sol\";\r\nimport \"@openzeppelin/contracts/token/ERC20/IERC20.sol\";\r\nimport \"@openzeppelin/contracts/utils/math/SafeMath.sol\";\r\nimport \"@openzeppelin/contracts/token/ERC20/utils/SafeERC20.sol\";\r\nimport \"@uniswap/v2-core/contracts/interfaces/IUniswapV2Factory.sol\";\r\nimport \"@uniswap/v2-periphery/contracts/interfaces/IUniswapV2Router01.sol\";\r\nimport \"@uniswap/v2-periphery/contracts/interfaces/IUniswapV2Router02.sol\";\r\n\r\ncontract Mappy is Context, IERC20, Ownable, Pausable {\r\n    using SafeERC20 for IERC20;\r\n    using SafeMath for uint256;\r\n    using Address for address;\r\n\r\n    mapping (address => uint256) private _rOwned;\r\n    mapping (address => uint256) private _tOwned;\r\n    mapping (address => mapping (address => uint256)) private _allowances;\r\n    mapping (address => uint256) private _addressLevel;\r\n    \r\n    mapping (address => bool) private _isExcludedFromFee;\r\n    mapping (address => bool) private _isExcluded;\r\n    address[] private _excluded;\r\n\r\n    mapping (address => bool) private _isBot;\r\n    address[] private _blockedBots;\r\n\r\n    uint256 private constant MAX = ~uint256(0);\r\n    uint256 private _tTotal;\r\n    uint256 private _rTotal;\r\n    uint256 private _tFeeTotal;\r\n\r\n    string private _name = \"MappyCoin\";\r\n    string private _symbol = \"MAPPY\";\r\n    uint8 private _decimals = 18;\r\n    \r\n    address public constant DEAD = 0x000000000000000000000000000000000000dEaD; // Dead address\r\n    address private constant ROUTER = 0x10ED43C718714eb63d5aA57B78B54704E256024E; // Pancakeswap Router\r\n\r\n    uint256 public constant MAX_MINT = 1 * 10**8 * 10**18; // 100 Million MAPPY maximum\r\n    uint256 public constant BASE_MINT = 1 * 10**5 * 10**18; // 0.1 Million MAPPY to mint per time\r\n    \r\n    uint256 public genesisReward;\r\n    address public botKeeper; // bot keeper helps watch the price drop then pause the transfer function\r\n    address public treasuryContract;\r\n\r\n    uint8 private constant MAXTXFEE = 10;\r\n    uint8 private constant MAXBUYBACKFEE = 10;\r\n\r\n    uint8 private _taxFee = 0;\r\n    uint8 private _previousTaxFee = _taxFee;\r\n\r\n    uint8 private _buybackFee = 0;\r\n    uint8 private _previousBuybackFee = _buybackFee;\r\n\r\n    bool public antiDumpEnabled = true;\r\n    bool public tradingEnabled = false;\r\n\r\n    uint256 private tradingTime;\r\n\r\n    event Deliver(address indexed sender, uint256 indexed amount);\r\n    event GenesisRewardChanged(uint256 indexed previousAmount, uint256 indexed newAmount);\r\n    event BotKeeperChanged(address indexed previousKeeper, address indexed newKeeper);\r\n    event TreasuryContractChanged(address indexed previusAAddress, address indexed newAddress);\r\n    event SwapAndLiquifyEnabledUpdated(bool enabled);\r\n    event SwapAndLiquify(\r\n        uint256 tokensSwapped,\r\n        uint256 ethReceived,\r\n        uint256 tokensIntoLiqudity\r\n    );\r\n    \r\n    modifier lockTheSwap {\r\n        inSwapAndLiquify = true;\r\n        _;\r\n        inSwapAndLiquify = false;\r\n    }\r\n\r\n    modifier onlyTreasury() {\r\n        require(_msgSender() == treasuryContract, \"Only Treasury\");\r\n        _;\r\n    }\r\n    \r\n    IUniswapV2Router02 public immutable pcsV2Router;\r\n    address public immutable pcsV2Pair;\r\n    \r\n    bool inSwapAndLiquify;\r\n    bool public swapAndLiquifyEnabled = true;\r\n\r\n    uint256 private buyBackUpperLimit = 1 * 10**18; // 1 BNB limit\r\n    uint256 public numTokensSellToAddToBuyback = _tTotal.mul(1).div(10**3); // 0.1% of total supply\r\n    \r\n    constructor () {\r\n        // 27% of max supply\r\n        _tTotal = BASE_MINT * 10 * 27;\r\n        _rTotal = ((MAX - (MAX % _tTotal)));\r\n\r\n        _rOwned[msg.sender] = _rTotal;\r\n        \r\n        IUniswapV2Router02 _pcsV2Router = IUniswapV2Router02(ROUTER);\r\n        \r\n        // Create a pancakeswap pair for this new token\r\n        pcsV2Pair = IUniswapV2Factory(_pcsV2Router.factory()).createPair(address(this), _pcsV2Router.WETH());\r\n\r\n        // set the rest of the contract variables\r\n        pcsV2Router = _pcsV2Router;\r\n        \r\n        _isExcludedFromFee[msg.sender] = true;\r\n        _isExcludedFromFee[address(this)] = true;\r\n        \r\n        emit Transfer(address(0), msg.sender, _tTotal);\r\n    }\r\n\r\n    function name() public view returns (string memory) {\r\n        return _name;\r\n    }\r\n\r\n    function symbol() public view returns (string memory) {\r\n        return _symbol;\r\n    }\r\n\r\n    function decimals() public view returns (uint8) {\r\n        return _decimals;\r\n    }\r\n\r\n    function totalSupply() public view override returns (uint256) {\r\n        return _tTotal;\r\n    }\r\n\r\n    function balanceOf(address account) public view override returns (uint256) {\r\n        if (_isExcluded[account]) return _tOwned[account];\r\n\r\n        return tokenFromReflection(_rOwned[account]);\r\n    }\r\n\r\n    function transfer(address recipient, uint256 amount) public override returns (bool) {\r\n        _transfer(_msgSender(), recipient, amount);\r\n\r\n        return true;\r\n    }\r\n\r\n    function allowance(address owner, address spender) public view override returns (uint256) {\r\n        return _allowances[owner][spender];\r\n    }\r\n\r\n    function approve(address spender, uint256 amount) public override returns (bool) {\r\n        _approve(_msgSender(), spender, amount);\r\n\r\n        return true;\r\n    }\r\n\r\n    function transferFrom(address sender, address recipient, uint256 amount) public override returns (bool) {\r\n        _transfer(sender, recipient, amount);\r\n        _approve(sender, _msgSender(), _allowances[sender][_msgSender()].sub(amount, \"ERC20: transfer amount exceeds allowance\"));\r\n\r\n        return true;\r\n    }\r\n\r\n    function increaseAllowance(address spender, uint256 addedValue) public virtual returns (bool) {\r\n        _approve(_msgSender(), spender, _allowances[_msgSender()][spender].add(addedValue));\r\n\r\n        return true;\r\n    }\r\n\r\n    function decreaseAllowance(address spender, uint256 subtractedValue) public virtual returns (bool) {\r\n        _approve(_msgSender(), spender, _allowances[_msgSender()][spender].sub(subtractedValue, \"ERC20: decreased allowance below zero\"));\r\n\r\n        return true;\r\n    }\r\n\r\n    function isGenesisAddress(address account) public view returns (bool) {\r\n        return _addressLevel[account] == 0;\r\n    }\r\n\r\n    function genesisBalance(address account) public view returns (uint256) {\r\n        if(isGenesisAddress(account)) {\r\n          return genesisReward;\r\n        }\r\n\r\n        return 0;\r\n    }\r\n\r\n    function isExcludedFromReward(address account) public view returns (bool) {\r\n        return _isExcluded[account];\r\n    }\r\n\r\n    function isExcludedFromFee(address account) public view returns(bool) {\r\n        return _isExcludedFromFee[account];\r\n    }\r\n\r\n    function excludeFromFee(address account) public onlyOwner {\r\n        _isExcludedFromFee[account] = true;\r\n    }\r\n    \r\n    function includeInFee(address account) public onlyOwner {\r\n        _isExcludedFromFee[account] = false;\r\n    }\r\n\r\n    function totalFees() public view returns (uint256) {\r\n        return _tFeeTotal;\r\n    }\r\n\r\n    function mint(address _receiver, uint amount) public onlyTreasury {\r\n        _mint(_receiver, amount);\r\n    }\r\n\r\n    function burn(uint amount) public onlyTreasury {\r\n        _burn(amount);\r\n    }\r\n\r\n    function notifyGenesisAddresses(address[] memory _receivers, uint _value) public onlyOwner {\r\n        for(uint i = 0; i < _receivers.length; i++){\r\n            emit Transfer(address(0), _receivers[i], _value);\r\n        }\r\n    }\r\n\r\n    function setGenesisReward(uint256 amount) public onlyOwner {\r\n        require(amount <= totalSupply().div(1e11), \"MAPPY_genesis: Genesis reward exceeds max reward.\"); // Genesis reward cannot be greater than 1e-11% of the total supply\r\n        genesisReward = amount;\r\n\r\n        emit GenesisRewardChanged(genesisReward, amount);\r\n    }\r\n\r\n    function setBotKeeper(address _newKeeper) public onlyOwner {\r\n        botKeeper = _newKeeper;\r\n\r\n        emit BotKeeperChanged(botKeeper, _newKeeper);\r\n    }\r\n\r\n    function setTreasuryAddress(address _newAddress) public onlyOwner {\r\n        treasuryContract = _newAddress;\r\n\r\n        emit TreasuryContractChanged(treasuryContract, _newAddress);\r\n    }\r\n\r\n    function setTransferStatus(bool _isPaused) public {\r\n        require(msg.sender == botKeeper, \"MAPPY_txCtrl: Caller is not bot keeper.\");\r\n\r\n        if(_isPaused){\r\n            _pause();\r\n        }else{\r\n            _unpause();\r\n        }\r\n    }    \r\n\r\n    function deliver(uint256 tAmount) public {\r\n        address sender = _msgSender();\r\n        require(!_isExcluded[sender], \"MAPPY_rfi: Excluded addresses cannot call this function.\");\r\n        \r\n        (uint256 rAmount,,,,,) = _getValues(tAmount);\r\n\r\n        _rOwned[sender] = _rOwned[sender].sub(rAmount);\r\n        _rTotal = _rTotal.sub(rAmount);\r\n\r\n        _tFeeTotal = _tFeeTotal.add(tAmount);\r\n        \r\n        emit Deliver(sender, tAmount);\r\n    }\r\n\r\n    function reflectionFromToken(uint256 tAmount, bool deductTransferFee) public view returns(uint256) {\r\n        require(tAmount <= _tTotal, \"MAPPY_rfi: Amount must be less than supply.\");\r\n\r\n        if (!deductTransferFee) {\r\n            (uint256 rAmount,,,,,) = _getValues(tAmount);\r\n\r\n            return rAmount;\r\n        } else {\r\n            (,uint256 rTransferAmount,,,,) = _getValues(tAmount);\r\n\r\n            return rTransferAmount;\r\n        }\r\n    }\r\n\r\n    function tokenFromReflection(uint256 rAmount) public view returns(uint256) {\r\n        require(rAmount <= _rTotal, \"MAPPY_rfi: Amount must be less than total reflections.\");\r\n\r\n        uint256 currentRate =  _getRate();\r\n\r\n        return rAmount.div(currentRate);\r\n    }\r\n\r\n    function excludeFromReward(address account) public onlyOwner() {\r\n        require(!_isExcluded[account], \"MAPPY_reward: Account is already excluded from reward.\");\r\n\r\n        if (_rOwned[account] > 0) {\r\n            _tOwned[account] = tokenFromReflection(_rOwned[account]);\r\n        }\r\n        _isExcluded[account] = true;\r\n        _excluded.push(account);\r\n    }\r\n\r\n    function includeInReward(address account) external onlyOwner() {\r\n        require(_isExcluded[account], \"MAPPY_reward: Account is already included in reward.\");\r\n\r\n        for (uint256 i = 0; i < _excluded.length; i++) {\r\n            if (_excluded[i] == account) {\r\n                _excluded[i] = _excluded[_excluded.length - 1];\r\n                _tOwned[account] = 0;\r\n                _isExcluded[account] = false;\r\n                _excluded.pop();\r\n                break;\r\n            }\r\n        }\r\n    }\r\n    \r\n    function setAllFeePercent(uint8 taxFee, uint8 buybackFee) public onlyOwner() {\r\n        require(taxFee >= 0 && taxFee <= MAXTXFEE,\"MAPPY_fee: Transaction fee percentage error.\");\r\n        require(buybackFee >= 0 && buybackFee <= MAXBUYBACKFEE,\"MAPPY_fee: BuyBack fee percentage error.\");\r\n        \r\n        _taxFee = taxFee;\r\n        _buybackFee = buybackFee;\r\n    }\r\n    \r\n    function buyBackUpperLimitAmount() public view returns (uint256) {\r\n        return buyBackUpperLimit;\r\n    }\r\n\r\n    function setBuybackUpperLimit(uint256 buyBackLimit) external onlyOwner() {\r\n        buyBackUpperLimit = buyBackLimit * 10**18;\r\n    }\r\n\r\n    function setSwapAndLiquifyEnabled(bool _enabled) public onlyOwner {\r\n        swapAndLiquifyEnabled = _enabled;\r\n\r\n        emit SwapAndLiquifyEnabledUpdated(_enabled);\r\n    }\r\n\r\n    function setAntiDumpEnabled(bool enabled) public onlyOwner {\r\n        antiDumpEnabled = enabled;\r\n    }\r\n\r\n    function _upgradeAddressLevel(address _account) private {\r\n        _addressLevel[_account] = 1;\r\n    }\r\n\r\n    function _reflectFee(uint256 rFee, uint256 tFee) private {\r\n        _rTotal = _rTotal.sub(rFee);\r\n        _tFeeTotal = _tFeeTotal.add(tFee);\r\n    }\r\n\r\n    function _getValues(uint256 tAmount) private view returns (uint256, uint256, uint256, uint256, uint256, uint256) {\r\n        (uint256 tTransferAmount, uint256 tFee, uint256 tBuyback) = _getTValues(tAmount);\r\n        (uint256 rAmount, uint256 rTransferAmount, uint256 rFee) = _getRValues(tAmount, tFee, tBuyback, _getRate());\r\n\r\n        return (rAmount, rTransferAmount, rFee, tTransferAmount, tFee, tBuyback);\r\n    }\r\n\r\n    function _getTValues(uint256 tAmount) private view returns (uint256, uint256, uint256) {\r\n        uint256 tFee = calculateTaxFee(tAmount);\r\n        uint256 tBuyback = calculateBuybackFee(tAmount);\r\n        uint256 tTransferAmount = tAmount.sub(tFee).sub(tBuyback);\r\n\r\n        return (tTransferAmount, tFee, tBuyback);\r\n    }\r\n\r\n    function _getRValues(uint256 tAmount, uint256 tFee, uint256 tBuyback, uint256 currentRate) private pure returns (uint256, uint256, uint256) {\r\n        uint256 rAmount = tAmount.mul(currentRate);\r\n        uint256 rFee = tFee.mul(currentRate);\r\n        uint256 rBuyback = tBuyback.mul(currentRate);\r\n        uint256 rTransferAmount = rAmount.sub(rFee).sub(rBuyback);\r\n\r\n        return (rAmount, rTransferAmount, rFee);\r\n    }\r\n\r\n    function getRate() public view returns (uint256) {\r\n        return _getRate();\r\n    }\r\n\r\n    function getTaxFee() public view returns (uint256) {\r\n        return _taxFee;\r\n    }\r\n\r\n    function getBuybackFee() public view returns (uint256) {\r\n        return _buybackFee;\r\n    }\r\n\r\n    function getCurrentRTSupply() public view returns (uint256, uint256) {\r\n        return _getCurrentSupply();\r\n    }\r\n\r\n    function _getRate() private view returns(uint256) {\r\n        (uint256 rSupply, uint256 tSupply) = _getCurrentSupply();\r\n        \r\n        return rSupply.div(tSupply);\r\n    }\r\n\r\n    function _getCurrentSupply() private view returns(uint256, uint256) {\r\n        uint256 rSupply = _rTotal;\r\n        uint256 tSupply = _tTotal;\r\n        \r\n        for (uint256 i = 0; i < _excluded.length; i++) {\r\n            if (_rOwned[_excluded[i]] > rSupply || _tOwned[_excluded[i]] > tSupply) return (_rTotal, _tTotal);\r\n            rSupply = rSupply.sub(_rOwned[_excluded[i]]);\r\n            tSupply = tSupply.sub(_tOwned[_excluded[i]]);\r\n        }\r\n        \r\n        if (rSupply < _rTotal.div(_tTotal)) return (_rTotal, _tTotal);\r\n\r\n        return (rSupply, tSupply);\r\n    }\r\n    \r\n    function _takeBuyback(uint256 tBuyback) private {\r\n        uint256 currentRate =  _getRate();\r\n        uint256 rBuyback = tBuyback.mul(currentRate);\r\n        _rOwned[address(this)] = _rOwned[address(this)].add(rBuyback);\r\n        \r\n        if (_isExcluded[address(this)]) {\r\n            _tOwned[address(this)] = _tOwned[address(this)].add(tBuyback);\r\n        }\r\n    }\r\n    \r\n    function calculateTaxFee(uint256 _amount) private view returns (uint256) {\r\n        return _amount.mul(_taxFee).div(10**2);\r\n    }\r\n\r\n    function calculateBuybackFee(uint256 _amount) private view returns (uint256) {\r\n        return _amount.mul(_buybackFee).div(10**2);\r\n    }\r\n    \r\n    function removeAllFee() private {\r\n        if (_taxFee == 0 && _buybackFee == 0) return;\r\n        \r\n        _previousTaxFee = _taxFee;\r\n        _previousBuybackFee = _buybackFee;\r\n        \r\n        _taxFee = 0;\r\n        _buybackFee = 0;\r\n    }\r\n    \r\n    function restoreAllFee() private {\r\n        _taxFee = _previousTaxFee;\r\n        _buybackFee = _previousBuybackFee;\r\n    }    \r\n\r\n    function _approve(address owner, address spender, uint256 amount) private {\r\n        require(owner != address(0), \"ERC20: approve from zero address\");\r\n        require(spender != address(0), \"ERC20: approve to zero address\");\r\n\r\n        _allowances[owner][spender] = amount;\r\n\r\n        emit Approval(owner, spender, amount);\r\n    }\r\n\r\n    function _transfer(\r\n        address from,\r\n        address to,\r\n        uint256 amount\r\n    ) private {\r\n        require(from != address(0), \"ERC20: transfer from zero address\");\r\n        require(to != address(0), \"ERC20: transfer to zero address\");\r\n        require(amount > 0, \"Transfer amount must be greater than zero\");\r\n\r\n        require(!_isBot[to], \"MAPPY_antiBot: Bots can't do anything!\");\r\n        require(!_isBot[msg.sender], \"MAPPY_antiBot: Bots can't do anything!\");\r\n        \r\n        // Buy Txns\r\n        if(from == pcsV2Pair && to != address(pcsV2Router) && !_isExcludedFromFee[to]) {\r\n            require(tradingEnabled == true, \"MAPPY_trading: Trading not yet enabled.\");\r\n            \r\n            if (block.timestamp == tradingTime) {\r\n                _isBot[to] = true;\r\n                _blockedBots.push(to);\r\n            }\r\n        }\r\n        \r\n        uint256 contractTokenBalance = balanceOf(address(this));\r\n\r\n        bool overMinTokenBalance = contractTokenBalance >= numTokensSellToAddToBuyback;\r\n        if (!inSwapAndLiquify && to == pcsV2Pair && swapAndLiquifyEnabled) {\r\n            if (overMinTokenBalance) {\r\n                contractTokenBalance = numTokensSellToAddToBuyback;\r\n                \r\n                swapTokensForBNB(contractTokenBalance);\r\n            }\r\n            \r\n            if (_buybackFee !=0) {\r\n                uint256 balance = address(this).balance;\r\n                if (balance > uint256(1 * 10**18)) {\r\n                    if (balance > buyBackUpperLimit)\r\n                        balance = buyBackUpperLimit;\r\n                    \r\n                    buyBackTokens(balance.div(100));\r\n                }\r\n            }\r\n        }\r\n        \r\n        //indicates if fee should be deducted from transfer\r\n        bool takeFee = true;\r\n        \r\n        //if any account belongs to _isExcludedFromFee account then remove the fee\r\n        if (_isExcludedFromFee[from] || _isExcludedFromFee[to]) {\r\n            takeFee = false;\r\n        }\r\n        \r\n        //transfer amount, it will take buyback fee\r\n        _tokenTransfer(from, to, amount, takeFee);\r\n    }\r\n\r\n    function buyBackTokens(uint256 amount) private lockTheSwap {\r\n        if (amount > 0) {\r\n            swapBNBForTokens(amount);\r\n        }\r\n    }\r\n\r\n    function swapTokensForBNB(uint256 tokenAmount) private {\r\n        // generate the uniswap pair path of token -> weth\r\n        address[] memory path = new address[](2);\r\n        path[0] = address(this);\r\n        path[1] = pcsV2Router.WETH();\r\n\r\n        _approve(address(this), address(pcsV2Router), tokenAmount);\r\n\r\n        // make the swap\r\n        pcsV2Router.swapExactTokensForETHSupportingFeeOnTransferTokens(\r\n            tokenAmount,\r\n            0, // accept any amount of ETH\r\n            path,\r\n            address(this),\r\n            block.timestamp\r\n        );\r\n    }\r\n\r\n    function swapBNBForTokens(uint256 amount) private {\r\n        // generate the uniswap pair path of token -> weth\r\n        address[] memory path = new address[](2);\r\n        path[0] = pcsV2Router.WETH();\r\n        path[1] = address(this);\r\n\r\n        // make the swap\r\n        pcsV2Router.swapExactETHForTokensSupportingFeeOnTransferTokens{value: amount}(\r\n            0, // accept any amount of Tokens\r\n            path,\r\n            DEAD, // Burn address\r\n            block.timestamp.add(300)\r\n        );        \r\n    }\r\n\r\n    //this method is responsible for taking all fee, if takeFee is true\r\n    function _tokenTransfer(address sender, address recipient, uint256 amount,bool takeFee) private {\r\n        if (!takeFee)\r\n            removeAllFee();\r\n        \r\n        if (_isExcluded[sender] && !_isExcluded[recipient]) {\r\n            _transferFromExcluded(sender, recipient, amount);\r\n        } else if (!_isExcluded[sender] && _isExcluded[recipient]) {\r\n            _transferToExcluded(sender, recipient, amount);\r\n        } else if (!_isExcluded[sender] && !_isExcluded[recipient]) {\r\n            _transferStandard(sender, recipient, amount);\r\n        } else if (_isExcluded[sender] && _isExcluded[recipient]) {\r\n            _transferBothExcluded(sender, recipient, amount);\r\n        } else {\r\n            _transferStandard(sender, recipient, amount);\r\n        }\r\n        \r\n        if (!takeFee)\r\n            restoreAllFee();\r\n    }\r\n\r\n    function _transferStandard(address sender, address recipient, uint256 tAmount) private {\r\n        (uint256 rAmount, uint256 rTransferAmount, uint256 rFee, uint256 tTransferAmount, uint256 tFee, uint256 tBuyback) = _getValues(tAmount);\r\n        _rOwned[sender] = _rOwned[sender].sub(rAmount);\r\n        _rOwned[recipient] = _rOwned[recipient].add(rTransferAmount);\r\n        _takeBuyback(tBuyback);\r\n        _reflectFee(rFee, tFee);\r\n\r\n        emit Transfer(sender, recipient, tTransferAmount);\r\n    }\r\n\r\n    function _transferToExcluded(address sender, address recipient, uint256 tAmount) private {\r\n        (uint256 rAmount, uint256 rTransferAmount, uint256 rFee, uint256 tTransferAmount, uint256 tFee, uint256 tBuyback) = _getValues(tAmount);\r\n        _rOwned[sender] = _rOwned[sender].sub(rAmount);\r\n        _tOwned[recipient] = _tOwned[recipient].add(tTransferAmount);\r\n        _rOwned[recipient] = _rOwned[recipient].add(rTransferAmount);           \r\n        _takeBuyback(tBuyback);\r\n        _reflectFee(rFee, tFee);\r\n\r\n        emit Transfer(sender, recipient, tTransferAmount);\r\n    }\r\n\r\n    function _transferFromExcluded(address sender, address recipient, uint256 tAmount) private {\r\n        (uint256 rAmount, uint256 rTransferAmount, uint256 rFee, uint256 tTransferAmount, uint256 tFee, uint256 tBuyback) = _getValues(tAmount);\r\n        _tOwned[sender] = _tOwned[sender].sub(tAmount);\r\n        _rOwned[sender] = _rOwned[sender].sub(rAmount);\r\n        _rOwned[recipient] = _rOwned[recipient].add(rTransferAmount);   \r\n        _takeBuyback(tBuyback);\r\n        _reflectFee(rFee, tFee);\r\n\r\n        emit Transfer(sender, recipient, tTransferAmount);\r\n    }\r\n\r\n    function _transferBothExcluded(address sender, address recipient, uint256 tAmount) private {\r\n        (uint256 rAmount, uint256 rTransferAmount, uint256 rFee, uint256 tTransferAmount, uint256 tFee, uint256 tBuyback) = _getValues(tAmount);\r\n        _tOwned[sender] = _tOwned[sender].sub(tAmount);\r\n        _rOwned[sender] = _rOwned[sender].sub(rAmount);\r\n        _tOwned[recipient] = _tOwned[recipient].add(tTransferAmount);\r\n        _rOwned[recipient] = _rOwned[recipient].add(rTransferAmount);        \r\n        _takeBuyback(tBuyback);\r\n        _reflectFee(rFee, tFee);\r\n\r\n        emit Transfer(sender, recipient, tTransferAmount);\r\n    }\r\n\r\n    function _tokenTransferNoFee(address sender, address recipient, uint256 amount) private {\r\n        uint256 currentRate =  _getRate();  \r\n        uint256 rAmount = amount.mul(currentRate);   \r\n\r\n        _rOwned[sender] = _rOwned[sender].sub(rAmount);\r\n        _rOwned[recipient] = _rOwned[recipient].add(rAmount); \r\n        \r\n        if (_isExcluded[sender]) {\r\n            _tOwned[sender] = _tOwned[sender].sub(amount);\r\n        } \r\n        if (_isExcluded[recipient]) {\r\n            _tOwned[recipient] = _tOwned[recipient].add(amount);\r\n        } \r\n\r\n        emit Transfer(sender, recipient, amount);\r\n    }\r\n\r\n    function isBlockedBot(address account) public view returns (bool) {\r\n        return _isBot[account];\r\n    }\r\n    \r\n    function blockedBot(address account) public onlyOwner() {\r\n        require(account != ROUTER, 'MAPPY_antoBot: We can not blacklist swap router.');\r\n        require(!_isBot[account], \"MAPPY_antoBot: Account is already blacklisted.\");\r\n\r\n        _isBot[account] = true;\r\n        _blockedBots.push(account);\r\n    }\r\n\r\n    function freeAccount(address account) public onlyOwner() {\r\n        require(_isBot[account], \"MAPPY_antoBot: Account is not blacklisted.\");\r\n\r\n        for (uint256 i = 0; i < _blockedBots.length; i++) {\r\n            if (_blockedBots[i] == account) {\r\n                _blockedBots[i] = _blockedBots[_blockedBots.length - 1];\r\n\r\n                _isBot[account] = false;\r\n                _blockedBots.pop();\r\n                break;\r\n            }\r\n        }\r\n    }\r\n\r\n    function startTrading() public onlyOwner() {\r\n        _taxFee = 1;\r\n        _buybackFee = 1;\r\n\r\n        tradingEnabled = true;\r\n        tradingTime = block.timestamp;\r\n    }\r\n\r\n    function recoverBEP20(address tokenAddress, uint256 tokenAmount) public onlyOwner {\r\n        // do not allow recovering self token\r\n        require(tokenAddress != address(this), \"Self withdraw\");\r\n        IERC20(tokenAddress).transfer(owner(), tokenAmount);\r\n    }\r\n\r\n    function _mint(address receiver, uint256 amount) private {\r\n        require(amount + totalSupply() <= MAX_MINT, \"MAPPY_mint: Cannot mint this amount. Exceeds max supply.\");\r\n        require(amount % BASE_MINT == 0, \"MAPPY_mint: Cannot mint this amount.\");\r\n\r\n        uint256 _rate = _getRate();\r\n\r\n        _tTotal = _tTotal.add(amount); // Increase tTotal\r\n        _rTotal = _rTotal.add(amount.mul(_rate)); // rTotal should be increased as well\r\n\r\n        _rOwned[receiver] = _rOwned[receiver].add(amount.mul(_rate));\r\n\r\n        if(_isExcluded[receiver]){\r\n            _tOwned[receiver] = _tOwned[receiver].add(amount);\r\n        }\r\n\r\n        emit Transfer(address(0), receiver, amount);\r\n    }\r\n\r\n    function _burn(uint256 amount) private {\r\n        require(amount % BASE_MINT == 0, \"MAPPY_burn: Cannot burn this amount.\");\r\n\r\n        address sender = _msgSender();\r\n\r\n        uint256 _rate = _getRate();\r\n\r\n        _tTotal = _tTotal.sub(amount); // Decrease tTotal\r\n        _rTotal = _rTotal.sub(amount.mul(_rate)); // rTotal should be decreased as well\r\n\r\n        _rOwned[sender] =  _rOwned[sender].sub(amount.mul(_rate));\r\n        if(_isExcluded[sender]){\r\n            _tOwned[sender] = _tOwned[sender].sub(amount);\r\n        }\r\n\r\n        emit Transfer(sender, address(0), amount);\r\n    }\r\n\r\n    //to recieve ETH from pcsV2Router when swaping\r\n    receive() external payable {}\r\n}",
  "sourcePath": "F:\\Cory_Career\\Stan_M\\mappycoin-dashboard\\contracts\\MappyToken_ERC20\\Mappy.sol",
  "compiler": {
    "name": "solc",
    "version": "0.8.12+commit.f00d7308.Emscripten.clang"
  },
  "schemaVersion": "3.4.3",
  "updatedAt": "2022-02-24T00:21:02.765Z",
  "devdoc": {
    "kind": "dev",
    "methods": {
      "allowance(address,address)": {
        "details": "Returns the remaining number of tokens that `spender` will be allowed to spend on behalf of `owner` through {transferFrom}. This is zero by default. This value changes when {approve} or {transferFrom} are called."
      },
      "approve(address,uint256)": {
        "details": "Sets `amount` as the allowance of `spender` over the caller's tokens. Returns a boolean value indicating whether the operation succeeded. IMPORTANT: Beware that changing an allowance with this method brings the risk that someone may use both the old and the new allowance by unfortunate transaction ordering. One possible solution to mitigate this race condition is to first reduce the spender's allowance to 0 and set the desired value afterwards: https://github.com/ethereum/EIPs/issues/20#issuecomment-263524729 Emits an {Approval} event."
      },
      "balanceOf(address)": {
        "details": "Returns the amount of tokens owned by `account`."
      },
      "owner()": {
        "details": "Returns the address of the current owner."
      },
      "paused()": {
        "details": "Returns true if the contract is paused, and false otherwise."
      },
      "renounceOwnership()": {
        "details": "Leaves the contract without owner. It will not be possible to call `onlyOwner` functions anymore. Can only be called by the current owner. NOTE: Renouncing ownership will leave the contract without an owner, thereby removing any functionality that is only available to the owner."
      },
      "totalSupply()": {
        "details": "Returns the amount of tokens in existence."
      },
      "transfer(address,uint256)": {
        "details": "Moves `amount` tokens from the caller's account to `recipient`. Returns a boolean value indicating whether the operation succeeded. Emits a {Transfer} event."
      },
      "transferFrom(address,address,uint256)": {
        "details": "Moves `amount` tokens from `sender` to `recipient` using the allowance mechanism. `amount` is then deducted from the caller's allowance. Returns a boolean value indicating whether the operation succeeded. Emits a {Transfer} event."
      },
      "transferOwnership(address)": {
        "details": "Transfers ownership of the contract to a new account (`newOwner`). Can only be called by the current owner."
      }
    },
    "version": 1
  },
  "userdoc": {
    "kind": "user",
    "methods": {},
    "version": 1
  }
}