{
  "contractName": "MappyFarmingPool",
  "abi": [
    {
      "inputs": [
        {
          "internalType": "contract IERC20",
          "name": "_mappy",
          "type": "address"
        },
        {
          "internalType": "address",
          "name": "_devaddr",
          "type": "address"
        },
        {
          "internalType": "address",
          "name": "_defiController",
          "type": "address"
        },
        {
          "internalType": "uint256",
          "name": "_mappyPerBlock",
          "type": "uint256"
        },
        {
          "internalType": "uint256",
          "name": "_startBlock",
          "type": "uint256"
        }
      ],
      "stateMutability": "nonpayable",
      "type": "constructor"
    },
    {
      "anonymous": false,
      "inputs": [
        {
          "indexed": true,
          "internalType": "address",
          "name": "user",
          "type": "address"
        },
        {
          "indexed": true,
          "internalType": "uint256",
          "name": "pid",
          "type": "uint256"
        },
        {
          "indexed": false,
          "internalType": "uint256",
          "name": "amount",
          "type": "uint256"
        }
      ],
      "name": "Deposit",
      "type": "event"
    },
    {
      "anonymous": false,
      "inputs": [
        {
          "indexed": true,
          "internalType": "address",
          "name": "user",
          "type": "address"
        },
        {
          "indexed": true,
          "internalType": "uint256",
          "name": "pid",
          "type": "uint256"
        },
        {
          "indexed": false,
          "internalType": "uint256",
          "name": "amount",
          "type": "uint256"
        }
      ],
      "name": "EmergencyWithdraw",
      "type": "event"
    },
    {
      "anonymous": false,
      "inputs": [
        {
          "indexed": true,
          "internalType": "address",
          "name": "previousOwner",
          "type": "address"
        },
        {
          "indexed": true,
          "internalType": "address",
          "name": "newOwner",
          "type": "address"
        }
      ],
      "name": "OwnershipTransferred",
      "type": "event"
    },
    {
      "anonymous": false,
      "inputs": [
        {
          "indexed": false,
          "internalType": "address",
          "name": "defiController",
          "type": "address"
        }
      ],
      "name": "SetDefiController",
      "type": "event"
    },
    {
      "anonymous": false,
      "inputs": [
        {
          "indexed": false,
          "internalType": "uint256",
          "name": "mappyPerBlock",
          "type": "uint256"
        }
      ],
      "name": "SetMappyPerBlock",
      "type": "event"
    },
    {
      "anonymous": false,
      "inputs": [
        {
          "indexed": false,
          "internalType": "address",
          "name": "reservoir",
          "type": "address"
        }
      ],
      "name": "SetMappyReservoir",
      "type": "event"
    },
    {
      "anonymous": false,
      "inputs": [
        {
          "indexed": true,
          "internalType": "address",
          "name": "user",
          "type": "address"
        },
        {
          "indexed": true,
          "internalType": "uint256",
          "name": "pid",
          "type": "uint256"
        },
        {
          "indexed": false,
          "internalType": "uint256",
          "name": "amount",
          "type": "uint256"
        }
      ],
      "name": "Withdraw",
      "type": "event"
    },
    {
      "inputs": [],
      "name": "defiController",
      "outputs": [
        {
          "internalType": "address",
          "name": "",
          "type": "address"
        }
      ],
      "stateMutability": "view",
      "type": "function"
    },
    {
      "inputs": [],
      "name": "devaddr",
      "outputs": [
        {
          "internalType": "address",
          "name": "",
          "type": "address"
        }
      ],
      "stateMutability": "view",
      "type": "function"
    },
    {
      "inputs": [],
      "name": "mappy",
      "outputs": [
        {
          "internalType": "contract IERC20",
          "name": "",
          "type": "address"
        }
      ],
      "stateMutability": "view",
      "type": "function"
    },
    {
      "inputs": [],
      "name": "mappyPerBlock",
      "outputs": [
        {
          "internalType": "uint256",
          "name": "",
          "type": "uint256"
        }
      ],
      "stateMutability": "view",
      "type": "function"
    },
    {
      "inputs": [],
      "name": "mappyReservoir",
      "outputs": [
        {
          "internalType": "contract IReservoir",
          "name": "",
          "type": "address"
        }
      ],
      "stateMutability": "view",
      "type": "function"
    },
    {
      "inputs": [],
      "name": "owner",
      "outputs": [
        {
          "internalType": "address",
          "name": "",
          "type": "address"
        }
      ],
      "stateMutability": "view",
      "type": "function"
    },
    {
      "inputs": [
        {
          "internalType": "uint256",
          "name": "",
          "type": "uint256"
        }
      ],
      "name": "poolInfo",
      "outputs": [
        {
          "internalType": "contract IERC20",
          "name": "lpToken",
          "type": "address"
        },
        {
          "internalType": "uint256",
          "name": "allocPoint",
          "type": "uint256"
        },
        {
          "internalType": "uint256",
          "name": "lastRewardBlock",
          "type": "uint256"
        },
        {
          "internalType": "uint256",
          "name": "accMappyPerShare",
          "type": "uint256"
        }
      ],
      "stateMutability": "view",
      "type": "function"
    },
    {
      "inputs": [],
      "name": "renounceOwnership",
      "outputs": [],
      "stateMutability": "nonpayable",
      "type": "function"
    },
    {
      "inputs": [],
      "name": "startBlock",
      "outputs": [
        {
          "internalType": "uint256",
          "name": "",
          "type": "uint256"
        }
      ],
      "stateMutability": "view",
      "type": "function"
    },
    {
      "inputs": [],
      "name": "totalAllocPoint",
      "outputs": [
        {
          "internalType": "uint256",
          "name": "",
          "type": "uint256"
        }
      ],
      "stateMutability": "view",
      "type": "function"
    },
    {
      "inputs": [
        {
          "internalType": "address",
          "name": "newOwner",
          "type": "address"
        }
      ],
      "name": "transferOwnership",
      "outputs": [],
      "stateMutability": "nonpayable",
      "type": "function"
    },
    {
      "inputs": [
        {
          "internalType": "uint256",
          "name": "",
          "type": "uint256"
        },
        {
          "internalType": "address",
          "name": "",
          "type": "address"
        }
      ],
      "name": "userInfo",
      "outputs": [
        {
          "internalType": "uint256",
          "name": "amount",
          "type": "uint256"
        },
        {
          "internalType": "uint256",
          "name": "rewardDebt",
          "type": "uint256"
        }
      ],
      "stateMutability": "view",
      "type": "function"
    },
    {
      "inputs": [],
      "name": "poolLength",
      "outputs": [
        {
          "internalType": "uint256",
          "name": "",
          "type": "uint256"
        }
      ],
      "stateMutability": "view",
      "type": "function"
    },
    {
      "inputs": [
        {
          "internalType": "uint256",
          "name": "_allocPoint",
          "type": "uint256"
        },
        {
          "internalType": "contract IERC20",
          "name": "_lpToken",
          "type": "address"
        },
        {
          "internalType": "bool",
          "name": "_withUpdate",
          "type": "bool"
        }
      ],
      "name": "add",
      "outputs": [],
      "stateMutability": "nonpayable",
      "type": "function"
    },
    {
      "inputs": [
        {
          "internalType": "uint256",
          "name": "_pid",
          "type": "uint256"
        },
        {
          "internalType": "uint256",
          "name": "_allocPoint",
          "type": "uint256"
        },
        {
          "internalType": "bool",
          "name": "_withUpdate",
          "type": "bool"
        }
      ],
      "name": "set",
      "outputs": [],
      "stateMutability": "nonpayable",
      "type": "function"
    },
    {
      "inputs": [
        {
          "internalType": "contract IReservoir",
          "name": "_mappyReservoir",
          "type": "address"
        }
      ],
      "name": "setMappyReservoir",
      "outputs": [],
      "stateMutability": "nonpayable",
      "type": "function"
    },
    {
      "inputs": [
        {
          "internalType": "uint256",
          "name": "_mappyPerBlock",
          "type": "uint256"
        }
      ],
      "name": "setMappyPerBlock",
      "outputs": [],
      "stateMutability": "nonpayable",
      "type": "function"
    },
    {
      "inputs": [
        {
          "internalType": "address",
          "name": "_defiController",
          "type": "address"
        }
      ],
      "name": "setDefiController",
      "outputs": [],
      "stateMutability": "nonpayable",
      "type": "function"
    },
    {
      "inputs": [
        {
          "internalType": "uint256",
          "name": "_from",
          "type": "uint256"
        },
        {
          "internalType": "uint256",
          "name": "_to",
          "type": "uint256"
        }
      ],
      "name": "getMultiplier",
      "outputs": [
        {
          "internalType": "uint256",
          "name": "",
          "type": "uint256"
        }
      ],
      "stateMutability": "pure",
      "type": "function"
    },
    {
      "inputs": [
        {
          "internalType": "uint256",
          "name": "_pid",
          "type": "uint256"
        },
        {
          "internalType": "address",
          "name": "_user",
          "type": "address"
        }
      ],
      "name": "pendingMappy",
      "outputs": [
        {
          "internalType": "uint256",
          "name": "",
          "type": "uint256"
        }
      ],
      "stateMutability": "view",
      "type": "function"
    },
    {
      "inputs": [],
      "name": "massUpdatePools",
      "outputs": [],
      "stateMutability": "nonpayable",
      "type": "function"
    },
    {
      "inputs": [
        {
          "internalType": "uint256",
          "name": "_pid",
          "type": "uint256"
        }
      ],
      "name": "updatePool",
      "outputs": [],
      "stateMutability": "nonpayable",
      "type": "function"
    },
    {
      "inputs": [
        {
          "internalType": "uint256",
          "name": "_pid",
          "type": "uint256"
        },
        {
          "internalType": "uint256",
          "name": "_amount",
          "type": "uint256"
        }
      ],
      "name": "deposit",
      "outputs": [],
      "stateMutability": "nonpayable",
      "type": "function"
    },
    {
      "inputs": [
        {
          "internalType": "uint256",
          "name": "_pid",
          "type": "uint256"
        },
        {
          "internalType": "uint256",
          "name": "_amount",
          "type": "uint256"
        }
      ],
      "name": "withdraw",
      "outputs": [],
      "stateMutability": "nonpayable",
      "type": "function"
    },
    {
      "inputs": [
        {
          "internalType": "uint256",
          "name": "_pid",
          "type": "uint256"
        }
      ],
      "name": "emergencyWithdraw",
      "outputs": [],
      "stateMutability": "nonpayable",
      "type": "function"
    },
    {
      "inputs": [
        {
          "internalType": "address",
          "name": "_devaddr",
          "type": "address"
        }
      ],
      "name": "updateDev",
      "outputs": [],
      "stateMutability": "nonpayable",
      "type": "function"
    }
  ],
  "bytecode": "0x608060405260006006553480156200001657600080fd5b5060405162001b4538038062001b45833981016040819052620000399162000184565b620000443362000091565b600180546001600160a01b03199081166001600160a01b03978816179091556002805482169587169590951790945560098054909416929094169190911790915560035560075562000225565b60006200009d6200011b565b600080546001810182558180527f290decd9548b62a8d60345a988386fc84ba6bc95484008f6362f93160ef3e5630180546001600160a01b0319166001600160a01b0386811691821790925560405193945092908416917f8be0079c531659141344cd1fd0a4f28419497f9722a3daafe3b4186f6b6457e091a35050565b6000805480156200016357600062000135600183620001e9565b815481106200014857620001486200020f565b6000918252602090912001546001600160a01b031692915050565b600091505090565b6001600160a01b03811681146200018157600080fd5b50565b600080600080600060a086880312156200019d57600080fd5b8551620001aa816200016b565b6020870151909550620001bd816200016b565b6040870151909450620001d0816200016b565b6060870151608090970151959894975095949392505050565b6000828210156200020a57634e487b7160e01b600052601160045260246000fd5b500390565b634e487b7160e01b600052603260045260246000fd5b61191080620002356000396000f3fe608060405234801561001057600080fd5b506004361061018e5760003560e01c806364482f79116100de57806393f1a40b11610097578063e2bbb15811610071578063e2bbb15814610372578063e596e8a814610385578063f2fde38b14610398578063fca00762146103ab57600080fd5b806393f1a40b14610305578063b9c52f691461034c578063d49e77cd1461035f57600080fd5b806364482f79146102a9578063715018a6146102bc578063809eea49146102c45780638da5cb5b146102d75780638dbb1e3a146102df578063934c1938146102f257600080fd5b80631eaaa0451161014b57806348cd4cb11161012557806348cd4cb11461027257806351eb05a61461027b5780635312ea8e1461028e578063630b5ba1146102a157600080fd5b80631eaaa04514610221578063441a3e701461023457806346144c8f1461024757600080fd5b8063081e3eda1461019357806308fd4d3f146101aa578063106f432f146101bf5780631526fe27146101d257806317caf6f11461020f5780631d42806214610218575b600080fd5b6004545b6040519081526020015b60405180910390f35b6101bd6101b83660046115f1565b6103be565b005b6101bd6101cd3660046115f1565b610445565b6101e56101e036600461160e565b6104bc565b604080516001600160a01b03909516855260208501939093529183015260608201526080016101a1565b61019760065481565b61019760035481565b6101bd61022f366004611635565b610500565b6101bd610242366004611677565b6106f6565b60095461025a906001600160a01b031681565b6040516001600160a01b0390911681526020016101a1565b61019760075481565b6101bd61028936600461160e565b61085c565b6101bd61029c36600461160e565b610aa2565b6101bd610b45565b6101bd6102b7366004611699565b610b70565b6101bd610c1e565b6101976102d23660046116c7565b610c53565b61025a610dd1565b6101976102ed366004611677565b610e1b565b6101bd6103003660046115f1565b610e2e565b6103376103133660046116c7565b60056020908152600092835260408084209091529082529020805460019091015482565b604080519283526020830191909152016101a1565b6101bd61035a36600461160e565b610eaa565b60025461025a906001600160a01b031681565b6101bd610380366004611677565b610f08565b60015461025a906001600160a01b031681565b6101bd6103a63660046115f1565b61101d565b60085461025a906001600160a01b031681565b6103c6611078565b15156001146103f05760405162461bcd60e51b81526004016103e7906116f7565b60405180910390fd5b600880546001600160a01b0319166001600160a01b0383169081179091556040519081527faec0d6886208309db3cf9ed773aa333191a4f9279aa38082c7e06ade84eb276e906020015b60405180910390a150565b61044d611078565b151560011461046e5760405162461bcd60e51b81526004016103e7906116f7565b600980546001600160a01b0319166001600160a01b0383169081179091556040519081527f5059e3a74ca94b6029930cf4fbe1291d9baeb6f1265557d6f6ac1081f48e336c9060200161043a565b600481815481106104cc57600080fd5b600091825260209091206004909102018054600182015460028301546003909301546001600160a01b039092169350919084565b610508611078565b15156001146105295760405162461bcd60e51b81526004016103e7906116f7565b6001600160a01b0382166000908152600a602052604090205460ff16156105ac5760405162461bcd60e51b815260206004820152603160248201527f4d617070794661726d696e67506f6f6c3a204c5020746f6b656e2068617320616044820152701b1c9958591e481899595b881859191959607a1b60648201526084016103e7565b6001600160a01b0382166000908152600a60205260409020805460ff1916600117905580156105dd576105dd610b45565b600060075443116105f0576007546105f2565b435b60065490915061060290856110fa565b600655604080516080810182526001600160a01b03948516815260208101958652908101918252600060608201818152600480546001810182559281905292517f8a35acfbc15ff81a39ae7d344fd709f28e8600b4aa8c65c6b64bfe7fe36bd19b9290930291820180546001600160a01b031916939096169290921790945593517f8a35acfbc15ff81a39ae7d344fd709f28e8600b4aa8c65c6b64bfe7fe36bd19c840155517f8a35acfbc15ff81a39ae7d344fd709f28e8600b4aa8c65c6b64bfe7fe36bd19d8301555090517f8a35acfbc15ff81a39ae7d344fd709f28e8600b4aa8c65c6b64bfe7fe36bd19e90910155565b60006004838154811061070b5761070b61172c565b6000918252602080832086845260058252604080852033865290925292208054600490920290920192508311156107795760405162461bcd60e51b81526020600482015260126024820152711dda5d1a191c985dce881b9bdd0819dbdbd960721b60448201526064016103e7565b6107828461085c565b60006107bf82600101546107b9670de0b6b3a76400006107b38760030154876000015461110690919063ffffffff16565b90611112565b9061111e565b905080156107d1576107d1338261112a565b83156107fb5781546107e3908561111e565b825582546107fb906001600160a01b0316338661125d565b6003830154825461081991670de0b6b3a7640000916107b391611106565b6001830155604051848152859033907ff279e6a1f5e320cca91135676d9cb6e44ca8a08c0b88342bcdb1144f6511b5689060200160405180910390a35050505050565b6000600482815481106108715761087161172c565b9060005260206000209060040201905080600201544311610890575050565b80546040516370a0823160e01b81523060048201526000916001600160a01b0316906370a0823190602401602060405180830381865afa1580156108d8573d6000803e3d6000fd5b505050506040513d601f19601f820116820180604052508101906108fc9190611742565b90508061090e57504360029091015550565b600061091e836002015443610e1b565b9050600061094b6006546107b386600101546109456003548761110690919063ffffffff16565b90611106565b600854604051632c1935bd60e11b8152600481018390529192506001600160a01b0316906358326b7a906024016020604051808303816000875af1158015610997573d6000803e3d6000fd5b505050506040513d601f19601f820116820180604052508101906109bb9190611742565b6001546002549192506001600160a01b039081169163a9059cbb91166109e284600a611112565b6040516001600160e01b031960e085901b1681526001600160a01b03909216600483015260248201526044016020604051808303816000875af1158015610a2d573d6000803e3d6000fd5b505050506040513d601f19601f82011682018060405250810190610a51919061175b565b50610a67610a6082600a611112565b829061111e565b9050610a8d610a82846107b384670de0b6b3a7640000611106565b6003860154906110fa565b60038501555050436002909201919091555050565b600060048281548110610ab757610ab761172c565b600091825260208083208584526005825260408085203380875293528420805485825560018201959095556004909302018054909450919291610b07916001600160a01b0391909116908361125d565b604051818152849033907fbb757047c2b5f3974fe26b7c10f732e7bce710b0952a71082702781e62ae0595906020015b60405180910390a350505050565b60045460005b81811015610b6c57610b5c8161085c565b610b658161178e565b9050610b4b565b5050565b610b78611078565b1515600114610b995760405162461bcd60e51b81526004016103e7906116f7565b8015610ba757610ba7610b45565b610bea82610be460048681548110610bc157610bc161172c565b90600052602060002090600402016001015460065461111e90919063ffffffff16565b906110fa565b6006819055508160048481548110610c0457610c0461172c565b906000526020600020906004020160010181905550505050565b610c26611078565b1515600114610c475760405162461bcd60e51b81526004016103e7906116f7565b610c5160006112c0565b565b60008060048481548110610c6957610c6961172c565b600091825260208083208784526005825260408085206001600160a01b038981168752935280852060049485029092016003810154815492516370a0823160e01b8152309681019690965290965091949193919216906370a0823190602401602060405180830381865afa158015610ce5573d6000803e3d6000fd5b505050506040513d601f19601f82011682018060405250810190610d099190611742565b9050836002015443118015610d1d57508015155b15610d9b576000610d32856002015443610e1b565b90506000610d596006546107b388600101546109456003548761110690919063ffffffff16565b9050610d6481611348565b9050610d74610a6082600a611112565b9050610d96610d8f846107b384670de0b6b3a7640000611106565b85906110fa565b935050505b610dc683600101546107b9670de0b6b3a76400006107b386886000015461110690919063ffffffff16565b979650505050505050565b600080548015610e13576000610de86001836117a9565b81548110610df857610df861172c565b6000918252602090912001546001600160a01b031692915050565b600091505090565b6000610e27828461111e565b9392505050565b6002546001600160a01b03163314610e885760405162461bcd60e51b815260206004820152601c60248201527f7570646174654465763a207065726d697373696f6e2064656e6965640000000060448201526064016103e7565b600280546001600160a01b0319166001600160a01b0392909216919091179055565b610eb2611078565b1515600114610ed35760405162461bcd60e51b81526004016103e7906116f7565b60038190556040518181527f41a7999368d705a5ef6c6d7c8515ed9fb1036f7c69649642b3131dcce70402d49060200161043a565b600060048381548110610f1d57610f1d61172c565b60009182526020808320868452600582526040808520338652909252922060049091029091019150610f4e8461085c565b805415610f9a576000610f8682600101546107b9670de0b6b3a76400006107b38760030154876000015461110690919063ffffffff16565b90508015610f9857610f98338261112a565b505b8215610fc6578154610fb7906001600160a01b03163330866113d7565b8054610fc390846110fa565b81555b60038201548154610fe491670de0b6b3a7640000916107b391611106565b6001820155604051838152849033907f90890809c654f11d6e72a28fa60149770a0d11ec6c92319d6ceb2bb0a4ea1a1590602001610b37565b611025611078565b15156001146110465760405162461bcd60e51b81526004016103e7906116f7565b6001600160a01b03811661106c5760405162461bcd60e51b81526004016103e7906117c0565b611075816112c0565b50565b6000336110975760405162461bcd60e51b81526004016103e7906117c0565b6000805b6000548110156110f457336001600160a01b0316600082815481106110c2576110c261172c565b6000918252602090912001546001600160a01b031614156110e257600191505b806110ec8161178e565b91505061109b565b50919050565b6000610e278284611806565b6000610e27828461181e565b6000610e27828461183d565b6000610e2782846117a9565b6001546040516370a0823160e01b81523060048201526000916001600160a01b0316906370a0823190602401602060405180830381865afa158015611173573d6000803e3d6000fd5b505050506040513d601f19601f820116820180604052508101906111979190611742565b90508082111561121f5760015460405163a9059cbb60e01b81526001600160a01b038581166004830152602482018490529091169063a9059cbb906044015b6020604051808303816000875af11580156111f5573d6000803e3d6000fd5b505050506040513d601f19601f82011682018060405250810190611219919061175b565b50505050565b60015460405163a9059cbb60e01b81526001600160a01b038581166004830152602482018590529091169063a9059cbb906044016111d6565b505050565b6040516001600160a01b03831660248201526044810182905261125890849063a9059cbb60e01b906064015b60408051601f198184030181529190526020810180516001600160e01b03166001600160e01b03199093169290921790915261140f565b60006112ca610dd1565b600080546001810182558180527f290decd9548b62a8d60345a988386fc84ba6bc95484008f6362f93160ef3e5630180546001600160a01b0319166001600160a01b0386811691821790925560405193945092908416917f8be0079c531659141344cd1fd0a4f28419497f9722a3daafe3b4186f6b6457e091a35050565b6001546008546040516370a0823160e01b81526001600160a01b039182166004820152600092839216906370a0823190602401602060405180830381865afa158015611398573d6000803e3d6000fd5b505050506040513d601f19601f820116820180604052508101906113bc9190611742565b905060008184116113cd57836113cf565b815b949350505050565b6040516001600160a01b03808516602483015283166044820152606481018290526112199085906323b872dd60e01b90608401611289565b6000611464826040518060400160405280602081526020017f5361666545524332303a206c6f772d6c6576656c2063616c6c206661696c6564815250856001600160a01b03166114e19092919063ffffffff16565b8051909150156112585780806020019051810190611482919061175b565b6112585760405162461bcd60e51b815260206004820152602a60248201527f5361666545524332303a204552433230206f7065726174696f6e20646964206e6044820152691bdd081cdd58d8d9595960b21b60648201526084016103e7565b60606113cf848460008585843b61153a5760405162461bcd60e51b815260206004820152601d60248201527f416464726573733a2063616c6c20746f206e6f6e2d636f6e747261637400000060448201526064016103e7565b600080866001600160a01b03168587604051611556919061188b565b60006040518083038185875af1925050503d8060008114611593576040519150601f19603f3d011682016040523d82523d6000602084013e611598565b606091505b5091509150610dc6828286606083156115b2575081610e27565b8251156115c25782518084602001fd5b8160405162461bcd60e51b81526004016103e791906118a7565b6001600160a01b038116811461107557600080fd5b60006020828403121561160357600080fd5b8135610e27816115dc565b60006020828403121561162057600080fd5b5035919050565b801515811461107557600080fd5b60008060006060848603121561164a57600080fd5b83359250602084013561165c816115dc565b9150604084013561166c81611627565b809150509250925092565b6000806040838503121561168a57600080fd5b50508035926020909101359150565b6000806000606084860312156116ae57600080fd5b8335925060208401359150604084013561166c81611627565b600080604083850312156116da57600080fd5b8235915060208301356116ec816115dc565b809150509250929050565b6020808252818101527f4f776e61626c653a2063616c6c6572206973206e6f7420746865206f776e6572604082015260600190565b634e487b7160e01b600052603260045260246000fd5b60006020828403121561175457600080fd5b5051919050565b60006020828403121561176d57600080fd5b8151610e2781611627565b634e487b7160e01b600052601160045260246000fd5b60006000198214156117a2576117a2611778565b5060010190565b6000828210156117bb576117bb611778565b500390565b60208082526026908201527f4f776e61626c653a206e6577206f776e657220697320746865207a65726f206160408201526564647265737360d01b606082015260800190565b6000821982111561181957611819611778565b500190565b600081600019048311821515161561183857611838611778565b500290565b60008261185a57634e487b7160e01b600052601260045260246000fd5b500490565b60005b8381101561187a578181015183820152602001611862565b838111156112195750506000910152565b6000825161189d81846020870161185f565b9190910192915050565b60208152600082518060208401526118c681604085016020870161185f565b601f01601f1916919091016040019291505056fea26469706673582212203562a4514bb86d4ed934bf08f2f607a3a42d5600cca138a2b2ccfb691ced88c964736f6c634300080c0033",
  "immutableReferences": {},
  "source": "// SPDX-License-Identifier: MIT\r\n\r\npragma solidity ^0.8.10;\r\n\r\nimport \"@openzeppelin/contracts/token/ERC20/IERC20.sol\";\r\nimport \"@openzeppelin/contracts/token/ERC20/utils/SafeERC20.sol\";\r\nimport \"@openzeppelin/contracts/utils/math/SafeMath.sol\";\r\nimport \"@openzeppelin/contracts/access/Ownable.sol\";\r\n\r\nimport \"./interfaces/IReservoir.sol\";\r\n\r\n/**\r\n *  Based on Sushi MasterChef:\r\n *  https://github.com/sushiswap/sushiswap/blob/1e4db47fa313f84cd242e17a4972ec1e9755609a/contracts/MasterChef.sol\r\n *\r\n *  XXX: Removed migration logic;\r\n *  XXX: Removed token minting and added token reservoir;\r\n *  XXX: Added check if LP token has already been added;\r\n *  XXX: Owner can update reservoir address and mappyPerBlock value;\r\n *  XXX: Removed bonus multiplier;\r\n *  XXX: Added defiController function to claim profit;\r\n *  XXX: Use 1e18 instead of 1e12 for accumulated tokens per share.\r\n */\r\n\r\ncontract MappyFarmingPool is Ownable {\r\n    using SafeMath for uint256;\r\n    using SafeERC20 for IERC20;\r\n\r\n    // Info of each user.\r\n    struct UserInfo {\r\n        uint256 amount;     // How many LP tokens the user has provided.\r\n        uint256 rewardDebt; // Reward debt. See explanation below.\r\n        //\r\n        // We do some fancy math here. Basically, any point in time, the amount of MAPPYs\r\n        // entitled to a user but is pending to be distributed is:\r\n        //\r\n        //   pending reward = (user.amount * pool.accMappyPerShare) - user.rewardDebt\r\n        //\r\n        // Whenever a user deposits or withdraws LP tokens to a pool. Here's what happens:\r\n        //   1. The pool's `accMappyPerShare` (and `lastRewardBlock`) gets updated.\r\n        //   2. User receives the pending reward sent to his/her address.\r\n        //   3. User's `amount` gets updated.\r\n        //   4. User's `rewardDebt` gets updated.\r\n    }\r\n\r\n    // Info of each pool.\r\n    struct PoolInfo {\r\n        IERC20 lpToken;           // Address of LP token contract.\r\n        uint256 allocPoint;       // How many allocation points assigned to this pool. MAPPYs to distribute per block.\r\n        uint256 lastRewardBlock;  // Last block number that MAPPYs distribution occurs.\r\n        uint256 accMappyPerShare;   // Accumulated MAPPYs per share, times 1e18. See below.\r\n    }\r\n\r\n    // The MAPPY TOKEN!\r\n    IERC20 public mappy;\r\n    // Dev address.\r\n    address public devaddr;\r\n    // MAPPY tokens created per block.\r\n    uint256 public mappyPerBlock;\r\n\r\n    // Info of each pool.\r\n    PoolInfo[] public poolInfo;\r\n    // Info of each user that stakes LP tokens.\r\n    mapping (uint256 => mapping(address => UserInfo)) public userInfo;\r\n    // Total allocation points. Must be the sum of all allocation points in all pools.\r\n    uint256 public totalAllocPoint = 0;\r\n    // The block number when MAPPY mining starts.\r\n    uint256 public startBlock;\r\n\r\n    // XXX: token reservoir.\r\n    IReservoir public mappyReservoir;\r\n\r\n    // XXX: allow to claim profit from tokenized startegy.\r\n    address public defiController;\r\n\r\n    // XXX: checking already added LP tokens.\r\n    mapping(address => bool) private lpTokens;\r\n\r\n    event Deposit(address indexed user, uint256 indexed pid, uint256 amount);\r\n    event Withdraw(address indexed user, uint256 indexed pid, uint256 amount);\r\n    event EmergencyWithdraw(address indexed user, uint256 indexed pid, uint256 amount);\r\n\r\n    event SetMappyReservoir(address reservoir); // XXX: set reservoir event\r\n    event SetMappyPerBlock(uint256 mappyPerBlock); // XXX: set mappyPerBlock event\r\n    event SetDefiController(address defiController); // XXX: set defiController event\r\n\r\n    constructor(\r\n        IERC20 _mappy,\r\n        address _devaddr,\r\n        address _defiController,\r\n        uint256 _mappyPerBlock,\r\n        uint256 _startBlock\r\n    ) public {\r\n        mappy = _mappy;\r\n        devaddr = _devaddr;\r\n        defiController = _defiController;\r\n        mappyPerBlock = _mappyPerBlock;\r\n        startBlock = _startBlock;\r\n    }\r\n\r\n    function poolLength() external view returns (uint256) {\r\n        return poolInfo.length;\r\n    }\r\n\r\n    // Add a new lp to the pool. Can only be called by the owner.\r\n    function add(uint256 _allocPoint, IERC20 _lpToken, bool _withUpdate) public onlyOwner {\r\n        // XXX: trying to add the same LP token more than once\r\n        require(!lpTokens[address(_lpToken)], \"MappyFarmingPool: LP token has already been added\");\r\n        lpTokens[address(_lpToken)] = true;\r\n\r\n        if (_withUpdate) {\r\n            massUpdatePools();\r\n        }\r\n        uint256 lastRewardBlock = block.number > startBlock ? block.number : startBlock;\r\n        totalAllocPoint = totalAllocPoint.add(_allocPoint);\r\n        poolInfo.push(PoolInfo({\r\n            lpToken: _lpToken,\r\n            allocPoint: _allocPoint,\r\n            lastRewardBlock: lastRewardBlock,\r\n            accMappyPerShare: 0\r\n        }));\r\n    }\r\n\r\n    // Update the given pool's MAPPY allocation point. Can only be called by the owner.\r\n    function set(uint256 _pid, uint256 _allocPoint, bool _withUpdate) public onlyOwner {\r\n        if (_withUpdate) {\r\n            massUpdatePools();\r\n        }\r\n        totalAllocPoint = totalAllocPoint.sub(poolInfo[_pid].allocPoint).add(_allocPoint);\r\n        poolInfo[_pid].allocPoint = _allocPoint;\r\n    }\r\n\r\n    // XXX: set mappyReservoir. Can only be called by the owner.\r\n    function setMappyReservoir(IReservoir _mappyReservoir) public onlyOwner {\r\n        mappyReservoir = _mappyReservoir;\r\n        emit SetMappyReservoir(address(_mappyReservoir));\r\n    }\r\n\r\n    // XXX: set mappyPerBlock. Can only be called by the owner.\r\n    function setMappyPerBlock(uint256 _mappyPerBlock) public onlyOwner {\r\n        mappyPerBlock = _mappyPerBlock;\r\n        emit SetMappyPerBlock(_mappyPerBlock);\r\n    }\r\n\r\n    // XXX: set defiController. Can only be called by the owner.\r\n    function setDefiController(address _defiController) public onlyOwner {\r\n        defiController = _defiController;\r\n        emit SetDefiController(_defiController);\r\n    }\r\n\r\n    // Return reward multiplier over the given _from to _to block.\r\n    function getMultiplier(uint256 _from, uint256 _to) public pure returns (uint256) {\r\n        return _to.sub(_from);\r\n    }\r\n\r\n    // View function to see pending MAPPYs on frontend.\r\n    function pendingMappy(uint256 _pid, address _user) external view returns (uint256) {\r\n        PoolInfo storage pool = poolInfo[_pid];\r\n        UserInfo storage user = userInfo[_pid][_user];\r\n        uint256 accMappyPerShare = pool.accMappyPerShare;\r\n        uint256 lpSupply = pool.lpToken.balanceOf(address(this));\r\n        if (block.number > pool.lastRewardBlock && lpSupply != 0) {\r\n            uint256 multiplier = getMultiplier(pool.lastRewardBlock, block.number);\r\n            uint256 mappyReward = multiplier.mul(mappyPerBlock).mul(pool.allocPoint).div(totalAllocPoint);\r\n            mappyReward = availableMappy(mappyReward); // XXX: amount available for transfer\r\n            mappyReward = mappyReward.sub(mappyReward.div(10)); // XXX: subtract tokens for dev\r\n            accMappyPerShare = accMappyPerShare.add(mappyReward.mul(1e18).div(lpSupply));\r\n        }\r\n        return user.amount.mul(accMappyPerShare).div(1e18).sub(user.rewardDebt);\r\n    }\r\n\r\n    // Update reward variables for all pools. Be careful of gas spending!\r\n    function massUpdatePools() public {\r\n        uint256 length = poolInfo.length;\r\n        for (uint256 pid = 0; pid < length; ++pid) {\r\n            updatePool(pid);\r\n        }\r\n    }\r\n\r\n    // Update reward variables of the given pool to be up-to-date.\r\n    function updatePool(uint256 _pid) public {\r\n        PoolInfo storage pool = poolInfo[_pid];\r\n        if (block.number <= pool.lastRewardBlock) {\r\n            return;\r\n        }\r\n        uint256 lpSupply = pool.lpToken.balanceOf(address(this));\r\n        if (lpSupply == 0) {\r\n            pool.lastRewardBlock = block.number;\r\n            return;\r\n        }\r\n        uint256 multiplier = getMultiplier(pool.lastRewardBlock, block.number);\r\n        uint256 mappyReward = multiplier.mul(mappyPerBlock).mul(pool.allocPoint).div(totalAllocPoint);\r\n        mappyReward = mappyReservoir.drip(mappyReward); // XXX: transfer tokens from mappyReservoir\r\n        mappy.transfer(devaddr, mappyReward.div(10)); // XXX: transfer tokens to devaddr\r\n        mappyReward = mappyReward.sub(mappyReward.div(10)); // XXX: subtract tokens for dev\r\n        pool.accMappyPerShare = pool.accMappyPerShare.add(mappyReward.mul(1e18).div(lpSupply));\r\n        pool.lastRewardBlock = block.number;\r\n    }\r\n\r\n    // Deposit LP tokens to MappyFarmingPool for MAPPY allocation.\r\n    function deposit(uint256 _pid, uint256 _amount) public {\r\n        PoolInfo storage pool = poolInfo[_pid];\r\n        UserInfo storage user = userInfo[_pid][msg.sender];\r\n        updatePool(_pid);\r\n        if (user.amount > 0) {\r\n            uint256 pending = user.amount.mul(pool.accMappyPerShare).div(1e18).sub(user.rewardDebt);\r\n            if(pending > 0) {\r\n                safeMappyTransfer(msg.sender, pending);\r\n            }\r\n        }\r\n        if(_amount > 0) {\r\n            pool.lpToken.safeTransferFrom(address(msg.sender), address(this), _amount);\r\n            user.amount = user.amount.add(_amount);\r\n        }\r\n        user.rewardDebt = user.amount.mul(pool.accMappyPerShare).div(1e18);\r\n        emit Deposit(msg.sender, _pid, _amount);\r\n    }\r\n\r\n    // Withdraw LP tokens from MappyFarmingPool.\r\n    function withdraw(uint256 _pid, uint256 _amount) public {\r\n        PoolInfo storage pool = poolInfo[_pid];\r\n        UserInfo storage user = userInfo[_pid][msg.sender];\r\n        require(user.amount >= _amount, \"withdraw: not good\");\r\n        updatePool(_pid);\r\n        uint256 pending = user.amount.mul(pool.accMappyPerShare).div(1e18).sub(user.rewardDebt);\r\n        if(pending > 0) {\r\n            safeMappyTransfer(msg.sender, pending);\r\n        }\r\n        if(_amount > 0) {\r\n            user.amount = user.amount.sub(_amount);\r\n            pool.lpToken.safeTransfer(address(msg.sender), _amount);\r\n        }\r\n        user.rewardDebt = user.amount.mul(pool.accMappyPerShare).div(1e18);\r\n        emit Withdraw(msg.sender, _pid, _amount);\r\n    }\r\n\r\n    // Withdraw without caring about rewards. EMERGENCY ONLY.\r\n    function emergencyWithdraw(uint256 _pid) public {\r\n        PoolInfo storage pool = poolInfo[_pid];\r\n        UserInfo storage user = userInfo[_pid][msg.sender];\r\n        uint256 amount = user.amount;\r\n        user.amount = 0;\r\n        user.rewardDebt = 0;\r\n        pool.lpToken.safeTransfer(address(msg.sender), amount);\r\n        emit EmergencyWithdraw(msg.sender, _pid, amount);\r\n    }\r\n\r\n    // Update dev address by the previous dev.\r\n    function updateDev(address _devaddr) public {\r\n        require(msg.sender == devaddr, \"updateDev: permission denied\");\r\n        devaddr = _devaddr;\r\n    }\r\n\r\n    // XXX: return available MAPPYs on mappyReservoir.\r\n    function availableMappy(uint256 requestedTokens) internal view returns (uint256) {\r\n        uint256 reservoirBalance = mappy.balanceOf(address(mappyReservoir));\r\n        uint256 mappyAvailable = (requestedTokens > reservoirBalance)\r\n            ? reservoirBalance\r\n            : requestedTokens;\r\n\r\n        return mappyAvailable;\r\n    }\r\n\r\n    // Safe mappy transfer function, just in case if rounding error causes pool to not have enough MAPPYs.\r\n    function safeMappyTransfer(address _to, uint256 _amount) internal {\r\n        uint256 mappyBal = mappy.balanceOf(address(this));\r\n        if (_amount > mappyBal) {\r\n            mappy.transfer(_to, mappyBal);\r\n        } else {\r\n            mappy.transfer(_to, _amount);\r\n        }\r\n    }\r\n}",
  "sourcePath": "F:\\Cory_Career\\Stan_M\\mappycoin-dashboard\\contracts\\MappyFarm\\MappyFarm.sol",
  "compiler": {
    "name": "solc",
    "version": "0.8.12+commit.f00d7308.Emscripten.clang"
  },
  "schemaVersion": "3.4.3",
  "updatedAt": "2022-02-24T00:21:02.596Z",
  "devdoc": {
    "kind": "dev",
    "methods": {
      "owner()": {
        "details": "Returns the address of the current owner."
      },
      "renounceOwnership()": {
        "details": "Leaves the contract without owner. It will not be possible to call `onlyOwner` functions anymore. Can only be called by the current owner. NOTE: Renouncing ownership will leave the contract without an owner, thereby removing any functionality that is only available to the owner."
      },
      "transferOwnership(address)": {
        "details": "Transfers ownership of the contract to a new account (`newOwner`). Can only be called by the current owner."
      }
    },
    "version": 1
  },
  "userdoc": {
    "kind": "user",
    "methods": {},
    "notice": "Based on Sushi MasterChef:  https://github.com/sushiswap/sushiswap/blob/1e4db47fa313f84cd242e17a4972ec1e9755609a/contracts/MasterChef.sol  XXX: Removed migration logic;  XXX: Removed token minting and added token reservoir;  XXX: Added check if LP token has already been added;  XXX: Owner can update reservoir address and mappyPerBlock value;  XXX: Removed bonus multiplier;  XXX: Added defiController function to claim profit;  XXX: Use 1e18 instead of 1e12 for accumulated tokens per share.",
    "version": 1
  }
}