{
  "contractName": "MappyXTreasury",
  "abi": [
    {
      "inputs": [],
      "stateMutability": "nonpayable",
      "type": "constructor"
    },
    {
      "anonymous": false,
      "inputs": [
        {
          "indexed": true,
          "internalType": "address",
          "name": "previousOwner",
          "type": "address"
        },
        {
          "indexed": true,
          "internalType": "address",
          "name": "newOwner",
          "type": "address"
        }
      ],
      "name": "OwnershipTransferred",
      "type": "event"
    },
    {
      "inputs": [],
      "name": "owner",
      "outputs": [
        {
          "internalType": "address",
          "name": "",
          "type": "address"
        }
      ],
      "stateMutability": "view",
      "type": "function"
    },
    {
      "inputs": [],
      "name": "renounceOwnership",
      "outputs": [],
      "stateMutability": "nonpayable",
      "type": "function"
    },
    {
      "inputs": [
        {
          "internalType": "address",
          "name": "newOwner",
          "type": "address"
        }
      ],
      "name": "transferOwnership",
      "outputs": [],
      "stateMutability": "nonpayable",
      "type": "function"
    },
    {
      "inputs": [
        {
          "internalType": "contract IERC20",
          "name": "_token",
          "type": "address"
        },
        {
          "internalType": "address",
          "name": "_target",
          "type": "address"
        },
        {
          "internalType": "uint64",
          "name": "_interval",
          "type": "uint64"
        },
        {
          "internalType": "uint64",
          "name": "_percent",
          "type": "uint64"
        },
        {
          "internalType": "uint64",
          "name": "_lastTimestamp",
          "type": "uint64"
        }
      ],
      "name": "add",
      "outputs": [],
      "stateMutability": "nonpayable",
      "type": "function"
    },
    {
      "inputs": [
        {
          "internalType": "address",
          "name": "_target",
          "type": "address"
        }
      ],
      "name": "remove",
      "outputs": [],
      "stateMutability": "nonpayable",
      "type": "function"
    },
    {
      "inputs": [
        {
          "internalType": "address",
          "name": "_target",
          "type": "address"
        },
        {
          "internalType": "uint64",
          "name": "_percent",
          "type": "uint64"
        },
        {
          "internalType": "uint64",
          "name": "_interval",
          "type": "uint64"
        }
      ],
      "name": "changePercent",
      "outputs": [],
      "stateMutability": "nonpayable",
      "type": "function"
    },
    {
      "inputs": [
        {
          "internalType": "address",
          "name": "_target",
          "type": "address"
        }
      ],
      "name": "isAllowedGathering",
      "outputs": [
        {
          "internalType": "bool",
          "name": "",
          "type": "bool"
        }
      ],
      "stateMutability": "view",
      "type": "function"
    },
    {
      "inputs": [
        {
          "internalType": "address",
          "name": "_target",
          "type": "address"
        }
      ],
      "name": "gather",
      "outputs": [
        {
          "internalType": "uint256",
          "name": "_tokensToSend",
          "type": "uint256"
        }
      ],
      "stateMutability": "nonpayable",
      "type": "function"
    }
  ],
  "bytecode": "0x608060405234801561001057600080fd5b5061001a3361001f565b61012c565b60006100296100a7565b600080546001810182558180527f290decd9548b62a8d60345a988386fc84ba6bc95484008f6362f93160ef3e5630180546001600160a01b0319166001600160a01b0386811691821790925560405193945092908416917f8be0079c531659141344cd1fd0a4f28419497f9722a3daafe3b4186f6b6457e091a35050565b6000805480156100e95760006100be6001836100f1565b815481106100ce576100ce610116565b6000918252602090912001546001600160a01b031692915050565b600091505090565b60008282101561011157634e487b7160e01b600052601160045260246000fd5b500390565b634e487b7160e01b600052603260045260246000fd5b610b328061013b6000396000f3fe608060405234801561001057600080fd5b50600436106100885760003560e01c8063d93a88b31161005b578063d93a88b3146100f0578063ea4c7f9114610103578063f2fde38b14610126578063fd58dbdc1461013957600080fd5b806329092d0e1461008d578063715018a6146100a25780638da5cb5b146100aa5780639da37e57146100cf575b600080fd5b6100a061009b366004610895565b61014c565b005b6100a061020a565b6100b261023f565b6040516001600160a01b0390911681526020015b60405180910390f35b6100e26100dd366004610895565b610289565b6040519081526020016100c6565b6100a06100fe3660046108ce565b61047e565b610116610111366004610895565b610544565b60405190151581526020016100c6565b6100a0610134366004610895565b610596565b6100a0610147366004610913565b6105f1565b610154610757565b151560011461017e5760405162461bcd60e51b81526004016101759061097c565b60405180910390fd5b6040805160808101825260008082526020808301828152838501838152606085018481526001600160a01b039788168552600193849052959093209351845491516001600160401b03908116600160a01b026001600160e01b0319909316919097161717835590519101805492518416600160401b026001600160801b03199093169190931617179055565b610212610757565b15156001146102335760405162461bcd60e51b81526004016101759061097c565b61023d60006107d9565b565b6000805480156102815760006102566001836109c7565b81548110610266576102666109de565b6000918252602090912001546001600160a01b031692915050565b600091505090565b6001600160a01b03811660009081526001602081905260408220908101546001600160401b03166102e85760405162461bcd60e51b81526020600482015260096024820152686e6f7420657869747360b81b6044820152606401610175565b8054600182015461030c916001600160401b03600160a01b909104811691166109f4565b6001600160401b031642101561034c5760405162461bcd60e51b81526020600482015260056024820152646561726c7960d81b6044820152606401610175565b60018101805467ffffffffffffffff1916426001600160401b03908116919091179182905582546040516370a0823160e01b81523060048201526103ff93620186a0936103f993600160401b90920416916001600160a01b03909116906370a0823190602401602060405180830381865afa1580156103cf573d6000803e3d6000fd5b505050506040513d601f19601f820116820180604052508101906103f39190610a1f565b90610861565b90610874565b815460405163a9059cbb60e01b81526001600160a01b0386811660048301526024820184905292945091169063a9059cbb906044016020604051808303816000875af1158015610453573d6000803e3d6000fd5b505050506040513d601f19601f820116820180604052508101906104779190610a38565b5050919050565b610486610757565b15156001146104a75760405162461bcd60e51b81526004016101759061097c565b6001600160a01b038316600090815260016020819052604090912001546001600160401b03166104d657600080fd5b6001600160a01b03909216600090815260016020819052604090912090810180546001600160401b03938416600160401b026fffffffffffffffff000000000000000019909116179055805492909116600160a01b0267ffffffffffffffff60a01b19909216919091179055565b6001600160a01b038116600090815260016020819052604082208054918101549091610583916001600160401b03600160a01b909204821691166109f4565b6001600160401b03164210159392505050565b61059e610757565b15156001146105bf5760405162461bcd60e51b81526004016101759061097c565b6001600160a01b0381166105e55760405162461bcd60e51b815260040161017590610a5a565b6105ee816107d9565b50565b6105f9610757565b151560011461061a5760405162461bcd60e51b81526004016101759061097c565b620186a0826001600160401b0316111561063357600080fd5b6001600160a01b038416600090815260016020819052604090912001546001600160401b0316156106985760405162461bcd60e51b815260206004820152600f60248201526e21616c72656164792065786973747360881b6044820152606401610175565b6001600160401b0381166106bc576106b96001600160401b038416426109c7565b90505b604080516080810182526001600160a01b0396871681526001600160401b039485166020808301918252938616828401908152948616606083019081529688166000908152600194859052929092209051815492518616600160a01b026001600160e01b031990931697169690961717855590519301805492518216600160401b026001600160801b03199093169390911692909217179055565b6000336107765760405162461bcd60e51b815260040161017590610a5a565b6000805b6000548110156107d357336001600160a01b0316600082815481106107a1576107a16109de565b6000918252602090912001546001600160a01b031614156107c157600191505b806107cb81610aa0565b91505061077a565b50919050565b60006107e361023f565b600080546001810182558180527f290decd9548b62a8d60345a988386fc84ba6bc95484008f6362f93160ef3e5630180546001600160a01b0319166001600160a01b0386811691821790925560405193945092908416917f8be0079c531659141344cd1fd0a4f28419497f9722a3daafe3b4186f6b6457e091a35050565b600061086d8284610abb565b9392505050565b600061086d8284610ada565b6001600160a01b03811681146105ee57600080fd5b6000602082840312156108a757600080fd5b813561086d81610880565b80356001600160401b03811681146108c957600080fd5b919050565b6000806000606084860312156108e357600080fd5b83356108ee81610880565b92506108fc602085016108b2565b915061090a604085016108b2565b90509250925092565b600080600080600060a0868803121561092b57600080fd5b853561093681610880565b9450602086013561094681610880565b9350610954604087016108b2565b9250610962606087016108b2565b9150610970608087016108b2565b90509295509295909350565b6020808252818101527f4f776e61626c653a2063616c6c6572206973206e6f7420746865206f776e6572604082015260600190565b634e487b7160e01b600052601160045260246000fd5b6000828210156109d9576109d96109b1565b500390565b634e487b7160e01b600052603260045260246000fd5b60006001600160401b03808316818516808303821115610a1657610a166109b1565b01949350505050565b600060208284031215610a3157600080fd5b5051919050565b600060208284031215610a4a57600080fd5b8151801515811461086d57600080fd5b60208082526026908201527f4f776e61626c653a206e6577206f776e657220697320746865207a65726f206160408201526564647265737360d01b606082015260800190565b6000600019821415610ab457610ab46109b1565b5060010190565b6000816000190483118215151615610ad557610ad56109b1565b500290565b600082610af757634e487b7160e01b600052601260045260246000fd5b50049056fea2646970667358221220abb216e24ee6f1b5eec908d046a37b383cd4372a0d4bc8b0889fcab784eb58d464736f6c634300080c0033",
  "immutableReferences": {},
  "source": "// SPDX-License-Identifier: MIT\r\n\r\npragma solidity ^0.8.10;\r\n\r\nimport \"@openzeppelin/contracts/token/ERC20/IERC20.sol\";\r\nimport \"@openzeppelin/contracts/access/Ownable.sol\";\r\nimport \"@openzeppelin/contracts/utils/math/SafeMath.sol\";\r\n\r\n/**\r\n * @title Reservoir\r\n *\r\n * @dev The contract is used to keep tokens with the function\r\n * of transfer them to another target address (it is assumed that\r\n * it will be a contract address).\r\n */\r\ncontract MappyXTreasury is Ownable {\r\n    using SafeMath for uint256;\r\n\r\n    struct DistributionInfo\r\n    {\r\n        IERC20 token;\r\n        uint64 interval;\r\n        uint64 lastTimestamp;\r\n        uint64 percent;\r\n    }\r\n\r\n    mapping(address => DistributionInfo) info;\r\n\r\n    /**\r\n     * @dev A constructor sets the address of token and\r\n     * the address of the target contract.\r\n     */\r\n    constructor () {}\r\n\r\n    function add(IERC20 _token, address _target, uint64 _interval, uint64 _percent, uint64 _lastTimestamp) onlyOwner public {\r\n        require(_percent <= 100 * 1000);\r\n        require(info[_target].lastTimestamp == 0, \"!already exists\");\r\n        if (_lastTimestamp == 0) _lastTimestamp = uint64(block.timestamp - _interval);\r\n        info[_target] = DistributionInfo(_token, _interval, _lastTimestamp, _percent);\r\n    }\r\n\r\n    function remove(address _target) onlyOwner public {\r\n        info[_target] = DistributionInfo(IERC20(0x0000000000000000000000000000000000000000), 0, 0, 0);\r\n    }\r\n\r\n    function changePercent(address _target, uint64 _percent, uint64 _interval) onlyOwner public {\r\n        require(info[_target].lastTimestamp  > 0);\r\n        info[_target].percent = _percent;\r\n        info[_target].interval = _interval;\r\n    }\r\n\r\n\r\n    function isAllowedGathering(address _target) external view returns (bool) {\r\n        DistributionInfo storage _inf = info[_target];\r\n        return block.timestamp >= _inf.lastTimestamp + _inf.interval;\r\n    }\r\n\r\n    function gather(address _target)\r\n    external\r\n    returns (uint256 _tokensToSend)\r\n    {\r\n        DistributionInfo storage _inf = info[_target];\r\n        require(_inf.lastTimestamp > 0, \"not exits\");\r\n        require(block.timestamp >= _inf.lastTimestamp + _inf.interval, \"early\");\r\n        _inf.lastTimestamp = uint64(block.timestamp);\r\n        _tokensToSend = _inf.token.balanceOf(address(this)).mul(_inf.percent).div(100 * 1000);\r\n        _inf.token.transfer(_target, _tokensToSend);\r\n    }\r\n}",
  "sourcePath": "F:\\Cory_Career\\Stan_M\\mappycoin-dashboard\\contracts\\MappyFarm\\MappyXTreasury.sol",
  "compiler": {
    "name": "solc",
    "version": "0.8.12+commit.f00d7308.Emscripten.clang"
  },
  "schemaVersion": "3.4.3",
  "updatedAt": "2022-02-24T00:21:02.634Z",
  "devdoc": {
    "details": "The contract is used to keep tokens with the function of transfer them to another target address (it is assumed that it will be a contract address).",
    "kind": "dev",
    "methods": {
      "constructor": {
        "details": "A constructor sets the address of token and the address of the target contract."
      },
      "owner()": {
        "details": "Returns the address of the current owner."
      },
      "renounceOwnership()": {
        "details": "Leaves the contract without owner. It will not be possible to call `onlyOwner` functions anymore. Can only be called by the current owner. NOTE: Renouncing ownership will leave the contract without an owner, thereby removing any functionality that is only available to the owner."
      },
      "transferOwnership(address)": {
        "details": "Transfers ownership of the contract to a new account (`newOwner`). Can only be called by the current owner."
      }
    },
    "title": "Reservoir",
    "version": 1
  },
  "userdoc": {
    "kind": "user",
    "methods": {},
    "version": 1
  }
}