{
  "contractName": "MappyNFToken",
  "abi": [
    {
      "inputs": [
        {
          "internalType": "uint256",
          "name": "maxBatchSize_",
          "type": "uint256"
        },
        {
          "internalType": "uint256",
          "name": "collectionSize_",
          "type": "uint256"
        },
        {
          "internalType": "uint256",
          "name": "amountForAuctionAndDev_",
          "type": "uint256"
        },
        {
          "internalType": "uint256",
          "name": "amountForDevs_",
          "type": "uint256"
        }
      ],
      "stateMutability": "nonpayable",
      "type": "constructor"
    },
    {
      "anonymous": false,
      "inputs": [
        {
          "indexed": true,
          "internalType": "address",
          "name": "owner",
          "type": "address"
        },
        {
          "indexed": true,
          "internalType": "address",
          "name": "approved",
          "type": "address"
        },
        {
          "indexed": true,
          "internalType": "uint256",
          "name": "tokenId",
          "type": "uint256"
        }
      ],
      "name": "Approval",
      "type": "event"
    },
    {
      "anonymous": false,
      "inputs": [
        {
          "indexed": true,
          "internalType": "address",
          "name": "owner",
          "type": "address"
        },
        {
          "indexed": true,
          "internalType": "address",
          "name": "operator",
          "type": "address"
        },
        {
          "indexed": false,
          "internalType": "bool",
          "name": "approved",
          "type": "bool"
        }
      ],
      "name": "ApprovalForAll",
      "type": "event"
    },
    {
      "anonymous": false,
      "inputs": [
        {
          "indexed": true,
          "internalType": "address",
          "name": "previousOwner",
          "type": "address"
        },
        {
          "indexed": true,
          "internalType": "address",
          "name": "newOwner",
          "type": "address"
        }
      ],
      "name": "OwnershipTransferred",
      "type": "event"
    },
    {
      "anonymous": false,
      "inputs": [
        {
          "indexed": true,
          "internalType": "address",
          "name": "from",
          "type": "address"
        },
        {
          "indexed": true,
          "internalType": "address",
          "name": "to",
          "type": "address"
        },
        {
          "indexed": true,
          "internalType": "uint256",
          "name": "tokenId",
          "type": "uint256"
        }
      ],
      "name": "Transfer",
      "type": "event"
    },
    {
      "inputs": [],
      "name": "AUCTION_DROP_INTERVAL",
      "outputs": [
        {
          "internalType": "uint256",
          "name": "",
          "type": "uint256"
        }
      ],
      "stateMutability": "view",
      "type": "function"
    },
    {
      "inputs": [],
      "name": "AUCTION_DROP_PER_STEP",
      "outputs": [
        {
          "internalType": "uint256",
          "name": "",
          "type": "uint256"
        }
      ],
      "stateMutability": "view",
      "type": "function"
    },
    {
      "inputs": [],
      "name": "AUCTION_END_PRICE",
      "outputs": [
        {
          "internalType": "uint256",
          "name": "",
          "type": "uint256"
        }
      ],
      "stateMutability": "view",
      "type": "function"
    },
    {
      "inputs": [],
      "name": "AUCTION_PRICE_CURVE_LENGTH",
      "outputs": [
        {
          "internalType": "uint256",
          "name": "",
          "type": "uint256"
        }
      ],
      "stateMutability": "view",
      "type": "function"
    },
    {
      "inputs": [],
      "name": "AUCTION_START_PRICE",
      "outputs": [
        {
          "internalType": "uint256",
          "name": "",
          "type": "uint256"
        }
      ],
      "stateMutability": "view",
      "type": "function"
    },
    {
      "inputs": [
        {
          "internalType": "address",
          "name": "",
          "type": "address"
        }
      ],
      "name": "allowlist",
      "outputs": [
        {
          "internalType": "uint256",
          "name": "",
          "type": "uint256"
        }
      ],
      "stateMutability": "view",
      "type": "function"
    },
    {
      "inputs": [],
      "name": "amountForAuctionAndDev",
      "outputs": [
        {
          "internalType": "uint256",
          "name": "",
          "type": "uint256"
        }
      ],
      "stateMutability": "view",
      "type": "function"
    },
    {
      "inputs": [],
      "name": "amountForDevs",
      "outputs": [
        {
          "internalType": "uint256",
          "name": "",
          "type": "uint256"
        }
      ],
      "stateMutability": "view",
      "type": "function"
    },
    {
      "inputs": [
        {
          "internalType": "address",
          "name": "to",
          "type": "address"
        },
        {
          "internalType": "uint256",
          "name": "tokenId",
          "type": "uint256"
        }
      ],
      "name": "approve",
      "outputs": [],
      "stateMutability": "nonpayable",
      "type": "function"
    },
    {
      "inputs": [
        {
          "internalType": "address",
          "name": "owner",
          "type": "address"
        }
      ],
      "name": "balanceOf",
      "outputs": [
        {
          "internalType": "uint256",
          "name": "",
          "type": "uint256"
        }
      ],
      "stateMutability": "view",
      "type": "function"
    },
    {
      "inputs": [
        {
          "internalType": "uint256",
          "name": "tokenId",
          "type": "uint256"
        }
      ],
      "name": "getApproved",
      "outputs": [
        {
          "internalType": "address",
          "name": "",
          "type": "address"
        }
      ],
      "stateMutability": "view",
      "type": "function"
    },
    {
      "inputs": [
        {
          "internalType": "address",
          "name": "owner",
          "type": "address"
        },
        {
          "internalType": "address",
          "name": "operator",
          "type": "address"
        }
      ],
      "name": "isApprovedForAll",
      "outputs": [
        {
          "internalType": "bool",
          "name": "",
          "type": "bool"
        }
      ],
      "stateMutability": "view",
      "type": "function"
    },
    {
      "inputs": [],
      "name": "maxPerAddressDuringMint",
      "outputs": [
        {
          "internalType": "uint256",
          "name": "",
          "type": "uint256"
        }
      ],
      "stateMutability": "view",
      "type": "function"
    },
    {
      "inputs": [],
      "name": "name",
      "outputs": [
        {
          "internalType": "string",
          "name": "",
          "type": "string"
        }
      ],
      "stateMutability": "view",
      "type": "function"
    },
    {
      "inputs": [],
      "name": "nextOwnerToExplicitlySet",
      "outputs": [
        {
          "internalType": "uint256",
          "name": "",
          "type": "uint256"
        }
      ],
      "stateMutability": "view",
      "type": "function"
    },
    {
      "inputs": [],
      "name": "owner",
      "outputs": [
        {
          "internalType": "address",
          "name": "",
          "type": "address"
        }
      ],
      "stateMutability": "view",
      "type": "function"
    },
    {
      "inputs": [
        {
          "internalType": "uint256",
          "name": "tokenId",
          "type": "uint256"
        }
      ],
      "name": "ownerOf",
      "outputs": [
        {
          "internalType": "address",
          "name": "",
          "type": "address"
        }
      ],
      "stateMutability": "view",
      "type": "function"
    },
    {
      "inputs": [],
      "name": "renounceOwnership",
      "outputs": [],
      "stateMutability": "nonpayable",
      "type": "function"
    },
    {
      "inputs": [
        {
          "internalType": "address",
          "name": "from",
          "type": "address"
        },
        {
          "internalType": "address",
          "name": "to",
          "type": "address"
        },
        {
          "internalType": "uint256",
          "name": "tokenId",
          "type": "uint256"
        }
      ],
      "name": "safeTransferFrom",
      "outputs": [],
      "stateMutability": "nonpayable",
      "type": "function"
    },
    {
      "inputs": [
        {
          "internalType": "address",
          "name": "from",
          "type": "address"
        },
        {
          "internalType": "address",
          "name": "to",
          "type": "address"
        },
        {
          "internalType": "uint256",
          "name": "tokenId",
          "type": "uint256"
        },
        {
          "internalType": "bytes",
          "name": "_data",
          "type": "bytes"
        }
      ],
      "name": "safeTransferFrom",
      "outputs": [],
      "stateMutability": "nonpayable",
      "type": "function"
    },
    {
      "inputs": [],
      "name": "saleConfig",
      "outputs": [
        {
          "internalType": "uint32",
          "name": "auctionSaleStartTime",
          "type": "uint32"
        },
        {
          "internalType": "uint32",
          "name": "publicSaleStartTime",
          "type": "uint32"
        },
        {
          "internalType": "uint64",
          "name": "mintlistPrice",
          "type": "uint64"
        },
        {
          "internalType": "uint64",
          "name": "publicPrice",
          "type": "uint64"
        },
        {
          "internalType": "uint32",
          "name": "publicSaleKey",
          "type": "uint32"
        }
      ],
      "stateMutability": "view",
      "type": "function"
    },
    {
      "inputs": [
        {
          "internalType": "address",
          "name": "operator",
          "type": "address"
        },
        {
          "internalType": "bool",
          "name": "approved",
          "type": "bool"
        }
      ],
      "name": "setApprovalForAll",
      "outputs": [],
      "stateMutability": "nonpayable",
      "type": "function"
    },
    {
      "inputs": [
        {
          "internalType": "bytes4",
          "name": "interfaceId",
          "type": "bytes4"
        }
      ],
      "name": "supportsInterface",
      "outputs": [
        {
          "internalType": "bool",
          "name": "",
          "type": "bool"
        }
      ],
      "stateMutability": "view",
      "type": "function"
    },
    {
      "inputs": [],
      "name": "symbol",
      "outputs": [
        {
          "internalType": "string",
          "name": "",
          "type": "string"
        }
      ],
      "stateMutability": "view",
      "type": "function"
    },
    {
      "inputs": [
        {
          "internalType": "uint256",
          "name": "index",
          "type": "uint256"
        }
      ],
      "name": "tokenByIndex",
      "outputs": [
        {
          "internalType": "uint256",
          "name": "",
          "type": "uint256"
        }
      ],
      "stateMutability": "view",
      "type": "function"
    },
    {
      "inputs": [
        {
          "internalType": "address",
          "name": "owner",
          "type": "address"
        },
        {
          "internalType": "uint256",
          "name": "index",
          "type": "uint256"
        }
      ],
      "name": "tokenOfOwnerByIndex",
      "outputs": [
        {
          "internalType": "uint256",
          "name": "",
          "type": "uint256"
        }
      ],
      "stateMutability": "view",
      "type": "function"
    },
    {
      "inputs": [
        {
          "internalType": "uint256",
          "name": "tokenId",
          "type": "uint256"
        }
      ],
      "name": "tokenURI",
      "outputs": [
        {
          "internalType": "string",
          "name": "",
          "type": "string"
        }
      ],
      "stateMutability": "view",
      "type": "function"
    },
    {
      "inputs": [],
      "name": "totalSupply",
      "outputs": [
        {
          "internalType": "uint256",
          "name": "",
          "type": "uint256"
        }
      ],
      "stateMutability": "view",
      "type": "function"
    },
    {
      "inputs": [
        {
          "internalType": "address",
          "name": "from",
          "type": "address"
        },
        {
          "internalType": "address",
          "name": "to",
          "type": "address"
        },
        {
          "internalType": "uint256",
          "name": "tokenId",
          "type": "uint256"
        }
      ],
      "name": "transferFrom",
      "outputs": [],
      "stateMutability": "nonpayable",
      "type": "function"
    },
    {
      "inputs": [
        {
          "internalType": "address",
          "name": "newOwner",
          "type": "address"
        }
      ],
      "name": "transferOwnership",
      "outputs": [],
      "stateMutability": "nonpayable",
      "type": "function"
    },
    {
      "inputs": [
        {
          "internalType": "uint256",
          "name": "quantity",
          "type": "uint256"
        }
      ],
      "name": "auctionMint",
      "outputs": [],
      "stateMutability": "payable",
      "type": "function"
    },
    {
      "inputs": [],
      "name": "allowlistMint",
      "outputs": [],
      "stateMutability": "payable",
      "type": "function"
    },
    {
      "inputs": [
        {
          "internalType": "uint256",
          "name": "quantity",
          "type": "uint256"
        },
        {
          "internalType": "uint256",
          "name": "callerPublicSaleKey",
          "type": "uint256"
        }
      ],
      "name": "publicSaleMint",
      "outputs": [],
      "stateMutability": "payable",
      "type": "function"
    },
    {
      "inputs": [
        {
          "internalType": "uint256",
          "name": "publicPriceWei",
          "type": "uint256"
        },
        {
          "internalType": "uint256",
          "name": "publicSaleKey",
          "type": "uint256"
        },
        {
          "internalType": "uint256",
          "name": "publicSaleStartTime",
          "type": "uint256"
        }
      ],
      "name": "isPublicSaleOn",
      "outputs": [
        {
          "internalType": "bool",
          "name": "",
          "type": "bool"
        }
      ],
      "stateMutability": "view",
      "type": "function"
    },
    {
      "inputs": [
        {
          "internalType": "uint256",
          "name": "_saleStartTime",
          "type": "uint256"
        }
      ],
      "name": "getAuctionPrice",
      "outputs": [
        {
          "internalType": "uint256",
          "name": "",
          "type": "uint256"
        }
      ],
      "stateMutability": "view",
      "type": "function"
    },
    {
      "inputs": [
        {
          "internalType": "uint64",
          "name": "mintlistPriceWei",
          "type": "uint64"
        },
        {
          "internalType": "uint64",
          "name": "publicPriceWei",
          "type": "uint64"
        },
        {
          "internalType": "uint32",
          "name": "publicSaleStartTime",
          "type": "uint32"
        }
      ],
      "name": "endAuctionAndSetupNonAuctionSaleInfo",
      "outputs": [],
      "stateMutability": "nonpayable",
      "type": "function"
    },
    {
      "inputs": [
        {
          "internalType": "uint32",
          "name": "timestamp",
          "type": "uint32"
        }
      ],
      "name": "setAuctionSaleStartTime",
      "outputs": [],
      "stateMutability": "nonpayable",
      "type": "function"
    },
    {
      "inputs": [
        {
          "internalType": "uint32",
          "name": "key",
          "type": "uint32"
        }
      ],
      "name": "setPublicSaleKey",
      "outputs": [],
      "stateMutability": "nonpayable",
      "type": "function"
    },
    {
      "inputs": [
        {
          "internalType": "address[]",
          "name": "addresses",
          "type": "address[]"
        },
        {
          "internalType": "uint256[]",
          "name": "numSlots",
          "type": "uint256[]"
        }
      ],
      "name": "seedAllowlist",
      "outputs": [],
      "stateMutability": "nonpayable",
      "type": "function"
    },
    {
      "inputs": [
        {
          "internalType": "uint256",
          "name": "quantity",
          "type": "uint256"
        }
      ],
      "name": "devMint",
      "outputs": [],
      "stateMutability": "nonpayable",
      "type": "function"
    },
    {
      "inputs": [
        {
          "internalType": "string",
          "name": "baseURI",
          "type": "string"
        }
      ],
      "name": "setBaseURI",
      "outputs": [],
      "stateMutability": "nonpayable",
      "type": "function"
    },
    {
      "inputs": [],
      "name": "withdrawMoney",
      "outputs": [],
      "stateMutability": "nonpayable",
      "type": "function"
    },
    {
      "inputs": [
        {
          "internalType": "uint256",
          "name": "quantity",
          "type": "uint256"
        }
      ],
      "name": "setOwnersExplicit",
      "outputs": [],
      "stateMutability": "nonpayable",
      "type": "function"
    },
    {
      "inputs": [
        {
          "internalType": "address",
          "name": "owner",
          "type": "address"
        }
      ],
      "name": "numberMinted",
      "outputs": [
        {
          "internalType": "uint256",
          "name": "",
          "type": "uint256"
        }
      ],
      "stateMutability": "view",
      "type": "function"
    },
    {
      "inputs": [
        {
          "internalType": "uint256",
          "name": "tokenId",
          "type": "uint256"
        }
      ],
      "name": "getOwnershipData",
      "outputs": [
        {
          "components": [
            {
              "internalType": "address",
              "name": "addr",
              "type": "address"
            },
            {
              "internalType": "uint64",
              "name": "startTimestamp",
              "type": "uint64"
            }
          ],
          "internalType": "struct ERC721A.TokenOwnership",
          "name": "",
          "type": "tuple"
        }
      ],
      "stateMutability": "view",
      "type": "function"
    }
  ],
  "bytecode": "0x610120604052600060015560006008553480156200001c57600080fd5b50604051620038a2380380620038a28339810160408190526200003f916200030f565b6040518060400160405280600981526020016813585c1c1e4813919560ba1b81525060405180604001604052806008815260200167135054141653919560c21b81525085856200009e620000986200021560201b60201c565b62000219565b600081116200010b5760405162461bcd60e51b815260206004820152602e60248201527f455243373231413a20636f6c6c656374696f6e206d757374206861766520612060448201526d6e6f6e7a65726f20737570706c7960901b60648201526084015b60405180910390fd5b600082116200016d5760405162461bcd60e51b815260206004820152602760248201527f455243373231413a206d61782062617463682073697a65206d757374206265206044820152666e6f6e7a65726f60c81b606482015260840162000102565b83516200018290600290602087019062000269565b5082516200019890600390602086019062000269565b5060a0919091526080525050600160095560c084905261010082905260e0819052828211156200020b5760405162461bcd60e51b815260206004820152601d60248201527f6c617267657220636f6c6c656374696f6e2073697a65206e6565646564000000604482015260640162000102565b5050505062000383565b3390565b600080546001600160a01b038381166001600160a01b0319831681178455604051919092169283917f8be0079c531659141344cd1fd0a4f28419497f9722a3daafe3b4186f6b6457e09190a35050565b828054620002779062000346565b90600052602060002090601f0160209004810192826200029b5760008555620002e6565b82601f10620002b657805160ff1916838001178555620002e6565b82800160010185558215620002e6579182015b82811115620002e6578251825591602001919060010190620002c9565b50620002f4929150620002f8565b5090565b5b80821115620002f45760008155600101620002f9565b600080600080608085870312156200032657600080fd5b505082516020840151604085015160609095015191969095509092509050565b600181811c908216806200035b57607f821691505b602082108114156200037d57634e487b7160e01b600052602260045260246000fd5b50919050565b60805160a05160c05160e051610100516134866200041c60003960008181610494015261127e0152600081816108ab0152610e9e015260008181610584015281816113380152611c89015260008181610f3401528181610fc201528181610ffa015281816124b8015281816124e2015261299401526000818161110d01528181611c1101528181612219015261224b01526134866000f3fe6080604052600436106102725760003560e01c8063715018a61161014f578063ac446002116100c1578063d7224ba01161007a578063d7224ba0146107e4578063dc33e681146107fa578063e985e9c51461081a578063f2fde38b14610863578063f8a987d814610883578063fbe1aa511461089957600080fd5b8063ac44600214610740578063b05863d514610755578063b88d4fde14610775578063c87b56dd14610795578063caf8a6d1146107b5578063cb91d8b3146107d157600080fd5b806390aa0b0f1161011357806390aa0b0f146105e4578063917d009e146106715780639231ab2a1461069157806395d89b41146106de578063a22cb465146106f3578063a7cd52cb1461071357600080fd5b8063715018a6146105415780637a1c4a56146105565780638bc35c2f146105725780638da5cb5b146105a657806390028083146105c457600080fd5b8063422030ba116101e85780635666c880116101ac5780635666c8801461048257806359f369fe146104b65780635cae01d3146104cb5780636352211e146104e15780636ebc56011461050157806370a082311461052157600080fd5b8063422030ba146103ef57806342842e0e1461040f5780634d3554c31461042f5780634f6ccce71461044257806355f804b31461046257600080fd5b806318160ddd1161023a57806318160ddd1461034857806323b872dd146103675780632d20fb60146103875780632f745c59146103a7578063375a069a146103c757806341fbddbd146103e757600080fd5b806301ffc9a71461027757806306fdde03146102ac578063081812fc146102ce578063095ea7b31461030657806316e6e15a14610328575b600080fd5b34801561028357600080fd5b50610297610292366004612c57565b6108cd565b60405190151581526020015b60405180910390f35b3480156102b857600080fd5b506102c161093a565b6040516102a39190612ccc565b3480156102da57600080fd5b506102ee6102e9366004612cdf565b6109cc565b6040516001600160a01b0390911681526020016102a3565b34801561031257600080fd5b50610326610321366004612d0f565b610a5c565b005b34801561033457600080fd5b50610326610343366004612d64565b610b74565b34801561035457600080fd5b506001545b6040519081526020016102a3565b34801561037357600080fd5b50610326610382366004612da7565b610c5c565b34801561039357600080fd5b506103266103a2366004612cdf565b610c67565b3480156103b357600080fd5b506103596103c2366004612d0f565b610cfa565b3480156103d357600080fd5b506103266103e2366004612cdf565b610e72565b610326611030565b3480156103fb57600080fd5b5061029761040a366004612de3565b6111ba565b34801561041b57600080fd5b5061032661042a366004612da7565b6111de565b61032661043d366004612cdf565b6111f9565b34801561044e57600080fd5b5061035961045d366004612cdf565b6113dd565b34801561046e57600080fd5b5061032661047d366004612e0f565b611446565b34801561048e57600080fd5b506103597f000000000000000000000000000000000000000000000000000000000000000081565b3480156104c257600080fd5b5061035961147c565b3480156104d757600080fd5b506103596104b081565b3480156104ed57600080fd5b506102ee6104fc366004612cdf565b6114b1565b34801561050d57600080fd5b5061032661051c366004612e80565b6114c3565b34801561052d57600080fd5b5061035961053c366004612e9b565b611509565b34801561054d57600080fd5b5061032661159a565b34801561056257600080fd5b50610359670de0b6b3a764000081565b34801561057e57600080fd5b506103597f000000000000000000000000000000000000000000000000000000000000000081565b3480156105b257600080fd5b506000546001600160a01b03166102ee565b3480156105d057600080fd5b506103266105df366004612e80565b6115d0565b3480156105f057600080fd5b50600a546106359063ffffffff8082169164010000000081048216916001600160401b03600160401b8304811692600160801b810490911691600160c01b9091041685565b6040805163ffffffff968716815294861660208601526001600160401b039384169085015291166060830152909116608082015260a0016102a3565b34801561067d57600080fd5b5061035961068c366004612cdf565b611620565b34801561069d57600080fd5b506106b16106ac366004612cdf565b6116cf565b6040805182516001600160a01b031681526020928301516001600160401b031692810192909252016102a3565b3480156106ea57600080fd5b506102c16116ec565b3480156106ff57600080fd5b5061032661070e366004612eb6565b6116fb565b34801561071f57600080fd5b5061035961072e366004612e9b565b600b6020526000908152604090205481565b34801561074c57600080fd5b506103266117c0565b34801561076157600080fd5b50610326610770366004612fc6565b6118cd565b34801561078157600080fd5b50610326610790366004613085565b6119d4565b3480156107a157600080fd5b506102c16107b0366004612cdf565b611a0d565b3480156107c157600080fd5b50610359670214e8348c4f000081565b6103266107df366004613144565b611ad9565b3480156107f057600080fd5b5061035960085481565b34801561080657600080fd5b50610359610815366004612e9b565b611d27565b34801561082657600080fd5b50610297610835366004613166565b6001600160a01b03918216600090815260076020908152604080832093909416825291909152205460ff1690565b34801561086f57600080fd5b5061032661087e366004612e9b565b611d32565b34801561088f57600080fd5b50610359614fb081565b3480156108a557600080fd5b506103597f000000000000000000000000000000000000000000000000000000000000000081565b60006001600160e01b031982166380ac58cd60e01b14806108fe57506001600160e01b03198216635b5e139f60e01b145b8061091957506001600160e01b0319821663780e9d6360e01b145b8061093457506301ffc9a760e01b6001600160e01b03198316145b92915050565b60606002805461094990613199565b80601f016020809104026020016040519081016040528092919081815260200182805461097590613199565b80156109c25780601f10610997576101008083540402835291602001916109c2565b820191906000526020600020905b8154815290600101906020018083116109a557829003601f168201915b5050505050905090565b60006109d9826001541190565b610a405760405162461bcd60e51b815260206004820152602d60248201527f455243373231413a20617070726f76656420717565727920666f72206e6f6e6560448201526c3c34b9ba32b73a103a37b5b2b760991b60648201526084015b60405180910390fd5b506000908152600660205260409020546001600160a01b031690565b6000610a67826114b1565b9050806001600160a01b0316836001600160a01b03161415610ad65760405162461bcd60e51b815260206004820152602260248201527f455243373231413a20617070726f76616c20746f2063757272656e74206f776e60448201526132b960f11b6064820152608401610a37565b336001600160a01b0382161480610af25750610af28133610835565b610b645760405162461bcd60e51b815260206004820152603960248201527f455243373231413a20617070726f76652063616c6c6572206973206e6f74206f60448201527f776e6572206e6f7220617070726f76656420666f7220616c6c000000000000006064820152608401610a37565b610b6f838383611dca565b505050565b6000546001600160a01b03163314610b9e5760405162461bcd60e51b8152600401610a37906131d4565b6040805160a0810182526000815263ffffffff928316602082018190526001600160401b039586169282018390529390941660608501819052600a8054600160c01b80820490951660809097018790526fffffffffffffffffffffffffffffffff19166401000000009095026fffffffffffffffff0000000000000000191694909417600160401b909202919091176bffffffffffffffffffffffff60801b1916600160801b90910263ffffffff60c01b1916179202919091179055565b610b6f838383611e26565b6000546001600160a01b03163314610c915760405162461bcd60e51b8152600401610a37906131d4565b60026009541415610ce45760405162461bcd60e51b815260206004820152601f60248201527f5265656e7472616e637947756172643a207265656e7472616e742063616c6c006044820152606401610a37565b6002600955610cf2816121a8565b506001600955565b6000610d0583611509565b8210610d5e5760405162461bcd60e51b815260206004820152602260248201527f455243373231413a206f776e657220696e646578206f7574206f6620626f756e604482015261647360f01b6064820152608401610a37565b6000610d6960015490565b905060008060005b83811015610e12576000818152600460209081526040918290208251808401909352546001600160a01b038116808452600160a01b9091046001600160401b03169183019190915215610dc357805192505b876001600160a01b0316836001600160a01b03161415610dff5786841415610df15750935061093492505050565b83610dfb8161321f565b9450505b5080610e0a8161321f565b915050610d71565b5060405162461bcd60e51b815260206004820152602e60248201527f455243373231413a20756e61626c6520746f2067657420746f6b656e206f662060448201526d0deeedccae440c4f240d2dcc8caf60931b6064820152608401610a37565b6000546001600160a01b03163314610e9c5760405162461bcd60e51b8152600401610a37906131d4565b7f000000000000000000000000000000000000000000000000000000000000000081610ec760015490565b610ed1919061323a565b1115610f2f5760405162461bcd60e51b815260206004820152602760248201527f746f6f206d616e7920616c7265616479206d696e746564206265666f72652064604482015266195d881b5a5b9d60ca1b6064820152608401610a37565b610f597f000000000000000000000000000000000000000000000000000000000000000082613268565b15610fbb5760405162461bcd60e51b815260206004820152602c60248201527f63616e206f6e6c79206d696e742061206d756c7469706c65206f66207468652060448201526b6d6178426174636853697a6560a01b6064820152608401610a37565b6000610fe77f00000000000000000000000000000000000000000000000000000000000000008361327c565b905060005b81811015610b6f5761101e337f0000000000000000000000000000000000000000000000000000000000000000612391565b806110288161321f565b915050610fec565b32331461104f5760405162461bcd60e51b8152600401610a3790613290565b600a54600160401b90046001600160401b0316806110af5760405162461bcd60e51b815260206004820181905260248201527f616c6c6f776c6973742073616c6520686173206e6f7420626567756e207965746044820152606401610a37565b336000908152600b602052604090205461110b5760405162461bcd60e51b815260206004820152601f60248201527f6e6f7420656c696769626c6520666f7220616c6c6f776c697374206d696e74006044820152606401610a37565b7f000000000000000000000000000000000000000000000000000000000000000061113560015490565b61114090600161323a565b11156111835760405162461bcd60e51b815260206004820152601260248201527172656163686564206d617820737570706c7960701b6044820152606401610a37565b336000908152600b6020526040812080549161119e836132c7565b91905055506111ae336001612391565b6111b7816123af565b50565b600083158015906111ca57508215155b80156111d65750814210155b949350505050565b610b6f838383604051806020016040528060008152506119d4565b3233146112185760405162461bcd60e51b8152600401610a3790613290565b600a5463ffffffff1680158015906112305750804210155b61127c5760405162461bcd60e51b815260206004820152601860248201527f73616c6520686173206e6f7420737461727465642079657400000000000000006044820152606401610a37565b7f0000000000000000000000000000000000000000000000000000000000000000826112a760015490565b6112b1919061323a565b11156113365760405162461bcd60e51b815260206004820152604860248201527f6e6f7420656e6f7567682072656d61696e696e6720726573657276656420666f60448201527f722061756374696f6e20746f20737570706f72742064657369726564206d696e6064820152671d08185b5bdd5b9d60c21b608482015260a401610a37565b7f00000000000000000000000000000000000000000000000000000000000000008261136133611d27565b61136b919061323a565b11156113b25760405162461bcd60e51b815260206004820152601660248201527563616e206e6f74206d696e742074686973206d616e7960501b6044820152606401610a37565b6000826113be83611620565b6113c891906132de565b90506113d43384612391565b610b6f816123af565b60006113e860015490565b82106114425760405162461bcd60e51b815260206004820152602360248201527f455243373231413a20676c6f62616c20696e646578206f7574206f6620626f756044820152626e647360e81b6064820152608401610a37565b5090565b6000546001600160a01b031633146114705760405162461bcd60e51b8152600401610a37906131d4565b610b6f600c8383612bb1565b61148a6104b0614fb061327c565b6114a4670214e8348c4f0000670de0b6b3a76400006132fd565b6114ae919061327c565b81565b60006114bc82612436565b5192915050565b6000546001600160a01b031633146114ed5760405162461bcd60e51b8152600401610a37906131d4565b600a805463ffffffff191663ffffffff92909216919091179055565b60006001600160a01b0382166115755760405162461bcd60e51b815260206004820152602b60248201527f455243373231413a2062616c616e636520717565727920666f7220746865207a60448201526a65726f206164647265737360a81b6064820152608401610a37565b506001600160a01b03166000908152600560205260409020546001600160801b031690565b6000546001600160a01b031633146115c45760405162461bcd60e51b8152600401610a37906131d4565b6115ce60006125df565b565b6000546001600160a01b031633146115fa5760405162461bcd60e51b8152600401610a37906131d4565b600a805463ffffffff909216600160c01b0263ffffffff60c01b19909216919091179055565b6000814210156116395750670de0b6b3a7640000919050565b614fb061164683426132fd565b1061165a5750670214e8348c4f0000919050565b60006104b061166984426132fd565b611673919061327c565b90506116836104b0614fb061327c565b61169d670214e8348c4f0000670de0b6b3a76400006132fd565b6116a7919061327c565b6116b190826132de565b6116c390670de0b6b3a76400006132fd565b9392505050565b919050565b604080518082019091526000808252602082015261093482612436565b60606003805461094990613199565b6001600160a01b0382163314156117545760405162461bcd60e51b815260206004820152601a60248201527f455243373231413a20617070726f766520746f2063616c6c65720000000000006044820152606401610a37565b3360008181526007602090815260408083206001600160a01b03871680855290835292819020805460ff191686151590811790915590519081529192917f17307eab39ab6107e8899845ad3d59bd9653f200f220920489ca2b5937696c31910160405180910390a35050565b6000546001600160a01b031633146117ea5760405162461bcd60e51b8152600401610a37906131d4565b6002600954141561183d5760405162461bcd60e51b815260206004820152601f60248201527f5265656e7472616e637947756172643a207265656e7472616e742063616c6c006044820152606401610a37565b6002600955604051600090339047908381818185875af1925050503d8060008114611884576040519150601f19603f3d011682016040523d82523d6000602084013e611889565b606091505b5050905080610cf25760405162461bcd60e51b815260206004820152601060248201526f2a3930b739b332b9103330b4b632b21760811b6044820152606401610a37565b6000546001600160a01b031633146118f75760405162461bcd60e51b8152600401610a37906131d4565b80518251146119595760405162461bcd60e51b815260206004820152602860248201527f61646472657373657320646f6573206e6f74206d61746368206e756d536c6f746044820152670e640d8cadccee8d60c31b6064820152608401610a37565b60005b8251811015610b6f5781818151811061197757611977613314565b6020026020010151600b600085848151811061199557611995613314565b60200260200101516001600160a01b03166001600160a01b031681526020019081526020016000208190555080806119cc9061321f565b91505061195c565b6119df848484611e26565b6119eb8484848461262f565b611a075760405162461bcd60e51b8152600401610a379061332a565b50505050565b6060611a1a826001541190565b611a7e5760405162461bcd60e51b815260206004820152602f60248201527f4552433732314d657461646174613a2055524920717565727920666f72206e6f60448201526e3732bc34b9ba32b73a103a37b5b2b760891b6064820152608401610a37565b6000611a8861272d565b90506000815111611aa857604051806020016040528060008152506116c3565b80611ab28461273c565b604051602001611ac392919061337d565b6040516020818303038152906040529392505050565b323314611af85760405162461bcd60e51b8152600401610a3790613290565b6040805160a081018252600a5463ffffffff808216835264010000000082048116602084018190526001600160401b03600160401b8404811695850195909552600160801b830490941660608401819052600160c01b90920416608083018190529192848314611bb85760405162461bcd60e51b815260206004820152602560248201527f63616c6c6564207769746820696e636f7272656374207075626c69632073616c60448201526465206b657960d81b6064820152608401610a37565b611bc38284836111ba565b611c0f5760405162461bcd60e51b815260206004820152601d60248201527f7075626c69632073616c6520686173206e6f7420626567756e207965740000006044820152606401610a37565b7f000000000000000000000000000000000000000000000000000000000000000086611c3a60015490565b611c44919061323a565b1115611c875760405162461bcd60e51b815260206004820152601260248201527172656163686564206d617820737570706c7960701b6044820152606401610a37565b7f000000000000000000000000000000000000000000000000000000000000000086611cb233611d27565b611cbc919061323a565b1115611d035760405162461bcd60e51b815260206004820152601660248201527563616e206e6f74206d696e742074686973206d616e7960501b6044820152606401610a37565b611d0d3387612391565b611d1f611d1a87846132de565b6123af565b505050505050565b600061093482612839565b6000546001600160a01b03163314611d5c5760405162461bcd60e51b8152600401610a37906131d4565b6001600160a01b038116611dc15760405162461bcd60e51b815260206004820152602660248201527f4f776e61626c653a206e6577206f776e657220697320746865207a65726f206160448201526564647265737360d01b6064820152608401610a37565b6111b7816125df565b60008281526006602052604080822080546001600160a01b0319166001600160a01b0387811691821790925591518593918516917f8c5be1e5ebec7d5bd14f71427d1e84f3dd0314c0f7b2291e5b200ac8c7c3b92591a4505050565b6000611e3182612436565b80519091506000906001600160a01b0316336001600160a01b03161480611e68575033611e5d846109cc565b6001600160a01b0316145b80611e7a57508151611e7a9033610835565b905080611ee45760405162461bcd60e51b815260206004820152603260248201527f455243373231413a207472616e736665722063616c6c6572206973206e6f74206044820152711bdddb995c881b9bdc88185c1c1c9bdd995960721b6064820152608401610a37565b846001600160a01b031682600001516001600160a01b031614611f585760405162461bcd60e51b815260206004820152602660248201527f455243373231413a207472616e736665722066726f6d20696e636f72726563746044820152651037bbb732b960d11b6064820152608401610a37565b6001600160a01b038416611fbc5760405162461bcd60e51b815260206004820152602560248201527f455243373231413a207472616e7366657220746f20746865207a65726f206164604482015264647265737360d81b6064820152608401610a37565b611fcc6000848460000151611dca565b6001600160a01b0385166000908152600560205260408120805460019290611ffe9084906001600160801b03166133ac565b82546101009290920a6001600160801b038181021990931691831602179091556001600160a01b0386166000908152600560205260408120805460019450909261204a918591166133d4565b82546001600160801b039182166101009390930a9283029190920219909116179055506040805180820182526001600160a01b0380871682526001600160401b03428116602080850191825260008981526004909152948520935184549151909216600160a01b026001600160e01b031990911691909216171790556120d184600161323a565b6000818152600460205260409020549091506001600160a01b0316612162576120fb816001541190565b156121625760408051808201825284516001600160a01b0390811682526020808701516001600160401b039081168285019081526000878152600490935294909120925183549451909116600160a01b026001600160e01b03199094169116179190911790555b83856001600160a01b0316876001600160a01b03167fddf252ad1be2c89b69c2b068fc378daa952ba7f163c4a11628f55a4df523b3ef60405160405180910390a4611d1f565b600854816121f85760405162461bcd60e51b815260206004820152601860248201527f7175616e74697479206d757374206265206e6f6e7a65726f00000000000000006044820152606401610a37565b60006001612206848461323a565b61221091906132fd565b905061223d60017f00000000000000000000000000000000000000000000000000000000000000006132fd565b8111156122725761226f60017f00000000000000000000000000000000000000000000000000000000000000006132fd565b90505b61227d816001541190565b6122d85760405162461bcd60e51b815260206004820152602660248201527f6e6f7420656e6f756768206d696e7465642079657420666f722074686973206360448201526506c65616e75760d41b6064820152608401610a37565b815b81811161237d576000818152600460205260409020546001600160a01b031661236b57600061230882612436565b60408051808201825282516001600160a01b0390811682526020938401516001600160401b039081168584019081526000888152600490965293909420915182549351909416600160a01b026001600160e01b0319909316931692909217179055505b806123758161321f565b9150506122da565b5061238981600161323a565b600855505050565b6123ab8282604051806020016040528060008152506128d7565b5050565b803410156123f85760405162461bcd60e51b81526020600482015260166024820152752732b2b2103a379039b2b7321036b7b9329022aa241760511b6044820152606401610a37565b803411156111b757336108fc61240e83346132fd565b6040518115909202916000818181858888f193505050501580156123ab573d6000803e3d6000fd5b6040805180820190915260008082526020820152612455826001541190565b6124b45760405162461bcd60e51b815260206004820152602a60248201527f455243373231413a206f776e657220717565727920666f72206e6f6e657869736044820152693a32b73a103a37b5b2b760b11b6064820152608401610a37565b60007f00000000000000000000000000000000000000000000000000000000000000008310612515576125077f0000000000000000000000000000000000000000000000000000000000000000846132fd565b61251290600161323a565b90505b825b81811061257e576000818152600460209081526040918290208251808401909352546001600160a01b038116808452600160a01b9091046001600160401b0316918301919091521561256b57949350505050565b5080612576816132c7565b915050612517565b5060405162461bcd60e51b815260206004820152602f60248201527f455243373231413a20756e61626c6520746f2064657465726d696e652074686560448201526e1037bbb732b91037b3103a37b5b2b760891b6064820152608401610a37565b600080546001600160a01b038381166001600160a01b0319831681178455604051919092169283917f8be0079c531659141344cd1fd0a4f28419497f9722a3daafe3b4186f6b6457e09190a35050565b60006001600160a01b0384163b1561272257604051630a85bd0160e11b81526001600160a01b0385169063150b7a02906126739033908990889088906004016133f6565b6020604051808303816000875af19250505080156126ae575060408051601f3d908101601f191682019092526126ab91810190613433565b60015b612708573d8080156126dc576040519150601f19603f3d011682016040523d82523d6000602084013e6126e1565b606091505b5080516127005760405162461bcd60e51b8152600401610a379061332a565b805181602001fd5b6001600160e01b031916630a85bd0160e11b1490506111d6565b506001949350505050565b6060600c805461094990613199565b6060816127605750506040805180820190915260018152600360fc1b602082015290565b8160005b811561278a57806127748161321f565b91506127839050600a8361327c565b9150612764565b6000816001600160401b038111156127a4576127a4612ef2565b6040519080825280601f01601f1916602001820160405280156127ce576020820181803683370190505b5090505b84156111d6576127e36001836132fd565b91506127f0600a86613268565b6127fb90603061323a565b60f81b81838151811061281057612810613314565b60200101906001600160f81b031916908160001a905350612832600a8661327c565b94506127d2565b60006001600160a01b0382166128ab5760405162461bcd60e51b815260206004820152603160248201527f455243373231413a206e756d626572206d696e74656420717565727920666f7260448201527020746865207a65726f206164647265737360781b6064820152608401610a37565b506001600160a01b0316600090815260056020526040902054600160801b90046001600160801b031690565b6001546001600160a01b03841661293a5760405162461bcd60e51b815260206004820152602160248201527f455243373231413a206d696e7420746f20746865207a65726f206164647265736044820152607360f81b6064820152608401610a37565b612945816001541190565b156129925760405162461bcd60e51b815260206004820152601d60248201527f455243373231413a20746f6b656e20616c7265616479206d696e7465640000006044820152606401610a37565b7f0000000000000000000000000000000000000000000000000000000000000000831115612a0d5760405162461bcd60e51b815260206004820152602260248201527f455243373231413a207175616e7469747920746f206d696e7420746f6f2068696044820152610ced60f31b6064820152608401610a37565b6001600160a01b0384166000908152600560209081526040918290208251808401845290546001600160801b038082168352600160801b9091041691810191909152815180830190925280519091908190612a699087906133d4565b6001600160801b03168152602001858360200151612a8791906133d4565b6001600160801b039081169091526001600160a01b0380881660008181526005602090815260408083208751978301518716600160801b029790961696909617909455845180860186529182526001600160401b034281168386019081528883526004909552948120915182549451909516600160a01b026001600160e01b031990941694909216939093179190911790915582905b85811015612ba65760405182906001600160a01b038916906000907fddf252ad1be2c89b69c2b068fc378daa952ba7f163c4a11628f55a4df523b3ef908290a4612b6a600088848861262f565b612b865760405162461bcd60e51b8152600401610a379061332a565b81612b908161321f565b9250508080612b9e9061321f565b915050612b1d565b506001819055611d1f565b828054612bbd90613199565b90600052602060002090601f016020900481019282612bdf5760008555612c25565b82601f10612bf85782800160ff19823516178555612c25565b82800160010185558215612c25579182015b82811115612c25578235825591602001919060010190612c0a565b506114429291505b808211156114425760008155600101612c2d565b6001600160e01b0319811681146111b757600080fd5b600060208284031215612c6957600080fd5b81356116c381612c41565b60005b83811015612c8f578181015183820152602001612c77565b83811115611a075750506000910152565b60008151808452612cb8816020860160208601612c74565b601f01601f19169290920160200192915050565b6020815260006116c36020830184612ca0565b600060208284031215612cf157600080fd5b5035919050565b80356001600160a01b03811681146116ca57600080fd5b60008060408385031215612d2257600080fd5b612d2b83612cf8565b946020939093013593505050565b80356001600160401b03811681146116ca57600080fd5b803563ffffffff811681146116ca57600080fd5b600080600060608486031215612d7957600080fd5b612d8284612d39565b9250612d9060208501612d39565b9150612d9e60408501612d50565b90509250925092565b600080600060608486031215612dbc57600080fd5b612dc584612cf8565b9250612dd360208501612cf8565b9150604084013590509250925092565b600080600060608486031215612df857600080fd5b505081359360208301359350604090920135919050565b60008060208385031215612e2257600080fd5b82356001600160401b0380821115612e3957600080fd5b818501915085601f830112612e4d57600080fd5b813581811115612e5c57600080fd5b866020828501011115612e6e57600080fd5b60209290920196919550909350505050565b600060208284031215612e9257600080fd5b6116c382612d50565b600060208284031215612ead57600080fd5b6116c382612cf8565b60008060408385031215612ec957600080fd5b612ed283612cf8565b915060208301358015158114612ee757600080fd5b809150509250929050565b634e487b7160e01b600052604160045260246000fd5b604051601f8201601f191681016001600160401b0381118282101715612f3057612f30612ef2565b604052919050565b60006001600160401b03821115612f5157612f51612ef2565b5060051b60200190565b600082601f830112612f6c57600080fd5b81356020612f81612f7c83612f38565b612f08565b82815260059290921b84018101918181019086841115612fa057600080fd5b8286015b84811015612fbb5780358352918301918301612fa4565b509695505050505050565b60008060408385031215612fd957600080fd5b82356001600160401b0380821115612ff057600080fd5b818501915085601f83011261300457600080fd5b81356020613014612f7c83612f38565b82815260059290921b8401810191818101908984111561303357600080fd5b948201945b838610156130585761304986612cf8565b82529482019490820190613038565b9650508601359250508082111561306e57600080fd5b5061307b85828601612f5b565b9150509250929050565b6000806000806080858703121561309b57600080fd5b6130a485612cf8565b935060206130b3818701612cf8565b93506040860135925060608601356001600160401b03808211156130d657600080fd5b818801915088601f8301126130ea57600080fd5b8135818111156130fc576130fc612ef2565b61310e601f8201601f19168501612f08565b9150808252898482850101111561312457600080fd5b808484018584013760008482840101525080935050505092959194509250565b6000806040838503121561315757600080fd5b50508035926020909101359150565b6000806040838503121561317957600080fd5b61318283612cf8565b915061319060208401612cf8565b90509250929050565b600181811c908216806131ad57607f821691505b602082108114156131ce57634e487b7160e01b600052602260045260246000fd5b50919050565b6020808252818101527f4f776e61626c653a2063616c6c6572206973206e6f7420746865206f776e6572604082015260600190565b634e487b7160e01b600052601160045260246000fd5b600060001982141561323357613233613209565b5060010190565b6000821982111561324d5761324d613209565b500190565b634e487b7160e01b600052601260045260246000fd5b60008261327757613277613252565b500690565b60008261328b5761328b613252565b500490565b6020808252601e908201527f5468652063616c6c657220697320616e6f7468657220636f6e74726163740000604082015260600190565b6000816132d6576132d6613209565b506000190190565b60008160001904831182151516156132f8576132f8613209565b500290565b60008282101561330f5761330f613209565b500390565b634e487b7160e01b600052603260045260246000fd5b60208082526033908201527f455243373231413a207472616e7366657220746f206e6f6e204552433732315260408201527232b1b2b4bb32b91034b6b83632b6b2b73a32b960691b606082015260800190565b6000835161338f818460208801612c74565b8351908301906133a3818360208801612c74565b01949350505050565b60006001600160801b03838116908316818110156133cc576133cc613209565b039392505050565b60006001600160801b038083168185168083038211156133a3576133a3613209565b6001600160a01b038581168252841660208201526040810183905260806060820181905260009061342990830184612ca0565b9695505050505050565b60006020828403121561344557600080fd5b81516116c381612c4156fea2646970667358221220d28e6d537c35d94da4513e8664602a3c811f6486a6abf8526daeae28972efaf664736f6c634300080a0033",
  "immutableReferences": {
    "9330": [
      {
        "length": 32,
        "start": 4365
      },
      {
        "length": 32,
        "start": 7185
      },
      {
        "length": 32,
        "start": 8729
      },
      {
        "length": 32,
        "start": 8779
      }
    ],
    "9332": [
      {
        "length": 32,
        "start": 3892
      },
      {
        "length": 32,
        "start": 4034
      },
      {
        "length": 32,
        "start": 4090
      },
      {
        "length": 32,
        "start": 9400
      },
      {
        "length": 32,
        "start": 9442
      },
      {
        "length": 32,
        "start": 10644
      }
    ],
    "10497": [
      {
        "length": 32,
        "start": 1412
      },
      {
        "length": 32,
        "start": 4920
      },
      {
        "length": 32,
        "start": 7305
      }
    ],
    "10499": [
      {
        "length": 32,
        "start": 2219
      },
      {
        "length": 32,
        "start": 3742
      }
    ],
    "10501": [
      {
        "length": 32,
        "start": 1172
      },
      {
        "length": 32,
        "start": 4734
      }
    ]
  },
  "source": "// SPDX-License-Identifier: MIT\r\n\r\npragma solidity ^0.8.0;\r\n\r\nimport \"@openzeppelin/contracts/access/Ownable.sol\";\r\nimport \"@openzeppelin/contracts/security/ReentrancyGuard.sol\";\r\nimport \"@openzeppelin/contracts/utils/Strings.sol\";\r\nimport \"./ERC721A.sol\";\r\n\r\ncontract MappyNFToken is Ownable, ERC721A, ReentrancyGuard {\r\n  uint256 public immutable maxPerAddressDuringMint;\r\n  uint256 public immutable amountForDevs;\r\n  uint256 public immutable amountForAuctionAndDev;\r\n\r\n  struct SaleConfig {\r\n    uint32 auctionSaleStartTime;\r\n    uint32 publicSaleStartTime;\r\n    uint64 mintlistPrice;\r\n    uint64 publicPrice;\r\n    uint32 publicSaleKey;\r\n  }\r\n\r\n  SaleConfig public saleConfig;\r\n\r\n  mapping(address => uint256) public allowlist;\r\n\r\n  constructor(\r\n    uint256 maxBatchSize_,\r\n    uint256 collectionSize_,\r\n    uint256 amountForAuctionAndDev_,\r\n    uint256 amountForDevs_\r\n  ) ERC721A(\"Mappy NFT\", \"MAPPYNFT\", maxBatchSize_, collectionSize_) {\r\n    maxPerAddressDuringMint = maxBatchSize_;\r\n    amountForAuctionAndDev = amountForAuctionAndDev_;\r\n    amountForDevs = amountForDevs_;\r\n    require(\r\n      amountForAuctionAndDev_ <= collectionSize_,\r\n      \"larger collection size needed\"\r\n    );\r\n  }\r\n\r\n  modifier callerIsUser() {\r\n    require(tx.origin == msg.sender, \"The caller is another contract\");\r\n    _;\r\n  }\r\n\r\n  function auctionMint(uint256 quantity) external payable callerIsUser {\r\n    uint256 _saleStartTime = uint256(saleConfig.auctionSaleStartTime);\r\n    require(\r\n      _saleStartTime != 0 && block.timestamp >= _saleStartTime,\r\n      \"sale has not started yet\"\r\n    );\r\n    require(\r\n      totalSupply() + quantity <= amountForAuctionAndDev,\r\n      \"not enough remaining reserved for auction to support desired mint amount\"\r\n    );\r\n    require(\r\n      numberMinted(msg.sender) + quantity <= maxPerAddressDuringMint,\r\n      \"can not mint this many\"\r\n    );\r\n    uint256 totalCost = getAuctionPrice(_saleStartTime) * quantity;\r\n    _safeMint(msg.sender, quantity);\r\n    refundIfOver(totalCost);\r\n  }\r\n\r\n  function allowlistMint() external payable callerIsUser {\r\n    uint256 price = uint256(saleConfig.mintlistPrice);\r\n    require(price != 0, \"allowlist sale has not begun yet\");\r\n    require(allowlist[msg.sender] > 0, \"not eligible for allowlist mint\");\r\n    require(totalSupply() + 1 <= collectionSize, \"reached max supply\");\r\n    allowlist[msg.sender]--;\r\n    _safeMint(msg.sender, 1);\r\n    refundIfOver(price);\r\n  }\r\n\r\n  function publicSaleMint(uint256 quantity, uint256 callerPublicSaleKey)\r\n    external\r\n    payable\r\n    callerIsUser\r\n  {\r\n    SaleConfig memory config = saleConfig;\r\n    uint256 publicSaleKey = uint256(config.publicSaleKey);\r\n    uint256 publicPrice = uint256(config.publicPrice);\r\n    uint256 publicSaleStartTime = uint256(config.publicSaleStartTime);\r\n    require(\r\n      publicSaleKey == callerPublicSaleKey,\r\n      \"called with incorrect public sale key\"\r\n    );\r\n\r\n    require(\r\n      isPublicSaleOn(publicPrice, publicSaleKey, publicSaleStartTime),\r\n      \"public sale has not begun yet\"\r\n    );\r\n    require(totalSupply() + quantity <= collectionSize, \"reached max supply\");\r\n    require(\r\n      numberMinted(msg.sender) + quantity <= maxPerAddressDuringMint,\r\n      \"can not mint this many\"\r\n    );\r\n    _safeMint(msg.sender, quantity);\r\n    refundIfOver(publicPrice * quantity);\r\n  }\r\n\r\n  function refundIfOver(uint256 price) private {\r\n    require(msg.value >= price, \"Need to send more ETH.\");\r\n    if (msg.value > price) {\r\n      payable(msg.sender).transfer(msg.value - price);\r\n    }\r\n  }\r\n\r\n  function isPublicSaleOn(\r\n    uint256 publicPriceWei,\r\n    uint256 publicSaleKey,\r\n    uint256 publicSaleStartTime\r\n  ) public view returns (bool) {\r\n    return\r\n      publicPriceWei != 0 &&\r\n      publicSaleKey != 0 &&\r\n      block.timestamp >= publicSaleStartTime;\r\n  }\r\n\r\n  uint256 public constant AUCTION_START_PRICE = 1 ether;\r\n  uint256 public constant AUCTION_END_PRICE = 0.15 ether;\r\n  uint256 public constant AUCTION_PRICE_CURVE_LENGTH = 340 minutes;\r\n  uint256 public constant AUCTION_DROP_INTERVAL = 20 minutes;\r\n  uint256 public constant AUCTION_DROP_PER_STEP =\r\n    (AUCTION_START_PRICE - AUCTION_END_PRICE) /\r\n      (AUCTION_PRICE_CURVE_LENGTH / AUCTION_DROP_INTERVAL);\r\n\r\n  function getAuctionPrice(uint256 _saleStartTime)\r\n    public\r\n    view\r\n    returns (uint256)\r\n  {\r\n    if (block.timestamp < _saleStartTime) {\r\n      return AUCTION_START_PRICE;\r\n    }\r\n    if (block.timestamp - _saleStartTime >= AUCTION_PRICE_CURVE_LENGTH) {\r\n      return AUCTION_END_PRICE;\r\n    } else {\r\n      uint256 steps = (block.timestamp - _saleStartTime) /\r\n        AUCTION_DROP_INTERVAL;\r\n      return AUCTION_START_PRICE - (steps * AUCTION_DROP_PER_STEP);\r\n    }\r\n  }\r\n\r\n  function endAuctionAndSetupNonAuctionSaleInfo(\r\n    uint64 mintlistPriceWei,\r\n    uint64 publicPriceWei,\r\n    uint32 publicSaleStartTime\r\n  ) external onlyOwner {\r\n    saleConfig = SaleConfig(\r\n      0,\r\n      publicSaleStartTime,\r\n      mintlistPriceWei,\r\n      publicPriceWei,\r\n      saleConfig.publicSaleKey\r\n    );\r\n  }\r\n\r\n  function setAuctionSaleStartTime(uint32 timestamp) external onlyOwner {\r\n    saleConfig.auctionSaleStartTime = timestamp;\r\n  }\r\n\r\n  function setPublicSaleKey(uint32 key) external onlyOwner {\r\n    saleConfig.publicSaleKey = key;\r\n  }\r\n\r\n  function seedAllowlist(address[] memory addresses, uint256[] memory numSlots)\r\n    external\r\n    onlyOwner\r\n  {\r\n    require(\r\n      addresses.length == numSlots.length,\r\n      \"addresses does not match numSlots length\"\r\n    );\r\n    for (uint256 i = 0; i < addresses.length; i++) {\r\n      allowlist[addresses[i]] = numSlots[i];\r\n    }\r\n  }\r\n\r\n  // For marketing etc.\r\n  function devMint(uint256 quantity) external onlyOwner {\r\n    require(\r\n      totalSupply() + quantity <= amountForDevs,\r\n      \"too many already minted before dev mint\"\r\n    );\r\n    require(\r\n      quantity % maxBatchSize == 0,\r\n      \"can only mint a multiple of the maxBatchSize\"\r\n    );\r\n    uint256 numChunks = quantity / maxBatchSize;\r\n    for (uint256 i = 0; i < numChunks; i++) {\r\n      _safeMint(msg.sender, maxBatchSize);\r\n    }\r\n  }\r\n\r\n  // // metadata URI\r\n  string private _baseTokenURI;\r\n\r\n  function _baseURI() internal view virtual override returns (string memory) {\r\n    return _baseTokenURI;\r\n  }\r\n\r\n  function setBaseURI(string calldata baseURI) external onlyOwner {\r\n    _baseTokenURI = baseURI;\r\n  }\r\n\r\n  function withdrawMoney() external onlyOwner nonReentrant {\r\n    (bool success, ) = msg.sender.call{value: address(this).balance}(\"\");\r\n    require(success, \"Transfer failed.\");\r\n  }\r\n\r\n  function setOwnersExplicit(uint256 quantity) external onlyOwner nonReentrant {\r\n    _setOwnersExplicit(quantity);\r\n  }\r\n\r\n  function numberMinted(address owner) public view returns (uint256) {\r\n    return _numberMinted(owner);\r\n  }\r\n\r\n  function getOwnershipData(uint256 tokenId)\r\n    external\r\n    view\r\n    returns (TokenOwnership memory)\r\n  {\r\n    return ownershipOf(tokenId);\r\n  }\r\n}",
  "sourcePath": "F:\\Cory_Career\\Stan_M\\mappycoin-dashboard\\contracts\\MappyToken_ERC721A\\MappyNFToken.sol",
  "compiler": {
    "name": "solc",
    "version": "0.8.10+commit.fc410830.Emscripten.clang"
  },
  "schemaVersion": "3.4.3",
  "updatedAt": "2022-02-07T17:05:12.126Z",
  "devdoc": {
    "kind": "dev",
    "methods": {
      "approve(address,uint256)": {
        "details": "See {IERC721-approve}."
      },
      "balanceOf(address)": {
        "details": "See {IERC721-balanceOf}."
      },
      "getApproved(uint256)": {
        "details": "See {IERC721-getApproved}."
      },
      "isApprovedForAll(address,address)": {
        "details": "See {IERC721-isApprovedForAll}."
      },
      "name()": {
        "details": "See {IERC721Metadata-name}."
      },
      "owner()": {
        "details": "Returns the address of the current owner."
      },
      "ownerOf(uint256)": {
        "details": "See {IERC721-ownerOf}."
      },
      "renounceOwnership()": {
        "details": "Leaves the contract without owner. It will not be possible to call `onlyOwner` functions anymore. Can only be called by the current owner. NOTE: Renouncing ownership will leave the contract without an owner, thereby removing any functionality that is only available to the owner."
      },
      "safeTransferFrom(address,address,uint256)": {
        "details": "See {IERC721-safeTransferFrom}."
      },
      "safeTransferFrom(address,address,uint256,bytes)": {
        "details": "See {IERC721-safeTransferFrom}."
      },
      "setApprovalForAll(address,bool)": {
        "details": "See {IERC721-setApprovalForAll}."
      },
      "supportsInterface(bytes4)": {
        "details": "See {IERC165-supportsInterface}."
      },
      "symbol()": {
        "details": "See {IERC721Metadata-symbol}."
      },
      "tokenByIndex(uint256)": {
        "details": "See {IERC721Enumerable-tokenByIndex}."
      },
      "tokenOfOwnerByIndex(address,uint256)": {
        "details": "See {IERC721Enumerable-tokenOfOwnerByIndex}. This read function is O(collectionSize). If calling from a separate contract, be sure to test gas first. It may also degrade with extremely large collection sizes (e.g >> 10000), test for your use case."
      },
      "tokenURI(uint256)": {
        "details": "See {IERC721Metadata-tokenURI}."
      },
      "totalSupply()": {
        "details": "See {IERC721Enumerable-totalSupply}."
      },
      "transferFrom(address,address,uint256)": {
        "details": "See {IERC721-transferFrom}."
      },
      "transferOwnership(address)": {
        "details": "Transfers ownership of the contract to a new account (`newOwner`). Can only be called by the current owner."
      }
    },
    "version": 1
  },
  "userdoc": {
    "kind": "user",
    "methods": {},
    "version": 1
  }
}