{
  "contractName": "Reservoir",
  "abi": [
    {
      "inputs": [
        {
          "internalType": "contract IERC20",
          "name": "_token",
          "type": "address"
        },
        {
          "internalType": "address",
          "name": "_target",
          "type": "address"
        }
      ],
      "stateMutability": "nonpayable",
      "type": "constructor"
    },
    {
      "inputs": [],
      "name": "target",
      "outputs": [
        {
          "internalType": "address",
          "name": "",
          "type": "address"
        }
      ],
      "stateMutability": "view",
      "type": "function"
    },
    {
      "inputs": [],
      "name": "token",
      "outputs": [
        {
          "internalType": "contract IERC20",
          "name": "",
          "type": "address"
        }
      ],
      "stateMutability": "view",
      "type": "function"
    },
    {
      "inputs": [
        {
          "internalType": "uint256",
          "name": "requestedTokens",
          "type": "uint256"
        }
      ],
      "name": "drip",
      "outputs": [
        {
          "internalType": "uint256",
          "name": "sentTokens",
          "type": "uint256"
        }
      ],
      "stateMutability": "nonpayable",
      "type": "function"
    }
  ],
  "bytecode": "0x608060405234801561001057600080fd5b5060405161036138038061036183398101604081905261002f91610078565b600080546001600160a01b039384166001600160a01b031991821617909155600180549290931691161790556100b2565b6001600160a01b038116811461007557600080fd5b50565b6000806040838503121561008b57600080fd5b825161009681610060565b60208401519092506100a781610060565b809150509250929050565b6102a0806100c16000396000f3fe608060405234801561001057600080fd5b50600436106100415760003560e01c806358326b7a14610046578063d4b839921461006c578063fc0c546a14610097575b600080fd5b61005961005436600461020f565b6100aa565b6040519081526020015b60405180910390f35b60015461007f906001600160a01b031681565b6040516001600160a01b039091168152602001610063565b60005461007f906001600160a01b031681565b6001546000805490916001600160a01b0390811691163382146101135760405162461bcd60e51b815260206004820152601c60248201527f5265736572766f69723a207065726d697373696f6e2064656e69656400000000604482015260640160405180910390fd5b6040516370a0823160e01b81523060048201526000906001600160a01b038316906370a0823190602401602060405180830381865afa15801561015a573d6000803e3d6000fd5b505050506040513d601f19601f8201168201806040525081019061017e9190610228565b905080851161018d578461018f565b805b60405163a9059cbb60e01b81526001600160a01b038581166004830152602482018390529195509083169063a9059cbb906044016020604051808303816000875af11580156101e2573d6000803e3d6000fd5b505050506040513d601f19601f820116820180604052508101906102069190610241565b50505050919050565b60006020828403121561022157600080fd5b5035919050565b60006020828403121561023a57600080fd5b5051919050565b60006020828403121561025357600080fd5b8151801515811461026357600080fd5b939250505056fea264697066735822122055c504d99f51952da813480e2176de25aa6f9d3878893a6abe4d5d11a186fa1e64736f6c634300080c0033",
  "immutableReferences": {},
  "source": "// SPDX-License-Identifier: MIT\r\n\r\npragma solidity ^0.8.10;\r\n\r\nimport \"@openzeppelin/contracts/token/ERC20/IERC20.sol\";\r\n\r\n/**\r\n * @title Reservoir\r\n *\r\n * @dev The contract is used to keep tokens with the function\r\n * of transfer them to another target address (it is assumed that\r\n * it will be a contract address).\r\n */\r\ncontract Reservoir {\r\n    IERC20 public token;\r\n    address public target;\r\n\r\n    /**\r\n     * @dev A constructor sets the address of token and\r\n     * the address of the target contract.\r\n     */\r\n    constructor(IERC20 _token, address _target) public {\r\n        token = _token;\r\n        target = _target;\r\n    }\r\n\r\n    /**\r\n     * @dev Transfers a certain amount of tokens to the target address.\r\n     *\r\n     * Requirements:\r\n     * - msg.sender should be the target address.\r\n     *\r\n     * @param requestedTokens The amount of tokens to transfer.\r\n     */\r\n    function drip(uint256 requestedTokens)\r\n        external\r\n        returns (uint256 sentTokens)\r\n    {\r\n        address target_ = target;\r\n        IERC20 token_ = token;\r\n        require(msg.sender == target_, \"Reservoir: permission denied\");\r\n\r\n        uint256 reservoirBalance = token_.balanceOf(address(this));\r\n        sentTokens = (requestedTokens > reservoirBalance)\r\n            ? reservoirBalance\r\n            : requestedTokens;\r\n\r\n        token_.transfer(target_, sentTokens);\r\n    }\r\n}",
  "sourcePath": "F:\\Cory_Career\\Stan_M\\mappycoin-dashboard\\contracts\\MappyFarm\\Reservoir.sol",
  "compiler": {
    "name": "solc",
    "version": "0.8.12+commit.f00d7308.Emscripten.clang"
  },
  "schemaVersion": "3.4.3",
  "updatedAt": "2022-02-24T00:21:02.642Z",
  "devdoc": {
    "details": "The contract is used to keep tokens with the function of transfer them to another target address (it is assumed that it will be a contract address).",
    "kind": "dev",
    "methods": {
      "constructor": {
        "details": "A constructor sets the address of token and the address of the target contract."
      },
      "drip(uint256)": {
        "details": "Transfers a certain amount of tokens to the target address. Requirements: - msg.sender should be the target address.",
        "params": {
          "requestedTokens": "The amount of tokens to transfer."
        }
      }
    },
    "title": "Reservoir",
    "version": 1
  },
  "userdoc": {
    "kind": "user",
    "methods": {},
    "version": 1
  }
}